:1000000089C20000A7C20000A5C20000A3C2000070
:10001000A1C200009FC200009DC200009BC2000060
:1000200099C2000097C200000C94EB0993C2000033
:1000300091C200008FC200008DC200008BC2000080
:1000400089C2000087C2000085C2000083C2000090
:1000500081C200007FC200007DC200007BC20000A0
:1000600079C200000C94F50C0C941E0D73C20000B4
:1000700071C200006FC200006DC200006BC20000C0
:1000800069C2000067C2000065C2000063C20000D0
:1000900061C200005FC200005DC200005BC20000E0
:1000A00059C2000057C2000055C2000053C20000F0
:1000B00051C200004FC200004DC200000C94D10993
:1000C00049C2000047C2000045C2000043C2000010
:1000D00041C200003FC200003DC200003BC2000020
:1000E00039C2000037C200000C94990D0C94C20D67
:1000F00031C200002FC200002DC200002BC2000040
:1001000029C2000027C2000025C2000023C200004F
:1001100021C200001FC200001DC200001BC200005F
:1001200019C2000017C2000015C2000013C200006F
:1001300011C200000FC200000DC200000BC200007F
:1001400009C2000007C2000005C2000003C200008F
:1001500001C20000FFC10000FDC10000FBC10000A2
:100160000C94470D0C94700DF5C10000F3C1000014
:10017000F1C10000EFC10000EDC10000EBC10000C3
:10018000E9C10000E7C10000E5C10000E3C10000D3
:10019000E1C10000DFC10000DDC10000DBC10000E3
:1001A000D9C10000D7C10000D5C10000D3C10000F3
:1001B000D1C10000CFC10000CDC10000CBC1000003
:1001C000C9C10000C7C10000C5C10000C3C1000013
:1001D000C1C10000BFC10000BDC10000BBC1000023
:1001E000B9C10000B7C10000B5C10000B3C1000033
:1001F000B1C100000C94B51CADC100004C186B18C7
:100200002D196B182D19AC18C0182D1909191219B0
:100210004877763A25782C205273743A25780A006C
:100220005469633A25640A0020453A2A7462642AB4
:100230000D0A0020423A2530366C7800214B3A41B5
:100240003A2530366C7800426F6F74206C6F6164B1
:10025000657220737461727465640A0026034C0031
:1002600055004600410020004400750061006C000C
:1002700020004300440043002000440065006D005E
:100280006F00000018034400650061006E0020004C
:10029000430061006D00650072006100000004030E
:1002A000090409028300040100C032080B000202A5
:1002B00002010009040000010202010005240010EF
:1002C0000104240206052406000107058303080033
:1002D000FF09040100020A000000070502021000E5
:1002E0000507058102100005080B02020202010049
:1002F0000904020001020201000524001001042487
:1003000002060524060203070586030800FF090408
:100310000300020A0000000705050210000507059A
:10032000840210000512011001EF020108EB034ED8
:100330002001000102DC01A2049D0499048E0484C2
:100340000478046004460428041304FE03DE03BC9E
:1003500003B503AD03A4039B0393038B03810377CE
:10036000036D03650341545E534349440041545EA9
:10037000534953543D300041545E5349534F3D302F
:100380000041545E534953433D300041545E534D48
:10039000474C0041545E534D474C0041542B434D54
:1003A00047443D0041545E534D47523D0041545E29
:1003B000534D534F0041542B4353510041545E530E
:1003C0004953533D302C414444524553532C2277DA
:1003D00077772E686F6A2E6E753A38302200415456
:1003E0005E534943533D302C61706E2C226F6E6C0E
:1003F000696E652E74656C69612E736522004154C7
:100400005E534953533D302C414C50484142455472
:100410002C310041545E534943533D302C414C50E4
:1004200048414245542C310041545E534953533D99
:10043000302C535256545950452C5452414E53501F
:100440004152454E540041545E534943533D302C74
:1004500022696E616374544F222C202232302200B4
:1004600041545E534943533D302C636F6E54797051
:10047000652C47505253300041542B434E4D493D5B
:10048000322C310041542B435245473D32004154F8
:100490005E5353594E433D31004154490041545637
:1004A00030004154453000D604D104CB04C404BD0F
:1004B00004B604B504005E534349443A005E534D0C
:1004C000474C3A005E534D47523A002B434D544936
:1004D000005E534953002B435245473A00303030B9
:1004E00030414130324346323500303031313030E6
:1004F000302D3931002046573A200020666F756E46
:10050000642E2048573A20005243313138302D4D67
:100510004255530011241FBECFEFCDBFDFE3DEBF36
:1005200000E00CBF12E2A0E0B0E2E0E9F6E400E097
:100530000BBF02C007900D92AC3AB107D9F720E388
:10054000ACEAB2E201C01D92AD32B207E1F792D33C
:100550000C94462355CD3BB78BBFFB0186913BBF27
:1005600008953BB78BBFFB01879196913BBF0895E0
:1005700042E030C041E02EC08093C00188278093C4
:10058000C1018093C20147E015D0CB01089548E333
:1005900011C049E30FC028ED2093340021E02093DF
:1005A000CC0108952091CF0127FDFCCF2227209375
:1005B000CA0108954093CA0128ED31E02093340028
:1005C0003093CB016091C4017091C5018091C60147
:1005D00099270895FC014093CA018491089598E0F9
:1005E00028E1362F382730FD02C0669503C0622708
:1005F0006695606886959150A1F7862F089598E0DA
:10060000282F262720FD03C07695679507C022E096
:10061000622720E4722776956795706886959150D9
:1006200079F7CB010895EF92FF920F931F93CF9329
:10063000DF93EC017C0187E0E80EF11C8E0160E0A5
:10064000F80181918F01CBDF682F0E151F05C1F7CF
:1006500081E09F81691301C080E0DF91CF911F91FC
:100660000F91FF90EF900895E0EAF6E088E0818333
:10067000858388EB838B84E0828388E1828BE0EA48
:10068000FBE084818861848383E0858383E48683BF
:1006900086EA878308959091A10B906C9093A10BAB
:1006A0008093A00B8091A10B86FFFCCF80E491E0AA
:1006B0002091A10B27FD03C001970097C9F783E4A0
:1006C0008093A60B86EA8093A70B8091A00B0895D8
:1006D0008FEFE1CF80E0DFCFCF93DF93D82FC8E05B
:1006E000D0FF02C0F5DF01C0F5DFD695C150C1F7DC
:1006F000DF91CF9108958CECEFCFEF92FF920F93A3
:100700001F93CF93DF931F92CDB7DEB7182F85E5E8
:100710009983E2DFE12E9981F92E8701085F1F4F4F
:10072000F70181917F01D8DFE016F106C9F70F903C
:10073000DF91CF911F910F91FF90EF9008958FEF70
:10074000AADF91E08F3F09F090E0892F0895CF93C1
:10075000DF93D8E0C0E0C695F2DF8111C068D150C8
:10076000D1F78C2FDF91CF910895EF92FF920F93E5
:100770001F93CF93DF931F92CDB7DEB7182F83E37C
:100780009983AADFE12E9981F92E8701085F1F4F17
:10079000DEDFF70181937F01E017F107C9F70F90C2
:1007A000DF91CF911F910F91FF90EF900895DF920D
:1007B000EF92FF920F931F93CF93DF93EC01E62EFE
:1007C00080EF8ADF11E0F12C01E0B9DFD82EB7DF2E
:1007D000DD2029F0811129C08881812B06C09881F4
:1007E000882329F0812F8095892388830FC00E11DB
:1007F00003C0912B98830AC0E01628F4812F8095BE
:100800008923888302C0912309F4F02E88818123F3
:1008100011F05EDF01C05EDF0F5F110F11F4219652
:1008200011E0013491F68F2D01C08FEFDF91CF9150
:100830001F910F91FF90EF90DF9008958091A40B8E
:100840008F7E8093A40B8091A40B80618093A40B76
:100850008EED8093A60B84EE8093A70B80EF1BDFB9
:1008600091E0803F09F490E0892F08956F927F9284
:100870009F92AF92BF92CF92DF92EF92FF920F932F
:100880001F93CF93DF931F92CDB7DEB78C01A62EB7
:10089000FC0120E02A1579F0108280E090E0DF0171
:1008A000A80FB91F11961C92019688309105B9F7CF
:1008B0002F5F3996EFCFC2DF98012F5F3F4F39018D
:1008C000882381F1B22EC72C82E08093250678011F
:1008D000F901D12C60E048E0942EAB2DBC2D892D80
:1008E00001900D928A95E1F76983A8DF69818B2DCC
:1008F0009C2D5DDF682FD394F701D0829801F9E039
:10090000DF9E200D311D11242F5F3F4F882359F0AA
:1009100089E0E80EF11CDA1430F4EB2DFC2DB22E38
:10092000C32EDBCFD12C730110E01D1549F0C70198
:100930007ADE99E0E90EF11C811104C01F5FF5CF4A
:1009400080E001C081E00F90DF91CF911F910F9166
:10095000FF90EF90DF90CF90BF90AF909F907F90EF
:100960006F9008958BBFFB0107900020E9F7609519
:1009700070956E0F7F1FCB010895FA016BBFDC01EC
:100980000790002009F40895FA016BBF07907D914C
:10099000772369F07015CD01D1F70790002051F051
:1009A0007C91772321F0701579F71196F6CF88277F
:1009B0009927089501976BBF0895E0E0F6E09481D0
:1009C000907F982B9483089580E1809355008091C7
:1009D00050008061809350008091510084FFFCCFD3
:1009E0002FB7F89434E088ED90E0A0E4B0E01BBEAF
:1009F000FD0184BF30832FBF8FE39FE10197F1F7A3
:100A000000C000008091400080915000826080937F
:100A100050008091510081FFFCCF8091560084608E
:100A2000809356008BE18093650087EB809366008E
:100A300082E08093CA01EDE1F0E0E491E09362008E
:100A4000ECE1F0E0E491E09363001092CA0181E0F0
:100A5000809360008091500084608093500080916A
:100A6000510082FFFCCF8DE08093430081E08093B2
:100A7000000483E08093020487E08093A2008FE06B
:100A8000809301068093060680E097DF0C94801C1B
:100A900089E093CF80E091CFCF938BE190E20E94E9
:100AA000221DC82F80E090E20E94221D882321F0A1
:100AB000CC2311F081E001C088E0CF917ECF8BE1A3
:100AC00090E20E94461E80E090E20C94461EEEEFFB
:100AD000F0E280E08CBF1994089561E080E09AE034
:100AE000FFD5E0EAF0E082818160828366E080E009
:100AF0009AE0F0D5E0E2F6E081E08183868382E04F
:100B000081838683E0E6F6E081830895AF92BF9209
:100B1000CF92DF92EF92FF920F931F93CF93DF93C9
:100B2000CDB7DEB7AE97CDBFDEBF80E2E6E3F0E241
:100B3000DE01119601900D928A95E1F76E0181E236
:100B4000C80ED11C8DE0F60111928A95E9F788E074
:100B500089A3E5E2F3E2119283E2E534F807D9F7DD
:100B600085E293E20E94DF168EA78EA5882341F0CE
:100B700081E890E29F938F930E9409200F900F903D
:100B80004AE5E42E40E2F42E8E010F5F1F4F20E075
:100B900040E065E273E281ED92E20E94D0178EA7F9
:100BA0008EA5882369F08EA51F928F9389E890E225
:100BB0009F938F930E9409200F900F900F900F909A
:100BC0000E942F168EA71EA685E990E29F938F9311
:100BD0000E9409200F900F9005E213E232EAE32E03
:100BE00030E2F32EF80181918F011F928F93FF92D3
:100BF000EF920E9409200F900F900F900F90F3E258
:100C000008341F0779F786E5E82E80E2F82E95E292
:100C1000A92E93E2B92E00E010E023EAC22E21E2D1
:100C2000D22EF50191915F01F70181917F01981317
:100C300013C01F930F93DF92CF920E9409200F5F82
:100C40001F4F0F900F900F900F900430110549F730
:100C500087EA90E20E944220AE96CDBFDEBFDF91D0
:100C6000CF911F910F91FF90EF90DF90CF90BF90A9
:100C7000AF900895CF93DF93CDB7DEB7C451D14085
:100C8000CDBFDEBF50907800252D2F73522E80915E
:100C900078008F638093780080E06EDC282E80914E
:100CA00080008C7F816098ED94BF8093800094BF1A
:100CB00087E2809380008091820080FDFCCFA89520
:100CC0000CDF789481DE65E473E28BE190E20E94B0
:100CD000321E85E493E280932730909328308093EE
:100CE000293090932A3078948FEF97EAA1E68150CB
:100CF0009040A040E1F700C00000A895B5DC80E17D
:100D00008093A1068093A50666D78DEA92E20E94A1
:100D10001713782E882321F08EEA92E20E94561251
:100D20000E94DA150E9496131AD68ED5D2D583EB7F
:100D300090E29F938F930E94092080E280930506A2
:100D40000F900F90612C312C55E0852E912C412C69
:100D50008E010F5F1F4F6AE9C62E61E2D62E7E011B
:100D6000B1E0EB0EFB1E80E090E20E94D71D5C011B
:100D70008BE190E20E94D71D181619060CF040C1B5
:100D800092E0909305068234A9F5A8950E9452122C
:100D900087E492E09F938F930E941A208BE190E268
:100DA0000E94801D0F900F9028EC8BE190E2CC5EAA
:100DB000DE4F2883C451D1400E94BC1D0E943B19C4
:100DC000CC5EDE4F2881C451D140215071F7809113
:100DD000C1048E7F8093C1040E94451CF894EFEFFC
:100DE000F3ED20E3E150F0402040E1F700C00000C7
:100DF0006EDE06C18F3611F403D702C18F3409F4B9
:100E0000FBC08B34F9F4C3DB9F938F937F936F9375
:100E1000ACE3B2E0BF93AF930E941A20BADB9F937A
:100E20008F937F936F9383E392E09F938F930E94BE
:100E30001A201F921F9288E292E09F938F930E9444
:100E40001A209AC0803719F40E94F913D9C0863548
:100E500019F40E944A12D4C0863759F522E230E0D4
:100E6000C901CC5EDE4F2883C451D140CD5EDE4F38
:100E70003883C351D1400E947F2290E00E943D20E0
:100E8000CC5EDE4F2881C451D140CD5EDE4F38812B
:100E9000C351D1402F5F3F4F90E02236390701F711
:100EA00080E090E00E948F229F938F93A4ECB0E2A9
:100EB0003EC0843779F48091AC221F928F93A0E2D8
:100EC000B2E0BF93AF930E941A200F900F900F9043
:100ED0000F9096C0883689F41F925F921F922F92CE
:100EE000A0E1B2E0BF93AF930E941A200F900F9041
:100EF0000F900F900F900F9083C0823721F480E203
:100F0000809305067DC0823521F480E68093060635
:100F100077C0833721F468ECC801A1D735C0893682
:100F200059F40E9480149F938F93ACECB0E2BF936E
:100F3000AF930E940920C9CF893411F4E7DD60C066
:100F4000853729F482E490E00E94E21459C0873684
:100F5000B1F42091480681E090E0211101C080E0C9
:100F60009F938F939F938F939F938F93ACEDB0E25A
:100F7000BF93AF930E940920CDBFDEBF41C0843430
:100F800051F468ECC80154D71F930F930E940920B5
:100F90000F900F9035C0833539F448ECB80183EFDA
:100FA00090E20E94F3112CC0893751F18D36B9F4CB
:100FB000939419F485EF90E21CC091E0991203C05C
:100FC00082E091E216C0A2E09A1203C088E191E2A9
:100FD00010C0B3E09B1213C084E291E20AC08A32CF
:100FE00031F48DEA92E20E941713782E09C081E352
:100FF00091E20E94422004C06624639401C0912CB7
:101000001A141B04A4F4B5017727E1E09E1203C073
:101010008AEA95E20BC0F2E09F1203C08AE593E2F0
:1010200005C023E0921203C082E894E27AD38AEAF0
:1010300095E2A1D3882359F08AEA95E2ACD391E0F6
:10104000991205C0682F80E090E20E94471D8AE552
:1010500093E291D3882309F1A2E09A121EC00E9464
:10106000041C8AE593E287D38823D9F08AE593E2CA
:1010700092D3B82EBDE08B1302C062E704C0EAE051
:101080008E1305C06EE680E090E20E94471D6B2D36
:1010900080E090E20E94471DE4CFF3E09F1609F440
:1010A0004EC0C8010E944B15803809F05DC03981DF
:1010B000CE0102965C0121E0231718F5D5018D9130
:1010C0005D011F928F93DF92CF92CC5EDE4F28831B
:1010D000C451D140CD5EDE4F3883C351D1400E9410
:1010E0000920CC5EDE4F2881C451D1402F5F0F9084
:1010F0000F900F900F90CD5EDE4F3881C351D140DD
:10110000DBCF5801A30EB11CF501808186951F929B
:101110008F938DE991E29F938F930E940920D501CF
:101120008C910F900F900F900F9080FF03C086EA74
:1011300091E202C089EA91E20E94422015C082E851
:1011400094E219D3882381F00E94041C82E894E27F
:1011500012D3882349F082E894E21DD3682F80E0FF
:1011600090E20E94471DF2CF68ECC801E6D68F3F9F
:1011700009F475C081110DC01F930F938CEA91E2A1
:101180009F938F930E9409200F900F900F900F90C4
:1011900066C0823051F587EC91E29F938F930E9455
:1011A00009206FEC71E2C8010E947D1F6FEC71E2B3
:1011B00080E090E00E947D1FFC0101900020E9F793
:1011C0003197E81BF90B0F900F90709708F047C00C
:1011D000BC01C7010E949A1FFF92EF928BED91E232
:1011E0009F938F930E94092020C0843041F56FECBB
:1011F00071E2C8010E947D1FFC0101900020E9F707
:101200003197E81BF90B709750F5BC01C7010E949C
:101210009A1FFF92EF9281ED91E29F938F930E942C
:10122000092068ECC8010E944E124FEFB801C701B7
:101230000E94F3111F930F930E9409200AC01F936D
:101240000F931F928F938BEE91E29F938F930E9447
:1012500009200F900F900F900F900F900F908BE13F
:1012600090E20E94BC1D80E090E20E94BC1D0E94A2
:101270003B19A8958091AC22841509F44FC0409089
:10128000AC22772059F0BE016F5E7E4F8EEA92E26B
:101290000E94EE128EEA92E20E945612911005C050
:1012A0006BE280E090E20E94471D7720D1F0B70109
:1012B0008EEA92E20E94EE1281110FC0F701818145
:1012C0008F9380818F9383EF91E29F938F930E94FE
:1012D00009200F900F900F900F908EEA92E20E94DB
:1012E0005612882051F08A94C9F48FEF91E20E943F
:1012F000422080E48093050611C0662079F0C6D5AF
:1013000081110AC08FE192E29F938F930E9409207E
:101310000F900F90612C02C0662463948091480660
:10132000232D30E0837F90E02817390709F41BCD87
:10133000B0904806FB2DF37F3F2E82E292E29F930E
:101340008F930E9409200F900F90B0FE03C088E297
:1013500092E202C08FE292E29F938F930E94092053
:101360000F900F90B1FE03C086E392E202C08BE3C0
:1013700092E29F938F930E9409200F900F90B6FCEA
:1013800003C081E492E202C084E492E29F938F93CF
:101390000E9409200F900F908AE090E00E943D206B
:1013A000E2CC1F920F920FB60F9211240BB60F9240
:1013B0008F93EF93FF93E0E0F6E084E087838AE089
:1013C0008683FF91EF918F910F900BBE0F900FBE10
:1013D0000F901F9018951F920F920FB60F92112425
:1013E0008F938091AC228F5F8093AC228F910F906E
:1013F0000FBE0F901F901895E0E0F4E02085318536
:10140000280F391F2487358783818260838308955D
:10141000E0E0F4E0838182700895292F33272230A1
:10142000310559F02330310569F021303105F9F4E7
:1014300082E190E025E233E01EC083E890E022EAFA
:1014400032E019C099278130910541F08230910531
:1014500041F0892B61F4EEE9F2E005C0E4E8F2E046
:1014600002C0ECE5F2E0849190E09F0104C080E0CE
:1014700090E020E030E0FA012083318308950F935B
:101480001F93CF93DF9300D0CDB7DEB7FB01813040
:1014900051F0823061F0833081F480E800E010E0A8
:1014A00022E092E00FC080E802E210E003C080E892
:1014B00002E010E020E291E005C081E800E010E0E9
:1014C00020E090E03091CF0137FDFCCF913071F4F6
:1014D000DF010D900020E9F7AE1BA217C8F44A2FD8
:1014E00050E0B801CF010E94932211C0923081F4E4
:1014F00042E0BF01CE0101969BD5698170E0762F55
:1015000066278A81680F711DC8010E94AB2280E0A6
:101510002396CDBFDEBFDF91CF911F910F9108952C
:101520006F927F929F92AF92BF92CF92DF92EF9293
:10153000FF920F931F93CF93DF93CDB7DEB7C65AB9
:10154000D109CDBFDEBF3C01CB016E0125E9C20E42
:10155000D11C2DE0F60111922A95E9F728E0F60159
:10156000208368E472E20E947D1F8C0168E472E2CD
:1015700080E090E00E947D1F5C0168E472E280E000
:1015800090E00E947D1F7C010115110511F43FEFD1
:101590008EC0A114B104D9F30097C9F3F80180817A
:1015A0008033A8F39181903390F334D5982E9294A0
:1015B00080EF9822F80181812DD5980EF3E6F91578
:1015C00030F38E010B581F4F80E2F80111928A957B
:1015D000E9F740E250E0B501C8010E94A11FF60101
:1015E000928246E0B301C601079622D540E2B701D8
:1015F000CE018B5A9F4F1CD5CE018E559F4F0E9416
:10160000DF16811102C03FEF01C031E0CE55DF4F40
:10161000188219821A821B82C25AD040CE018B5A7C
:101620009F4F7C0120E040E0BE016E557F4F845506
:101630009109CA55DF4F3883C65AD0400E94D0174F
:10164000CA55DF4F3881C65AD040811132E0CE559D
:10165000DF4F8881C25AD0408430E9F4CD55DF4F46
:101660008881C35AD040811116C0CC55DF4F888184
:10167000C45AD040833079F4CB55DF4F8881C55AA6
:10168000D040803441F487EA90E20E944220B501C4
:10169000892DF5DE382FCA55DF4F3883C65AD04022
:1016A0000E942F16CA55DF4F3881C65AD040832F6B
:1016B000CA55DF4FCDBFDEBFDF91CF911F910F9194
:1016C000FF90EF90DF90CF90BF90AF909F907F9072
:1016D0006F900895FC012081207F622B6083089524
:1016E000FC0126812C7F622B66830895FC016083B8
:1016F00071834283EC5DFE4F1082319710823396E6
:101700001082319710820895FC01EB5DFE4F20811D
:10171000319690812F5F2F7181E0291301C080E005
:1017200008950F931F93CF93DF931F92CDB7DEB72A
:101730008C016983E9DF69818823B9F0F801EB5DE9
:10174000FE4F9081D801A90FB11DAD5FBE4F6C93C4
:101750009F5F9F719083D801ED91FC9111979381C8
:101760009C7F12962C91922B93830F90DF91CF91B7
:101770001F910F910895FC01ED5DFE4F2081319680
:10178000908181E0291301C080E00895895D9E4F1A
:10179000FC0180810895FC01E95DFE4F10823397C2
:1017A0002081DC01A20FB11D13968C9190819F5F67
:1017B00090830895CF93DF93FC01ED5DFE4F208170
:1017C0002F5FDC01AC5DBE4F4C91EC01A881B9816B
:1017D0003C913D3029F451E0DC01A95DBE4F5C93A2
:1017E000241749F04081DC01A40FB11D13963C93EE
:1017F000208381E001C080E0DF91CF910895CF93F5
:10180000DF93FC01EA5DFE4F2081DC01AB5DBE4F42
:101810003C91EC01A881B981321307C013968C91D9
:1018200013978C7F13968C930CC02081820F911D8F
:10183000EC01CD5FDE4F88818C9380818F5F8F714B
:101840008083DF91CF910895CF93DF9341E060EAE9
:1018500078E08AE593E24ADFCAE5D3E2E881F981DC
:1018600083E085838381806383838EE286838681A0
:101870001F928F938AE492E29F938F930E94092094
:10188000E881F98188E9878387811F928F9382E5B8
:1018900092E29F938F930E940920E881F9818481CD
:1018A00080618483848188608483E0E4F6E088E05A
:1018B0008183858384E08283E0EAF0E08281856031
:1018C00082838DB79EB708968DBF9EBFDF91CF9163
:1018D0000895CF93DF9341E060EA79E082E894E2F3
:1018E00005DFC2E8D4E2E881F98183E08583838162
:1018F0008F7C8061838385EE868386811F928F93A0
:101900008AE492E29F938F930E940920E881F981F3
:101910008CEB878387811F928F9382E592E29F935E
:101920008F930E940920E881F981848180618483FA
:10193000848188608483E0E6F6E088E081838583A3
:1019400084E08283E0EAF0E08281816082838DB767
:101950009EB708968DBF9EBFDF91CF910895CF931C
:10196000DF9341E060EA7AE08AEA95E2BFDECAEA04
:10197000D5E2E881F98183E0858383818F7C806172
:10198000838385EC868386811F928F938AE492E21B
:101990009F938F930E940920E881F9818CEA8783C5
:1019A00087811F928F9382E592E29F938F930E948B
:1019B0000920E881F9818481806184838481886041
:1019C0008483E0E8F6E088E08183858384E0828395
:1019D000E0EAF0E08281816082838DB79EB708964D
:1019E0008DBF9EBFDF91CF9108951F920F920FB6CA
:1019F0000F9211240BB60F922F933F934F935F9347
:101A00006F937F938F939F93AF93BF93EF93FF93C6
:101A10008AE593E2CFDEFF91EF91BF91AF919F9165
:101A20008F917F916F915F914F913F912F910F9087
:101A30000BBE0F900FBE0F901F9018951F920F9224
:101A40000FB60F9211240BB60F922F933F934F9323
:101A50005F936F937F938F939F93AF93BF93EF9316
:101A6000FF938AE593E2CBDEFF91EF91BF91AF91B7
:101A70009F918F917F916F915F914F913F912F91A6
:101A80000F900BBE0F900FBE0F901F9018951F92D6
:101A90000F920FB60F9211240BB60F922F933F9314
:101AA0004F935F936F937F938F939F93AF93BF9366
:101AB000EF93FF9382E894E27DDEFF91EF91BF9177
:101AC000AF919F918F917F916F915F914F913F91D6
:101AD0002F910F900BBE0F900FBE0F901F90189577
:101AE0001F920F920FB60F9211240BB60F922F93E5
:101AF0003F934F935F936F937F938F939F93AF9396
:101B0000BF93EF93FF9382E894E279DEFF91EF9128
:101B1000BF91AF919F918F917F916F915F914F9105
:101B20003F912F910F900BBE0F900FBE0F901F9003
:101B300018951F920F920FB60F9211240BB60F92A9
:101B40002F933F934F935F936F937F938F939F93C5
:101B5000AF93BF93EF93FF938AEA95E22BDEFF9159
:101B6000EF91BF91AF919F918F917F916F915F9115
:101B70004F913F912F910F900BBE0F900FBE0F9082
:101B80001F9018951F920F920FB60F9211240BB64B
:101B90000F922F933F934F935F936F937F938F9306
:101BA0009F93AF93BF93EF93FF938AEA95E227DE6B
:101BB000FF91EF91BF91AF919F918F917F916F9125
:101BC0005F914F913F912F910F900BBE0F900FBEE1
:101BD0000F901F901895E0E0F6E080E68183868301
:101BE000E0E2F6E080E48583A0E4B6E088E1569682
:101BF0008C93569780EB11968C938FEF8183089589
:101C000080E4E0E2F6E086832FEF83EC99E0215058
:101C100080409040E1F700C0000080E48583089593
:101C2000682F8AE593E27DCD0F931F93CF93DF93C7
:101C30001F921F92CDB7DEB7E82FF0E0EE0FFF1F27
:101C4000E95CFC4F859194918C010F5F1F4FFC0163
:101C50008491882339F069837A83E2DFC8017A812D
:101C60006981F2CF8B01F80181918F01882311F0F6
:101C7000D7DFF9CF8DE0D4DF80E00F900F90DF91B8
:101C8000CF911F910F9108951F93CF93DF93182F3A
:101C900080E69AEEB1DBC0E08AE593E277DDDFEF24
:101CA000882329F18AE593E276DD8A3031F1112328
:101CB00041F0C1110DC090ED980F9A30A8F4D92FC2
:101CC00013C0C11105C0C1E08F3461F3C0E00DC085
:101CD000C13019F48B3449F412C0CF5FC33028F0FF
:101CE0008D3029F0DEEFDECFC2E08D30D9F690DB0B
:101CF000811108C0DF3F81F205C0C0E0D3CFC2E050
:101D0000D0E0D0CF8D2FDF91CF911F910895BF925A
:101D1000CF92DF92EF92FF920F931F93CF93DF93B7
:101D2000D82EEB01C42E80E69AEE66DBE12C00E0B3
:101D3000F12C1FEF8AE593E229DD882321F18AE562
:101D400093E229DD0C1520F4DE01A00FB11D8C9368
:101D50008A3009F45BC0F11005C0803309F058C027
:101D6000E02E56C08D3051F4202F30E02150310943
:101D70006E2D70E02617370709F44DC00F5F8AE516
:101D800093E2F9DCDACF44DB882349F0B12EDE019F
:101D9000AE0DB11D1C92112329F0B12E3EC01E3F85
:101DA00048F6F4CFED2DF0E0EE0FFF1FE955FB4FA5
:101DB000C590D490E12CF12CB701A601CE010E9470
:101DC000BD048C010097F9F0C701B6010E94B2046E
:101DD000F80101900020E9F73197E01BF10BE81BB7
:101DE0001E16DCF4EE2EFF24E7FCF094B801680F19
:101DF000711D87FD7A95A701CE010E94891FCE0D26
:101E0000DF1D18820AC02DEFB22E07C0F12CB6CF0D
:101E100092E0F92EB3CF10E0B1CF8B2DDF91CF91AF
:101E20001F910F91FF90EF90DF90CF90BF9008959A
:101E30000F931F93CF93DF931F92CDB7DEB78C0123
:101E4000462F60E070E082E04983EEDE4981B80110
:101E500086E00F90DF91CF911F910F9158CF0F9394
:101E60001F93CF93DF931F92CDB7DEB78C01462F20
:101E700060E070E086E14983D7DE4981B80185E002
:101E80000F90DF91CF911F910F9141CFCF93DF93AF
:101E90008091480686FD4BC060E070E080E0C4DEC3
:101EA00080E0F2DE2FEF33EC99E02150304090409B
:101EB000E1F700C00000811113C060E070E081E034
:101EC000B3DE81E0E1DED82F2FEF33EC89E0215043
:101ED00030408040E1F700C00000A895C3E012C088
:101EE00060E070E080E0A0DE80E0CEDE9FEF23ECDB
:101EF00039E0915020403040E1F700C000008111EE
:101F000019C0DBCF60E070E08C2F8EDE81E0BCDE9C
:101F1000D80F8FEF93EC29E0815090402040E1F7FB
:101F200000C00000A895CF5FCB3061F702C08FEFF3
:101F300001C08D2FDF91CF9108959F92AF92BF92F4
:101F4000CF92DF92EF92FF920F931F93CF93DF9385
:101F5000EC01062F8AE593E219DC811103C0992474
:101F60009A944BC0F12C10E0015011098AE593E2DC
:101F700012DC2F2D30E0201731072CF4FE01E20F88
:101F8000F31F8083F3948D3089F7FE01EF0DF11D6F
:101F9000108247EAA42E44E0B42E912CF501C5909E
:101FA000D490E12CF12CB701A601CE010E94BD0412
:101FB0008C010097D1F0C701B6010E94B204F8016C
:101FC00001900020E9F73197E01BF10BE81BA9F025
:101FD000EE2EF12CB801680F711DA701CE010E94F1
:101FE000891FCE0DDF1D188208C0939482E0A80ED1
:101FF000B11C87E09812D2CFB2CF892DDF91CF915B
:102000001F910F91FF90EF90DF90CF90BF90AF9016
:102010009F9008959FEB980F963010F48753089582
:102020009FE9980F963010F48755089580530895CE
:10203000BF92CF92DF92EF92FF920F931F93CF93B5
:10204000DF937C01C42EEB01B82E8C01D02EDB185F
:10205000DC14C8F488818033B0F0DCDF2296FE0106
:1020600031979081903358F0D82ED29450EFD522EA
:10207000892FD0DF8D0DF80181938F01E7CFF70114
:10208000ED0DF11D808381E08D0D8C1530F4F7018D
:10209000E80FF11D10828F5FF8CFDF91CF911F9174
:1020A0000F91FF90EF90DF90CF90BF9008954F92E7
:1020B0005F926F927F928F929F92AF92BF92CF92D8
:1020C000DF92EF92FF920F931F93CF93DF933B0129
:1020D00001967C01512C00E010E0C0E0D0E066E009
:1020E000A62EB12C77E0872E912CF70131978081B5
:1020F0006301C00ED11E882309F440C08BDF482E37
:10210000F701808187DFF0E14F9E800D1124F501FA
:10211000EC1BFD0BE658FF4D9081682F69230C2EB8
:1021200001C0660F0A94EAF7A8014F5F5F4F650D83
:10213000F6016083282F30E0892F90E080959095FC
:1021400028233923C4018C1B9D0B02C0359527958C
:102150008A95E2F7522EC630D10551F4F301E40F0F
:10216000F51F20834F5F5F4F512CC0E0D0E001C0CE
:102170002196F2E0EF0EF11C8A01B7CFF601108232
:10218000C801DF91CF911F910F91FF90EF90DF90E9
:10219000CF90BF90AF909F908F907F906F905F9007
:1021A0004F9008950F931F93CF93DF938B01FC0102
:1021B00001900020E9F73197E81BF90BEC0120E0D2
:1021C00030E0DE012E173F0744F4119688818A30F3
:1021D00021F02F5F3F4FED01F4CFED01CE018A1BBF
:1021E0009B0B8E179F0734F488818A3009F418827C
:1021F0002196F4CF2E173F070CF046C0ED01229632
:1022000011968C9107DFC80FD11DC80FD11D2296E2
:10221000898100DF282F30E080FF02C02F5F3F4F11
:1022200024960115110559F170E060E0472F50E048
:10223000862F90E042175307F4F4FE01E40FF51FD8
:10224000508141E0460FE1E0E70FDE01AE0FB11D26
:10225000FD017E5FE081D801A80FB91FEC9380EDEE
:10226000850F8A3030F4F801E40FF11D508342E00D
:10227000460F642FDBCFF801E80FF91F1082CE0163
:10228000820F931F449602C080E090E0DF91CF91CF
:102290001F910F9108951F93CF93DF932AEE34E09F
:1022A000DB01F901C0E05E2F521BD491D11105C0B2
:1022B000A1E0A50F50E0D6E420C0442341F0DD3278
:1022C00009F05C2FDD9341503196C52FECCF4FEFD5
:1022D000EFCF4423F9F0FC01118130E01123A1F08C
:1022E00002965F5F260F371FF9011083FB01EA0F8B
:1022F000F11DB0835F5FAE5F41502FEF2A0FFC01ED
:10230000B081B111E6CF07C00196FB01E20FF31FC8
:10231000D083ECCF4FEF5A3048F4FB01EC0FF11DA6
:10232000505D5083420FEDEDF4E011C086EF850F54
:102330008630C0F7FB01EC0FF11D595CF2CF3196EE
:10234000241751F0DB01A80FB91F3C932F5F349184
:10235000822F90E03111F3CFFB01E80FF91F1082BB
:10236000FB0101900020E9F73197E61BF70BF6958A
:10237000E7958FEF8E0FDF91CF911F9108950F9307
:102380001F93CF93DF93D82FC92F8B019F938F93E8
:102390002AE532E23F932F930E9409206D2F7C2F74
:1023A00082E142DC80E29EE427D80F900F900F90EC
:1023B0000F908AE593E2DFD9811104C029D88823E0
:1023C000C1F30BC08AE593E2E6D98E33B9F7E80191
:1023D0008991882311F024DCFBCF80E0DF91CF913D
:1023E0001F910F910895CF92DF92EF92FF920F937A
:1023F0001F93CF93DF93CDB7DEB7C05BD109CDBFBD
:10240000DEBF7B01C42EBC018FE00EDC4C2DB7017A
:1024100083E07DDCD82E81112FC0BE016F557F4F28
:10242000C701C0DE8E010F5F1F4FB80140DE892B50
:1024300009F1B801CE018F559F4F72D881111CC090
:102440004C2DB701CE018F559F4F25DF1F928F93E3
:1024500023EA31E23F932F931F930F930E946F2043
:10246000B701C8018CDF0F900F900F900F900F9065
:102470000F9002C0DD24D3948D2DC055DF4FCDBF0A
:10248000DEBFDF91CF911F910F91FF90EF90DF9012
:10249000CF90089560E070E081E1C6CB462FBC018B
:1024A00086E035CC60E070E08EE0BECBCF93DF936A
:1024B000EC010E941E04882341F0CE010E947D039E
:1024C00084E40E946C0381E009C082E692E29F935B
:1024D0008F930E9409200F900F9080E0DF91CF91A1
:1024E0000895FC01218130E0322F22278081282BA2
:1024F0002E7F63E0220F331F6A95E1F746818CE05F
:1025000090E0841B9109820F931F97FF05C091955E
:1025100081959109E1E001C0E0E09C0144E036953D
:1025200027954A95E1F76AE0629FA001639F500DED
:1025300011248F70992760E872E0869F9001879F31
:10254000300D969F300D1124E11101C03E5F232F05
:10255000332726952695240F351FEE2319F0319544
:1025600021953109C9018A5D9D4F8930974018F046
:102570008FE097E20895C9010895EF92FF920F93BB
:102580001F93CF93DF931F921F92CDB7DEB7142F07
:102590006A8379830E947D038EEB0E946C036A81BB
:1025A000062FE62E7981F72E60E08E2D801B811795
:1025B00058F46A830E94A703F70181937F016A811F
:1025C0000E94EF02682FF1CF862F0F900F90DF91BE
:1025D000CF911F910F91FF90EF900895EF92FF928E
:1025E0000F931F93CF93DF93CDB7DEB72997CDBF5E
:1025F000DEBF7C018B010E941E0449E0BE016F5FBB
:102600007F4FC701BADFF82E811106C0CE010196B7
:1026100068DFF801808391838F2D2996CDBFDEBFBF
:10262000DF91CF911F910F91FF90EF9008959F92AE
:10263000AF92BF92CF92DF92EF92FF920F931F93D0
:10264000CF93DF938C01C3E064E0C8010E9436049D
:10265000882341F0C150C1F781EA92E20E944220F2
:10266000912C57C020E030E0912CF801E20FF31FCD
:10267000808181119394275F3F4F24323105A9F760
:102680001F929F9226E832E23F932F930E940920E7
:102690000F900F900F900F90C1E0D0E070E9C72E1F
:1026A00072E2D72EE6E9AE2EE2E2BE2EF80180817C
:1026B000882329F1DF93CF93DF92CF920E940920E4
:1026C0000F900F900F900F90E12CF12CF801EE0D70
:1026D000FF1D81811F928F93BF92AF920E940920AC
:1026E000EFEFEE1AFE0A0F900F900F900F90F8E0A8
:1026F000EF16F10459F784E892E20E944220075F46
:102700001F4F2196C530D10589F68BE992E20E94D0
:102710004220892DDF91CF911F910F91FF90EF9073
:10272000DF90CF90BF90AF909F900895E0E6F6E0E5
:1027300088EB818B82E08583818380E1858381833F
:102740000895882321F080E180936606089580E152
:10275000809365060895CF9382E894E20CD888238D
:1027600021F082E894E217D8F7CF81E0EADF8FE327
:102770009FE10197F1F700C0000082E894E20E9417
:10278000BB0B882331F082E894E205D8C1E08E3398
:1027900009F0C0E080E0D5DF8C2FCF9108950F9332
:1027A0001F93CF93DF93C091AC2200E010E0D0E004
:1027B00082E894E20E94BB0B882359F082E894E2FD
:1027C000113021F40E94CB0B082F02C00E94CB0BCA
:1027D0001F5F133040F42091AC2230E02C1B3D0BE6
:1027E000223031052CF3802FDF91CF911F910F9173
:1027F00008951F93CF93DF93AEDF882309F47AC047
:10280000D1E6C0E069E582E894E20E94910B6D2F69
:1028100082E894E20E94910BC2DFEC2FF0E0E85FC7
:10282000FA4FE4918E1301C0CF5FDF5FDD3651F7C1
:10283000CB3009F058C088E095E09F938F930E94B9
:102840001A208BEF94E09F938F930E941A200F9091
:102850000F900F900F901EE669E582E894E20E94C7
:10286000910B612F82E894E20E94910BC091293074
:10287000D0912A3094DFBE0190E00E94D71F1F5FE5
:10288000123751F785EF94E09F938F930E941A209F
:102890000F900F9013E769E582E894E20E94910B94
:1028A000612F82E894E20E94910BC0912930D0916F
:1028B0002A3075DFBE0190E00E94D71F1F5F1737D7
:1028C00051F76091293070912A308AE090E00E949F
:1028D000D71F6091293070912A308DE090E00E94DE
:1028E000D71FC1E001C0C0E068E582E894E20E9421
:1028F000910B01C0C0E08C2FDF91CF911F91089503
:10290000FF920F931F93CF93DF930091AC2223DFAD
:10291000882309F449C060E382E894E20E94910BA5
:10292000CFEFDFEFF12C10E082E894E20E94BB0BC6
:102930008823E1F082E894E20E94CB0BC8278C2F19
:1029400082958C27082E869586958025082E86955B
:10295000802587700C2ECD2F869507948795D02DD6
:10296000C82706948795D025C827F39480E48F154F
:1029700038F48FE39FE10197F1F700C0000009C030
:102980008091AC2290E0801B910B02970CF4CCCF8D
:10299000F0CF82E894E20E94BB0B882339F082E8F2
:1029A00094E20E94CB0BF5CFCFEFDFEF68E582E832
:1029B00094E20E94910BCE01DF91CF911F910F9174
:1029C000FF9008950F931F93CF93DF93EC01C3DE25
:1029D000811102C080E05AC06DE482E894E20E9456
:1029E000910B8FEB9DE50197F1F700C0000082E8A5
:1029F00094E20E94BB0B882369F382E894E20E9470
:102A0000CB0B8E3339F78091CF0187FDFCCFCE0100
:102A10000E947F22182FCE0101960E947F22082F4C
:102A20001F3FB9F46FEF82E894E20E94910B88EAAD
:102A300092E29F938F930E9409209FEF23EC89E0FD
:102A4000915020408040E1F700C000000F900F90AF
:102A50000CC02296612F82E894E20E94910B602FB5
:102A600082E894E20E94910BCECF82E894E20E9429
:102A7000BB0B882329F082E894E20E94CB0BF5CFB0
:102A800068E582E894E20E94910B81E0DF91CF91AA
:102A90001F910F910895FF920F931F93CF93DF9390
:102AA000EC0180915623853011F41092562310E0EA
:102AB00005E084E0F82E82E894E20E94BB0B8823B4
:102AC00009F44DC082E894E20E94CB0B909156230A
:102AD00091110AC0883679F781E08093562380915E
:102AE000AC2280935523E7CF913049F4809354234F
:102AF0001092532392E0909356238883DCCF923038
:102B000081F4909153239F5F90935323FE01E90F2B
:102B1000F11D8083809154239813CDCFF0925623DA
:102B2000CACF943041F6863121F40093562310E841
:102B3000C2CF883629F481E08093562312E0BBCFC0
:102B40002091AC2230E080915523281B310923309D
:102B500031050CF4B0CF0093562311E0ACCF812F98
:102B6000DF91CF911F910F91FF900895CF92EF9237
:102B7000FF920F93CF93DF931F92CDB7DEB7898378
:102B8000C62E7A0101E09E012F5F3F4F4AE060911F
:102B9000572380EA94E00E94341F882311F080EFCD
:102BA00001C080E00F90DF91CF910F91FF90EF90E7
:102BB000CF900895E0EAF4E010828BE4858388E00A
:102BC0008183128281E0848388EC80935723089567
:102BD0004AE060E080EA94E00E94E41E87E0E0EAD8
:102BE000F4E083838FEB9DE50197F1F700C00000CF
:102BF00080E00895FF920F931F93CF93DF93F62EFB
:102C0000C82FD0E02197862F8F1990E08C179D0751
:102C100064F48B010F5F1F4F40E080EA94E00E9454
:102C20001F1F882349F0B801EECF41E080EA94E00D
:102C30000E941F1F811105C087E08093A30481E0DB
:102C400004C087E08093A30480E0DF91CF911F91BF
:102C50000F91FF900895AB01682F83E087CF40E08C
:102C600050E060E081E082CF40E050E060E080E052
:102C70007DCF1F93CF93DF93182FEB0160915723E4
:102C800061604AE080EA94E00E94E41E882321F01B
:102C90008330D1F487EE18C040E0BE0180EA94E0B2
:102CA0000E941F1F811102C080EF0EC088818430F6
:102CB00050F0181740F0BE016F5F7F4F81509ADFD0
:102CC0008111F2CF01C084EEDF91CF911F91089561
:102CD0008FEF8093A6048091A40486FFFCCF10920E
:102CE000A6048091A40486FFFCCF83E08093A30414
:102CF0006091572361604AE080EA94E00E94E41EFC
:102D0000811104C087E08093A304AECF80EF0895C3
:102D10001F93CF93DF93C62FFB0120E030E09E2F5F
:102D20009C1B9817D8F4B19168E070E091E0D32F24
:102D3000DD1FDD27DD1F220F331FA1E0192F1B230D
:102D400009F4A0E0AD1719F0A5E02A273058990F33
:102D5000615071096115710551F7E1CFFA012083C6
:102D60003183DF91CF911F910895FF920F931F93AD
:102D7000CF93DF931F921F92CDB7DEB78C01FC017A
:102D8000F080FA94FA94AE014F5F5F4FBC018F2D33
:102D9000BFDFF801EF0DF11D99818081981306C006
:102DA0009A818181981302C080E001C085EE0F9066
:102DB0000F90DF91CF911F910F91FF900895CF93C6
:102DC000DF93EC0105DF811121C0BE0184E051DFFA
:102DD00081111CC08881843059F48981813151F47A
:102DE0008A81833349F48B81833431F480E00EC0CF
:102DF00084EE03C080EF01C085EE2FEF35ED96E045
:102E0000215030409040E1F700C00000DF91CF91A9
:102E10000895CF93DF93EB015BDF882339F01FDF49
:102E2000CE01CDDF811103C088EE01C080E0DF91CB
:102E3000CF9108955F926F927F928F929F92AF92FF
:102E4000BF92CF92DF92EF92FF920F931F93CF9397
:102E5000DF931F921F92CDB7DEB76C01162F7A0158
:102E6000722EFC0180808EEF880D28EE33E0029FE9
:102E70005001039FB00C1124F5E2AF0EB11CA60166
:102E8000480F511DB60144DF03E0502E00EE6E2CBA
:102E90005A9409F472C00023C9F1B601882DDBDE13
:102EA000082F811102C080E006C0B701812FB1DF79
:102EB000873E71F762C0871541F0EFE3FFE131977C
:102EC000F1F700C000008F5FF6CFB3E09B2E25C066
:102ED000A982BA82B701812FCCDE082F49815A819D
:102EE0004552510949835A8329813A812632310555
:102EF000F0F0873E79F3043E59F0C70136DF082F22
:102F000081112EC0F7018081853000F180E036C04C
:102F1000B701812F7EDF811114C09A9409F4B8CFD4
:102F2000F7018E2F8619811798F61192FACF873EF6
:102F300011F7B701812F6DDF873E09F0A9CF87EE2A
:102F40001DC0883E09F4A4CF84EE18C0F70181812A
:102F5000833079F08F3079F08F3FC1F604ED98CF50
:102F6000B701812F56DF8823C1F2883E09F490CF44
:102F700004C082ED03C083ED01C0802F0F900F903D
:102F8000DF91CF911F910F91FF90EF90DF90CF9045
:102F9000BF90AF909F908F907F906F905F900895BB
:102FA000CF92DF92EF92FF920F931F93CF93DF9315
:102FB000EC01009709F43FC061157105E1F1E114DE
:102FC000F104C9F1C114D104B1F1842F87628732B1
:102FD00091F5203180F584E5888388E28983477202
:102FE0004A832B831C82DE01159680E201151105B0
:102FF00029F4FD0111928A95E9F705C0F8010190C5
:103000000D928A95E1F7DE01959680E2F701019035
:103010000D928A95E1F7DE01AB5BBF4F8DE0F601C3
:1030200001900D928A95E1F70BE12BE0AB0164E092
:10303000CE0100DF01C082EEDF91CF911F910F9191
:10304000FF90EF90DF90CF9008950F931F93CF9351
:10305000DF93CDB7DEB7EA97CDBFDEBF07ED16E24F
:1030600039D2F80181938F01F6E20F3D1F07C1F7B6
:103070000E945F05A2D2882309F4EFC02091D726D1
:103080003091D826832F90E08A30910508F0E5C072
:10309000FC01E250FF4F2BC7203891F0223809F095
:1030A000DCC08091DB268F7035D2E091E126F09173
:1030B000E226118112FB112710F980E02BD206C005
:1030C0001091D3268091D426811112608FD2812F46
:1030D00011D280E0A3C0822F8D7F09F0BEC02223D1
:1030E00019F0223061F0B9C08091D926813009F001
:1030F000B4C0333009F080E08093D42629C0809199
:10310000D926811125C01091DB261F7009F4A5C0B6
:10311000812F00D28091D826833011F493D218C029
:10312000A091E126B091E22611968C9111978B7FA8
:1031300011968C9324E8129FF0011124EB5DF84D59
:103140001082E091E126F091E22680818E7F8083DB
:1031500080E0E0D14BD264C021117FC01091D9260C
:103160001F7744D23AD304D28823E9F31093C304DF
:10317000112311F083E001C082E08093D6266DC058
:103180002058223008F069C08091D9269091DA2623
:103190008C3DE3E09E0761F583E08A838AE38983BF
:1031A0004FB7F894DE01139620E038E052E05093D8
:1031B000CA01E32FF0E0E4911092CA0120FF03C09E
:1031C000E295EF703F5FEF708E2F90E0EA3010F0E5
:1031D000C79601C0C0968D939D932F5F2C3139F710
:1031E0004FBF04D26AE370E0CE01019655D00FC004
:1031F000AE014F5F5F4F6091DB260E940D0A8C018C
:10320000009759F1F3D1B80189819A81BFD053D188
:1032100024C0203811F5EAD18091D2266BD132D169
:10322000DCD21BC0211119C08091D9268230A8F4AC
:10323000DDD18091D9268093D226CFD28091D2261B
:10324000811104C08091C304882311F084E001C07F
:1032500081E08093D6260E944C05AFD1882311F0DF
:10326000C5D1F0D1EA96CDBFDEBFDF91CF911F91DE
:103270000F9108950895CF938091D626882351F019
:10328000C091E32680E046D198D18111DEDE8C2FFB
:10329000CF9140C1CF910895DF92EF92FF920F93AB
:1032A0001F93CF93DF93182F092FEB018091E32613
:1032B000806830D12091DD263091DE262C173D0725
:1032C00020F0209719F4DED001C0E901E12EF02EA4
:1032D000D12C209709F440C08091D626811102C0DC
:1032E00082E04CC0853011F483E048C066D1882369
:1032F00011F081E043C048D181113CC039D188230D
:1033000041F32091E3268091DF269091E026FC0195
:1033100027FF05C0EF5BFF4F008110E013C0E05CAA
:10332000FF4F00813196808110E0081B11090AC00F
:103330000830110548F4F70181917F01DBD0219716
:103340000F5F1F4F2097A1F7DD24D394083011059C
:1033500009F0D12C97D0BDCFD110BECF0BC080913A
:10336000D626882309F4BCCF853009F4BDCF25D1FA
:103370008111BFCF09D1882391F380E0DF91CF91F4
:103380001F910F91FF90EF90DF900895DF92EF92E1
:10339000FF920F931F93CF93DF93182F092FEB0109
:1033A0008091E3268068B6D02091DD263091DE261C
:1033B0002C173D0720F0209719F464D001C0E901D3
:1033C000E12EF02ED12C209709F442C08091D62610
:1033D000811102C082E04EC0853011F483E04AC002
:1033E000ECD0882311F081E045C0CED081113EC0E1
:1033F000BFD0882341F32091E3268091DF2690916E
:10340000E026FC0127FF05C0EF5BFF4F008110E0C5
:1034100015C0E05CFF4F00813196808110E0081BF1
:1034200011090CC00830110558F4F701849162D0DD
:10343000FFEFEF1AFF0A21970F5F1F4F209791F7B9
:10344000DD24D3940830110509F0D12C1BD0BBCF5B
:10345000D110BCCF0BC08091D626882309F4BACFF7
:10346000853009F4BBCFA9D08111BDCF8DD0882381
:1034700091F380E0DF91CF911F910F91FF90EF903A
:10348000DF900895E091E126F091E226A091DF26F9
:10349000B091E026AF5BBF4F8C9190E08283938325
:1034A00080818D798083E091DF26F091E026EF5BCB
:1034B000FF4F10820895E091E126F091E22680818D
:1034C0008D798083E091DF26F091E026EF5BFF4F5E
:1034D000108208958091DF269091E026FC01EF5B39
:1034E000FF4F208131E0320F3083FC01E20FF11DEC
:1034F000808108952091DF263091E026F901EF5B6D
:10350000FF4F908141E0490F4083F901E90FF11D20
:10351000808308958093E326482F4F7094E8499F55
:10352000900111242C51394D6091C6047091C7044B
:1035300090E1499FA001112487FF0FC02E5B3F4FF0
:103540002093DF263093E026CA010896860F971F46
:103550008093E1269093E22608952093DF2630930E
:10356000E026460F571F4093E1265093E226089528
:103570008091E3268068CEDFE091E126F091E2269B
:1035800080818695817008958091E3268F77C2DFD0
:10359000E091E126F091E226808185FF0CC0209128
:1035A000DF263091E02682819381F901E05CFF4FB4
:1035B000808381E0089580E008958091E3268F77ED
:1035C000A9DFE091E126F091E226808184FF0CC022
:1035D0002091DF263091E02682819381F901E05C21
:1035E000FF4F808381E0089580E008958091E32675
:1035F0008F7790DFE091E126F091E22680818D784F
:103600008083E091E126F091E226808181608083D1
:10361000E091DF26F091E026EF5BFF4F1082809172
:10362000E326806877DFE091E126F091E226808151
:1036300081608083E091DF26F091E026EF5BFF4F11
:1036400010820895E091E126F091E2268181846064
:103650008183E091E126F091E2268181807C8034B3
:1036600059F48091E326805855DFE091E126F091EE
:10367000E22681818460818308951F93CF93DF9335
:103680001F921F92CDB7DEB7182F4A83698342DF9E
:10369000E091E126F091E2261182E091E126F0919D
:1036A000E226812F881F8827881F880F8083E0915A
:1036B000E126F091E22669816183E091E126F091B3
:1036C000E226128213822091DF263091E0262483A5
:1036D0003583110F110B4A811423F901E05CFF4F70
:1036E00010833196108281E00F900F90DF91CF917F
:1036F0001F910895AF92BF92DF92EF92FF920F93C6
:103700001F93CF93DF931F92CDB7DEB7D62E5C0108
:10371000F12CFD14D9F1F501E080EE2091F1018149
:10372000128183819481923010F048E101C048E019
:1037300028E030E090E02017310720F49F5F220F4F
:10374000331FF9CF942B9F7E0134110510F080E0D8
:103750001EC0882321F0813021F4906C0CC090644D
:1037600003C09068811107C0402F692F80E88E0D3B
:10377000998383DF9981402F692F8E2D7EDF8823E7
:1037800031F3F394F5E0AF0EB11CC3CF81E00F909D
:10379000DF91CF911F910F91FF90EF90DF90BF903D
:1037A000AF90089580E090E0E091C604F091C704E6
:1037B0009C0164E0220F331F6A95E1F7E20FF31FCB
:1037C0001186E091C604F091C704E20FF31F118245
:1037D00001968031910541F708958091D72687FDA4
:1037E00004C0C6DE882351F00EC0CEDE811105C0B4
:1037F0008091D6268111F9CF08955DCE8091D6268D
:103800008111EFCF08953ECE1F93CF93DF93E091C8
:10381000C604F091C704F395C081D18114E680916C
:10382000E3268078803851F4A3DE811105C08091B1
:10383000D626811105C020C080E023C0A5DEF5CFCB
:103840008530E1F0E091E126F091E226818182FD70
:1038500017C0E091C604F091C704F395808191816F
:103860008C179D07E1F22FEF210F112319F0EC01C6
:10387000122FD5CF84E005C082E003C083E001C0F1
:1038800081E0DF91CF911F91089562D068D0E0EC84
:10389000F4E081818E7F818380818F778083109295
:1038A000D5260895CF93DF93E0E4F0E0148284817D
:1038B000836084834DD053D0C0ECD4E088818F776F
:1038C00088838881806888831092D6261092D226B9
:1038D0001092D4261092D32688818064888348E091
:1038E00068E480E8CADE48E068E480E0C6DE8885F7
:1038F00080648887898181608983DF91CF91089571
:103900002FB7F89482E0E0ECF1E08287EAE1F0E0A2
:10391000E491A0ECB4E0DA96EC93DA97EBE1F0E016
:10392000E491DB96EC93DB97E0ECF1E0128685E224
:103930009FE28E7F16968D939C9317978FE18C93C1
:1039400083E018968C932FBF81E08093D526AACF71
:10395000E0ECF4E080858370808711860895E0ECC8
:10396000F4E08FEF8287848708951F920F920FB63D
:103970000F9211240BB60F922F933F934F935F93A7
:103980006F937F938F939F93AF93BF93EF93FF9327
:103990008091CA0487FF08C08091C80487FF04C0D3
:1039A00080E88093CA0466DC8091CA0486FF07C061
:1039B00080E48093CA041092D6260E944A05809122
:1039C000CA0485FF14C080E28093CA048091D22685
:1039D000882311F084E007C08091C304882311F08C
:1039E00083E001C081E08093D6260E944805809143
:1039F000CA0484FF14C080E18093CA0482E08093EB
:103A0000D6261092D2261092C304CCDE48E068E499
:103A100080E833DE48E068E480E02FDE2BDCFF91B5
:103A2000EF91BF91AF919F918F917F916F915F9136
:103A30004F913F912F910F900BBE0F900FBE0F90A3
:103A40001F901895CF93DF93EC01FC0170968BE0EB
:103A5000DF011D928A95E9F782E08C83898783E0F4
:103A60008E8761E0CE01019645DE882361F061E03A
:103A7000CE0106963FDE882331F061E0CE010B9641
:103A8000DF91CF9137CE80E0DF91CF910895CF9332
:103A9000FC01C62F8091D6268430F9F444895589DB
:103AA00066897789452B462B472BB9F0818132DD1A
:103AB0002091DF263091E026F901EF5BFF4F9081E6
:103AC00031978081981720F48C2F14DD80E006C098
:103AD000D9DC9ADE8823C1F301C082E0CF9108953A
:103AE000FB01682F84859585D2DF21E030E08111CC
:103AF00002C020E030E088279927821B930B0895AD
:103B0000CF93DF932091D626243091F5FC01448990
:103B1000558966897789452B462B472B49F1818149
:103B2000F9DC2091E3268091DF269091E026FC01CC
:103B300027FF05C0EF5BFF4F208130E008C0E05C4D
:103B4000FF4F20813196408130E0241B3109232B27
:103B500069F0FC01EF5BFF4FD0813197C08192DCAF
:103B6000DC1720F051DE811104C08CDC80E001C044
:103B700082E0DF91CF910895CF93DF93EC018091A4
:103B8000D626843089F44C895D896E897F89452BDE
:103B9000462B472B49F08981BDDCEADC882321F0E4
:103BA000CE01DF91CF91ACCFDF91CF910895CF932C
:103BB000DF932091D626243019F08FEF9FEF46C077
:103BC000FC014489558966897789452B462B472B0B
:103BD000A1F386819FDCD8DC882379F38091E326EA
:103BE0002091DF263091E026F90187FF05C0EF5BC9
:103BF000FF4F808190E008C0E05CFF4F80813196EC
:103C0000208190E0821B9109892B21F063DCC82F71
:103C1000D0E002C0CFEFDFEF8091E3262091DF26D6
:103C20003091E026F90187FF05C0EF5BFF4F8081EF
:103C300090E008C0E05CFF4F80813196208190E0E9
:103C4000821B9109892B09F436DCCE01DF91CF91DB
:103C50000895FC0184859585AADF97FF02C08EEF49
:103C60009FEF0895FB012EE0DB011D922A95E9F7F5
:103C700023E0238320E73DE12087318729E23EE1ED
:103C8000228733878487958708950895FF920F933D
:103C90001F93CF93DF93EC0190DC882309F48EC04F
:103CA000888190E02091DB263091DC2628173907A7
:103CB00009F084C08091D826813259F018F48032FE
:103CC00049F17CC0823209F457C0833209F467C0DD
:103CD00075C08091D726813A09F070C087DC48DC36
:103CE0008823E9F38C89FD880E891F8903DC8F2DD9
:103CF00001DC802FFFDB812FFDDB888DFBDB898DD5
:103D0000F9DB8A8DF7DBBEDBDF91CF911F910F913D
:103D1000FF9063CD8091D726813209F04FC066DCD9
:103D200033DC811105C08091D6268111F9CF46C0C0
:103D3000D1DB082FCFDB182FCDDBF82ECBDB4F2DBF
:103D400050E060E070E0BA0155274427782B402B03
:103D5000512B4C8B5D8B6E8B7F8BBCDB888FBADBE2
:103D6000898FB8DB8A8FA7DB38DDCE01DF91CF9159
:103D70001F910F91FF9089CF8091D7268132F1F466
:103D800035DC2BDD8091D9269091DA26888B998BB2
:103D9000CE01DF91CF911F910F91FF9076CF80914F
:103DA000D726813259F422DC18DD6091D926CE0164
:103DB000DF91CF911F910F91FF9067CFDF91CF914E
:103DC0001F910F91FF900895FC01668384E6489F40
:103DD000A0011124848141155105B9F0982F9874E0
:103DE000983411F466830AC0982F9075903521F4A9
:103DF00087E0838383E00895807C61F48AE68A9576
:103E0000F1F700C041505109E5CF85FF05C087E0BB
:103E1000838302C080E0089582E00895FC016783F7
:103E2000848186FFFDCF848186FF06C084818295D0
:103E3000817091E0892701C080E081700895FC01C4
:103E400084818C708C3071F0848187FFFDCF8781F5
:103E5000DB018C93442311F087E001C082E083836F
:103E600081E0089580E008958F929F92AF92BF9273
:103E7000CF92EF92FF920F931F93CF93DF931F92F6
:103E80001F92CDB7DEB75C016E7F29833A839CDF3A
:103E9000182F29813A8181111BC04901020F081591
:103EA00041F0F40161914F01C501B8DF8111F7CFF5
:103EB00015E04701EC0CE81441F0F40161914F0169
:103EC000C501ACDF8111F7CF15E087E0F5018383F1
:103ED000812F0F900F90DF91CF911F910F91FF9045
:103EE000EF90CF90BF90AF909F908F900895EE0F7E
:103EF000FF1F0590F491E02D199448E553E230C07E
:103F0000FB01DC0102C001900D9241505040D8F7F6
:103F100008956817790768F4FB01DC01E40FF51FC9
:103F2000A40FB51F02C002900E9241505040D8F726
:103F30000895E6CFFB01DC0101900D920020E1F72E
:103F40000895FB01DC014150504048F001900D9272
:103F50000020C9F701C01D9241505040E0F708957C
:103F6000FA01A191B081009719F41097E1F0CD0109
:103F7000DC01CD010D90002011F4C00113C0FB0144
:103F80002191222319F02015D9F7F3CFFB012191BC
:103F9000201519F41E92119606C02223C1F70D9028
:103FA0000020A1F7D001FA01A193B08308950F93E7
:103FB0001F93CF93DF93182F092FEB018B8181FD86
:103FC00003C08FEF9FEF20C082FF10C04E815F8142
:103FD0002C813D81421753077CF4E881F9819F01D0
:103FE0002F5F3F4F28833983108306C0E885F9850A
:103FF000812F1995892B29F72E813F812F5F3F4F04
:104000002E833F83812F902FDF91CF911F910F91AE
:104010000895CF93DF93CDB7DEB7FE013696619159
:104020007191AF018091293090912A3080D0DF9139
:10403000CF9108950F931F93CF93DF93CDB7DEB742
:10404000FE0138966191719109E210E3D8018D91DA
:104050009C91DC0113962C911397286013962C9356
:10406000AF0165D0D801ED91FC912381277F238397
:10407000DF91CF911F910F91089560912930709138
:104080002A3095CF0F931F93CF93DF93E091293080
:10409000F0912A30238121FF1BC0EC0100E010E0E9
:1040A00089916091293070912A30DB011896ED9149
:1040B000FC911997882331F01995892B89F30FEF1B
:1040C0001FEFEECF8AE01995892B11F4C80102C0C9
:1040D0008FEF9FEFDF91CF911F910F9108950F9375
:1040E0001F93CF93DF93CDB7DEB72E97CDBFDEBF43
:1040F0000E891F8986E08C8309831A838FEF9FE7DF
:104100008D839E83AE01465E5F4F688D798DCE01B3
:1041100001960DD0EF81F885E00FF11F10822E96E9
:10412000CDBFDEBFDF91CF911F910F9108952F92E8
:104130003F924F925F926F927F928F929F92AF9237
:10414000BF92CF92DF92EF92FF920F931F93CF9384
:10415000DF93CDB7DEB72C97CDBFDEBF7C016B01FF
:104160008A01FC0116821782838181FFB0C1CE01D2
:1041700001964C01F7019381F60193FD859193FF20
:1041800081916F01882309F49EC1853239F493FD32
:10419000859193FF81916F01853221F4B70190E001
:1041A00006DFE8CF512C312C20E02032A0F48B32F6
:1041B00069F030F4803259F0833269F420612CC008
:1041C0008D3239F0803339F4216026C022602460BA
:1041D00023C0286021C027FD27C030ED380F3A30BA
:1041E00078F426FF06C0FAE05F9E300D1124532EAE
:1041F00013C08AE0389E300D1124332E20620CC08B
:104200008E3221F426FD5FC1206406C08C3611F485
:10421000206802C0883641F4F60193FD859193FF32
:1042200081916F018111C1CF982F9F7D955493305B
:1042300028F40C5F1F4FFFE3F9830DC0833631F084
:10424000833771F0833509F057C021C0F8018081B0
:1042500089830E5F1F4F44244394512C540114C092
:104260003801F2E06F0E711CF801A080B18026FFCA
:1042700003C0652D70E002C06FEF7FEFC5012C8792
:104280009CD12C0183012C852F77222E16C038015A
:10429000F2E06F0E711CF801A080B18026FF03C010
:1042A000652D70E002C06FEF7FEFC5012C877AD1DA
:1042B0002C012C852068222E830123FC19C0832D1C
:1042C00090E048165906A0F4B70180E290E06FDE56
:1042D0003A94F5CFF50127FC859127FE81915F0186
:1042E000B70190E064DE31103A94F1E04F1A5108C2
:1042F0004114510479F7DEC0843611F0893631F566
:10430000F80127FF07C060817181828193810C5F72
:104310001F4F08C060817181882777FD8095982F95
:104320000E5F1F4F2F76B22E97FF09C09095809594
:10433000709561957F4F8F4F9F4F2068B22E2AE076
:1043400030E0A40145D1A82EA81843C0853729F430
:104350002F7EB22E2AE030E025C0F22FF97FBF2E4B
:104360008F36C1F018F4883579F0ADC0803719F078
:10437000883721F0A8C02F2F2061B22EB4FE0DC0C7
:104380008B2D8460B82E09C024FF0AC09F2F966031
:10439000B92E06C028E030E005C020E130E002C0C0
:1043A00020E132E0F801B7FE07C0608171818281AF
:1043B00093810C5F1F4F06C06081718180E090E0A7
:1043C0000E5F1F4FA40104D1A82EA818FB2DFF7764
:1043D000BF2EB6FE0BC02B2D2E7FA51450F4B4FEBD
:1043E0000AC0B2FC08C02B2D2E7E05C07A2C2B2DC6
:1043F00003C07A2C01C0752C24FF0DC0FE01EA0D0C
:10440000F11D8081803311F4297E09C022FF06C08E
:104410007394739404C0822F867809F0739423FDFB
:1044200012C020FF06C05A2C731418F4530C5718EE
:10443000732C731460F4B70180E290E02C87B7DD31
:1044400073942C85F6CF731410F4371801C0312CF7
:1044500024FF11C0B70180E390E02C87A8DD2C85F4
:1044600022FF16C021FF03C088E590E002C088E764
:1044700090E0B7010CC0822F867851F021FD02C078
:1044800080E201C08BE227FD8DE2B70190E08FDD75
:10449000A51430F4B70180E390E089DD5A94F8CF99
:1044A000AA94F401EA0DF11D8081B70190E07FDD4F
:1044B000A110F6CF332009F45DCEB70180E290E081
:1044C00076DD3A94F7CFF7018681978102C08FEFAE
:1044D0009FEF2C96CDBFDEBFDF91CF911F910F9143
:1044E000FF90EF90DF90CF90BF90AF909F908F9014
:1044F0007F906F905F904F903F902F90089503D0E2
:10450000808199270895E0ECF1E0378537FDFDCFF4
:10451000348538603487FC01E050F04F0895F3DFB4
:10452000808191810895DC01A40FB51F4150504056
:1045300040F0CB01840F951F2E9105D04150504083
:10454000D8F70895262FDFDF0080021611F008D07B
:104550000197019708950196272FF5DFF3CF262FB6
:10456000E0ECF1E0378537FDFDCF3485377F3487C8
:10457000378531FF09C036E3328738ED34BF31E08B
:104580003387378537FDFDCF33E3328780839183CF
:104590001282248325E3228728ED31E024BF33876C
:1045A00001960895FC010590615070400110D8F704
:1045B000809590958E0F9F1F0895FC01615070406B
:1045C00001900110D8F7809590958E0F9F1F089548
:1045D000FA01AA27283051F1203181F1E8946F9334
:1045E0006E7F6E5F7F4F8F4F9F4FAF4FB1E03ED0DA
:1045F000B4E03CD0670F781F891F9A1FA11D680F78
:10460000791F8A1F911DA11D6A0F711D811D911DAA
:10461000A11D20D009F468943F912AE0269F11241F
:104620003019305D3193DEF6CF010895462F477083
:10463000405D4193B3E00FD0C9F7F6CF462F4F70DE
:10464000405D4A3318F0495D31FD4052419302D03C
:10465000A9F7EACFB4E0A6959795879577956795E2
:10466000BA95C9F700976105710508959B01AC01E2
:104670000A2E06945795479537952795BA95C9F709
:10468000620F731F841F951FA01D0895F894FFCF1C
:1046900002841000000105100000018608000001DE
:1046A0000000000000000000000000008110000079
:1046B000010210000001830800000100000000005A
:1046C00000000000000000112233445566778899ED
:1046D000AABBCCDDEEFF00112233445566778899E2
:1046E000AABBCCDDEEFF040003400667004F284D57
:1046F0006E986204F460A3E8758A5985A67996C419
:104700008A8846434EB3DB58A4FB0103070F1F3FC3
:104710007F57616B654572720045786563457272BB
:1047200020257820000A526573706F6E73653A20F9
:10473000090025782C20000A4964656E746963615C
:104740006C21000A53746172742070726563686131
:1047500072676500204E3A2025780A004D422043BA
:104760006667206372633A2025780A0052696E6793
:104770003D25642C204354533D25642C204F4E3D51
:10478000256400330053657269616C3A204E6F6E88
:10479000650053657269616C3A2045787465726E84
:1047A000616C20285036290053657269616C3A208B
:1047B00047534D0053657269616C3A204D627573C1
:1047C00000436F6D6D616E64733A205B6D5D2073A5
:1047D000656C65637420326E6420736572616C2051
:1047E000656E64706F696E742E205B6F5D2053740C
:1047F0006172742047534D2E205B562F765D2053F7
:1048000065742F436C72204D62757320636F6E6602
:1048100069672070696E2E205B495D207465737432
:1048200020415453484132303400257800525353CC
:10483000493D2D2564002E35002E300052656769F4
:10484000737465726564206F6E206E6574776F7225
:104850006B2C2025730A00476F7420534D53002C96
:1048600000476F7420616E20534D53207769746840
:1048700020696E6465782025730A0025782D3E2511
:10488000730A00092054656D703A2025640A0053AC
:1048900074617274696E67206D61696E2047534D53
:1048A0002056434320726567756C61746F72004FC8
:1048B0004B0047534D3A200052494E472120007289
:1048C000696E6721200043545320006374732120D4
:1048D000004F4E006F6666003C0043413A20257849
:1048E000200043423A20257820004C656E3A25731B
:1048F0002000445331385832305F73746172745FF2
:104900006D6561733A2053686F72742043697263F6
:10491000756974210D0031733A253032640D0A0037
:10492000253032643A0025303278002A454E440D55
:0C4930000031574572720D00456E6400A6
:00000001FF
