:1000000096C20000B4C20000B2C20000B0C200003C
:10001000AEC20000ACC20000AAC20000A8C200002C
:10002000A6C20000A4C200000C94A00AA0C2000056
:100030009EC200009CC200009AC2000098C200004C
:1000400096C2000094C2000092C2000090C200005C
:100050008EC200008CC200008AC2000088C200006C
:1000600086C200000C94AA0D0C94D30D80C200002F
:100070007EC200007CC200007AC2000078C200008C
:1000800076C2000074C2000072C2000070C200009C
:100090006EC200006CC200006AC2000068C20000AC
:1000A00066C2000064C2000062C2000060C20000BC
:1000B0005EC200005CC200005AC200000C948A0AB2
:1000C00056C2000054C2000052C2000050C20000DC
:1000D0004EC200004CC200004AC2000048C20000EC
:1000E00046C2000044C200000C944E0E0C94770EE1
:1000F0003EC200003CC200003AC2000038C200000C
:1001000036C2000034C2000032C2000030C200001B
:100110002EC200002CC200002AC2000028C200002B
:1001200026C2000024C2000022C2000020C200003B
:100130001EC200001CC200001AC2000018C200004B
:1001400016C2000014C2000012C2000010C200005B
:100150000EC200000CC200000AC2000008C200006B
:100160000C94FC0D0C94250E02C2000000C200008D
:10017000FEC10000FCC10000FAC10000F8C100008F
:10018000F6C10000F4C10000F2C10000F0C100009F
:10019000EEC10000ECC10000EAC10000E8C10000AF
:1001A000E6C10000E4C10000E2C10000E0C10000BF
:1001B000DEC10000DCC10000DAC10000D8C10000CF
:1001C000D6C10000D4C10000D2C10000D0C10000DF
:1001D000CEC10000CCC10000CAC10000C8C10000EF
:1001E000C6C10000C4C10000C2C10000C0C10000FF
:1001F000BEC100000C94951DBAC100002C194B190A
:100200000D1A4B190D1A8C19A0190D1AE919F219AA
:100210004877763A25782C205273743A25780A006C
:100220005469633A25640A0020453A2A7462642AB4
:100230000D0A0020423A2530366C7800214B3A41B5
:100240003A2530366C7800426F6F74206C6F6164B1
:10025000657220737461727465640A0026034C0031
:1002600055004600410020004400750061006C000C
:1002700020004300440043002000440065006D005E
:100280006F00000018034400650061006E0020004C
:10029000430061006D00650072006100000004030E
:1002A000090409028300040100C032080B000202A5
:1002B00002010009040000010202010005240010EF
:1002C0000104240206052406000107058303080033
:1002D000FF09040100020A000000070502021000E5
:1002E0000507058102100005080B02020202010049
:1002F0000904020001020201000524001001042487
:1003000002060524060203070586030800FF090408
:100310000300020A0000000705050210000507059A
:10032000840210000512011001EF020108EB034ED8
:100330002001000102DC01A504A0049C04910487B3
:10034000047B04630449042B0416040104E103BF85
:1003500003B803B003A7039E0394038B03810377C1
:10036000036D03650341545E534349440041545EA9
:10037000534953543D300041545E5349534F3D302F
:100380000041545E534953433D300041542B434D8B
:1003900047533D0041542B434D474C3D340041549D
:1003A0002B434D47443D0041542B434D47523D00A4
:1003B00041545E534D534F0041542B435351004120
:1003C000545E534953533D302C414444524553539A
:1003D0002C227777772E686F6A2E6E753A38302226
:1003E0000041545E534943533D302C61706E2C22C2
:1003F0006F6E6C696E652E74656C69612E73652213
:100400000041545E534953533D302C414C504841B8
:100410004245542C310041545E534943533D302CE6
:10042000414C5048414245542C310041545E53499F
:1004300053533D302C535256545950452C5452412D
:100440004E53504152454E540041545E534943531C
:100450003D302C22696E616374544F222C2022326D
:1004600030220041545E534943533D302C636F6E3C
:10047000547970652C47505253300041542B434EF1
:100480004D493D322C310041542B435245473D32BA
:100490000041545E5353594E433D3100415449008D
:1004A00041545630004154453000EF04E804E00464
:1004B000D804D204CB04C404BD04BC04005E53437E
:1004C00049443A002B434D474C3A002B434D475289
:1004D0003A002B434D544900434F4E4E4543540080
:1004E000434F4E4E454354005E534953573A002BF9
:1004F000435245473A003030303041413032434674
:10050000323500303031313030302D393100204635
:10051000573A200020666F756E642E2048573A20A7
:10052000005243313138302D4D42555300001124D3
:100530001FBECFEFCDBFDFE5DEBF00E00CBF13E293
:10054000A0E0B0E2E0E5F8E400E00BBF02C00790F5
:100550000D92A632B107D9F720E3A6E2B3E201C0BB
:100560001D92A93AB207E1F792D30C94262448CD04
:100570003BB78BBFFB0186913BBF08953BB78BBF59
:10058000FB01879196913BBF089542E030C041E066
:100590002EC08093C00188278093C1018093C2013F
:1005A00047E015D0CB01089548E311C049E30FC0DF
:1005B00028ED2093340021E02093CC010895209170
:1005C000CF0127FDFCCF22272093CA010895409335
:1005D000CA0128ED31E0209334003093CB016091C3
:1005E000C4017091C5018091C60199270895FC014D
:1005F0004093CA018491089598E028E1362F382766
:1006000030FD02C0669503C06227669560688695D6
:100610009150A1F7862F089598E0282F262720FDD6
:1006200003C07695679507C022E0622720E4722711
:100630007695679570688695915079F7CB01089506
:10064000EF92FF920F931F93CF93DF93EC017C0106
:1006500087E0E80EF11C8E0160E0F80181918F01C6
:10066000CBDF682F0E151F05C1F781E09F8169134D
:1006700001C080E0DF91CF911F910F91FF90EF902B
:100680000895E0EAF6E088E08183858388EB838B38
:1006900084E0828388E1828BE0EAFBE084818861E8
:1006A000848383E0858383E4868386EA8783089551
:1006B0009091A10B906C9093A10B8093A00B8091D3
:1006C000A10B86FFFCCF80E491E02091A10B27FDD8
:1006D00003C001970097C9F783E48093A60B86EACD
:1006E0008093A70B8091A00B08958FEFE1CF80E05E
:1006F000DFCFCF93DF93D82FC8E0D0FF02C0F5DF64
:1007000001C0F5DFD695C150C1F7DF91CF910895B3
:100710008CECEFCFEF92FF920F931F93CF93DF9369
:100720001F92CDB7DEB7182F85E59983E2DFE12E62
:100730009981F92E8701085F1F4FF70181917F0191
:10074000D8DFE016F106C9F70F90DF91CF911F9126
:100750000F91FF90EF9008958FEFAADF91E08F3F08
:1007600009F090E0892F0895CF93DF93D8E0C0E09F
:10077000C695F2DF8111C068D150D1F78C2FDF917F
:10078000CF910895EF92FF920F931F93CF93DF9332
:100790001F92CDB7DEB7182F83E39983AADFE12E2E
:1007A0009981F92E8701085F1F4FDEDFF7018193E2
:1007B0007F01E017F107C9F70F90DF91CF911F91EB
:1007C0000F91FF90EF900895DF92EF92FF920F93B9
:1007D0001F93CF93DF93EC01E62E80EF8ADF11E0C9
:1007E000F12C01E0B9DFD82EB7DFDD2029F081112F
:1007F00029C08881812B06C09881882329F0812F08
:100800008095892388830FC00E1103C0912B988394
:100810000AC0E01628F4812F80958923888302C0BE
:10082000912309F4F02E8881812311F05EDF01C04D
:100830005EDF0F5F110F11F4219611E0013491F684
:100840008F2D01C08FEFDF91CF911F910F91FF90FE
:10085000EF90DF9008958091A40B8F7E8093A40B7E
:100860008091A40B80618093A40B8EED8093A60BE6
:1008700084EE8093A70B80EF1BDF91E0803F09F4AB
:1008800090E0892F08956F927F929F92AF92BF92CE
:10089000CF92DF92EF92FF920F931F93CF93DF934C
:1008A0001F92CDB7DEB78C01A62EFC0120E02A15E1
:1008B00079F0108280E090E0DF01A80FB91F119657
:1008C0001C92019688309105B9F72F5F3996EFCFCA
:1008D000C2DF98012F5F3F4F3901882381F1B22E8B
:1008E000C72C82E0809325067801F901D12C60E0C5
:1008F00048E0942EAB2DBC2D892D01900D928A9548
:10090000E1F76983A8DF69818B2D9C2D5DDF682F5E
:10091000D394F701D0829801F9E0DF9E200D311DBC
:1009200011242F5F3F4F882359F089E0E80EF11C16
:10093000DA1430F4EB2DFC2DB22EC32EDBCFD12CEC
:10094000730110E01D1549F0C7017ADE99E0E90E48
:10095000F11C811104C01F5FF5CF80E001C081E070
:100960000F90DF91CF911F910F91FF90EF90DF904B
:10097000CF90BF90AF909F907F906F9008958BBF66
:10098000FB0107900020E9F7609570956E0F7F1FBF
:10099000CB010895FA016BBFDC010790002009F438
:1009A0000895FA016BBF07907D91772369F0701568
:1009B000CD01D1F70790002051F07C91772321F0F1
:1009C000701579F71196F6CF882799270895019722
:1009D0006BBF0895E0E0F6E09481907F982B9483BC
:1009E000089580E18093550080915000806180934C
:1009F00050008091510084FFFCCF2FB7F89434E071
:100A000088ED90E0A0E4B0E01BBEFD0184BF308320
:100A10002FBF8FE39FE10197F1F700C000008091A5
:100A2000400080915000826080935000809151007E
:100A300081FFFCCF809156008460809356008BE14B
:100A40008093650087EB8093660082E08093CA0103
:100A5000EDE1F0E0E491E0936200ECE1F0E0E4919C
:100A6000E09363001092CA0181E08093600080915E
:100A700050008460809350008091510082FFFCCF31
:100A80008DE08093430081E08093000483E08093B5
:100A9000020487E08093A2008FE080930106809398
:100AA000060680E097DF0C94601D89E093CF80E01C
:100AB00091CFCF938BE190E20E94021EC82F80E07D
:100AC00090E20E94021E882321F0CC2311F081E0E5
:100AD00001C088E0CF917ECF8BE190E20E94261F7B
:100AE00080E090E20C94261FE0E0F0E082E08CBF12
:100AF0001994089561E080E09AE0A7D6E0EAF0E07A
:100B000082818160828366E080E09AE098D6E0E2AC
:100B1000F6E081E08183868382E081838683E0E65C
:100B2000F6E081830895AF92BF92CF92DF92EF9269
:100B3000FF920F931F93CF93DF93CDB7DEB7AE979E
:100B4000CDBFDEBF80E2E6E3F0E2DE011196019068
:100B50000D928A95E1F76E0181E2C80ED11C8DE0FD
:100B6000F60111928A95E9F788E089A3E0EAF3E2B9
:100B7000119283E2E03CF807D9F780EA93E20E9401
:100B8000BF178EA78EA5882341F081E890E29F933E
:100B90008F930E94E9200F900F904AE5E42E40E2E7
:100BA000F42E8E010F5F1F4F20E040E060EA73E2F9
:100BB0008CE493E20E94B0188EA78EA5882369F07A
:100BC0008EA51F928F9389E890E29F938F930E9446
:100BD000E9200F900F900F900F900E940F178EA793
:100BE0001EA685E990E29F938F930E94E9200F90C3
:100BF0000F9000EA13E232EAE32E30E2F32EF8011E
:100C000081918F011F928F93FF92EF920E94E920B2
:100C10000F900F900F900F90F3E2033C1F0779F7AE
:100C200086E5E82E80E2F82E90EAA92E93E2B92E0E
:100C300000E010E020EAC22E21E2D22EF5019191CF
:100C40005F01F70181917F01981313C01F930F93E8
:100C5000DF92CF920E94E9200F5F1F4F0F900F90FD
:100C60000F900F900430110549F787EA90E20E9437
:100C70002221AE96CDBFDEBFDF91CF911F910F91A4
:100C8000FF90EF90DF90CF90BF90AF900895CF93FB
:100C9000DF93CDB7DEB7C451D140CDBFDEBF50909A
:100CA0007800252D2F73522E809178008F638093CA
:100CB000780080E06EDC282E809180008C7F81603F
:100CC00098ED94BF8093800094BF87E2809380006A
:100CD0008091820080FDFCCFA8950CDF789481DEA6
:100CE00060EC73E28BE190E20E94121F80EC93E2D1
:100CF0008093A3309093A4308093A5309093A63036
:100D000078948FEF97EAA1E681509040A040E1F7F8
:100D100000C00000A895B5DC80E18093A106809317
:100D2000A5060E94A00E88E293E20E94F413682EAA
:100D3000882321F089E293E20E9433130E94BA16BD
:100D40000E947314C1D635D679D683EB90E29F9377
:100D50008F930E94E92080E2809305060F900F9008
:100D6000312C712C412C8E010F5F1F4F6CE3C62E6E
:100D700062E0D62E75EDA72E71E2B72E7E01B1E0AE
:100D8000EB0EFB1E80E090E20E94B71E4C018BE14F
:100D900090E20E94B71E181619060CF04DC192E0A1
:100DA000909305068234A9F5A8950E94131387E451
:100DB00092E09F938F930E94FA208BE190E20E9431
:100DC000601E0F900F9028EC8BE190E2CC5EDE4F1E
:100DD0002883C451D1400E949C1E0E941B1ACC5EE5
:100DE000DE4F2881C451D140215071F78091C10458
:100DF0008E7F8093C1040E94251DF894EFEFF3EDE0
:100E000020E3E150F0402040E1F700C000006CDE3C
:100E100013C18F3611F4A9D70FC18F3419F40E9472
:100E200017130AC1833419F40E941B1305C18435BA
:100E300019F40E941F1300C1843619F40E94231371
:100E4000FBC08B34E9F4B0DB9F938F937F936F9358
:100E5000DF92CF920E94FA20A9DB9F938F937F931A
:100E60006F9383E392E09F938F930E94FA201F92E7
:100E70001F9288E292E09F938F930E94FA209BC07A
:100E8000803719F40E94D914D7C0863519F40E940E
:100E90000B13D2C0863759F522E230E0C901CC5E8F
:100EA000DE4F2883C451D140CD5EDE4F3883C3511D
:100EB000D1400E945F2390E00E941D21CC5EDE4F56
:100EC0002881C451D140CD5EDE4F3881C351D1401D
:100ED0002F5F3F4F90E02236390701F780E090E026
:100EE0000E946F239F938F93A4ECB0E23FC084379E
:100EF00079F4809126231F928F93A0E2B2E0BF93F2
:100F0000AF930E94FA200F900F900F900F9094C013
:100F1000883689F41F925F921F922F92A0E1B2E06F
:100F2000BF93AF930E94FA200F900F900F900F90F5
:100F30000F900F9081C0823721F480E280930506E4
:100F40007BC0823521F480E68093060675C0833726
:100F500029F468ECC8010E94ED0F35C0893659F4B8
:100F60000E9460159F938F93ACECB0E2BF93AF9358
:100F70000E94E920C8CF893411F4D5DD5DC08537E2
:100F800029F482E490E00E94C21556C08736B1F47D
:100F90002091480681E090E0211101C080E09F93FC
:100FA0008F939F938F939F938F93ACEDB0E2BF93FA
:100FB000AF930E94E920CDBFDEBF3EC0843451F420
:100FC00068ECC801F3D71F930F930E94E9200F909C
:100FD0000F9032C0833539F448ECB80183EF90E2CA
:100FE0000E94AF1229C0893739F18D36B9F4739454
:100FF00019F485EF90E21CC091E0791203C082E001
:1010000091E216C0A2E07A1203C088E191E210C01A
:10101000B3E07B1210C084E291E20AC08A3231F45C
:1010200088E293E20E94F413682E06C081E391E205
:101030000E94222101C0712C18141904A4F4B401D7
:101040007727E1E07E1203C086E296E20BC0F2E071
:101050007F1203C086ED93E205C023E0721203C045
:101060008EEF94E213D486E296E23AD4882359F0C4
:1010700086E296E245D491E0791205C0682F80E0BF
:1010800090E20E94271E86ED93E22AD4882309F17C
:10109000A2E07A121EC00E94E41C86ED93E220D4E6
:1010A0008823D9F086ED93E22BD4982EBDE08B13E4
:1010B00002C062E704C0EAE08E1305C06EE680E07D
:1010C00090E20E94271E692D80E090E20E94271E78
:1010D000E4CFF3E07F1609F44EC0C8010E942B163E
:1010E000803809F05DC03981CE0102964C0121E0C3
:1010F000231718F5D4018D914D011F928F93BF9244
:10110000AF92CC5EDE4F2883C451D140CD5EDE4F1E
:101110003883C351D1400E94E920CC5EDE4F288144
:10112000C451D1402F5F0F900F900F900F90CD5E64
:10113000DE4F3881C351D140DBCF4801830E911C73
:10114000F401808186951F928F938AE991E29F93A3
:101150008F930E94E920D4018C910F900F900F90F3
:101160000F9080FF03C083EA91E202C086EA91E219
:101170000E94222115C08EEF94E2B2D3882381F021
:101180000E94E41C8EEF94E2ABD3882349F08EEFEB
:1011900094E2B6D3682F80E090E20E94271EF2CF3F
:1011A0006FEFC80188D78F3F09F4B9C0811110C013
:1011B0001F930F9389EA91E29F938F930E94E920F6
:1011C00081E0809327230F900F900F900F90A7C07E
:1011D000843099F51F930F9384EC91E29F938F9342
:1011E0000E94E9206FEC71E2C8010E945D206FEC63
:1011F00071E280E090E00E945D204C016FEFC80139
:101200000E940F13F40101900020E9F73197E819CB
:10121000F9090F900F900F900F90709708F07FC012
:10122000B401C7010E947A20FF92EF9282EE91E210
:101230009F938F930E94E92021C0863081F56FEC47
:1012400071E2C8010E945D20FC0101900020E9F7D5
:101250003197E81BF90B709708F061C0BC01C7011A
:101260000E947A20FF92EF9288ED91E29F938F93F4
:101270000E94E9206FEFC8010E940F134FEFB801E1
:10128000C7010E94AF12C7010E9406131F928F93DD
:1012900081ED91E29F938F930E94E9201FC08130DE
:1012A00001F56FEC71E2C8010E945D209F938F935E
:1012B00082EF91E29F938F930E94E9206FEC71E29D
:1012C000C8010E945D209F938F9388EF91E29F93C6
:1012D0008F930E94E92082E080932723CDBFDEBF59
:1012E0001EC0823061F48EEF91E29F938F930E9433
:1012F000E92084E0809327230F900F9010C01F9364
:101300000F931F928F9383E092E29F938F930E949B
:10131000E9200F900F900F900F900F900F908BE19E
:1013200090E20E949C1E80E090E20E949C1E0E941F
:101330001B1AA89580912723823071F40E941F13F5
:101340008BE092E29F938F930E94E92083E0809349
:1013500027230F900F900FC0843069F48EE092E243
:101360009F938F930E94E92085E0809327230F901D
:101370000F9052E0752E80912623841509F487C0C2
:1013800040902623662059F0BE016F5E7E4F89E2B1
:1013900093E20E94CB1389E293E20E94331371100F
:1013A00005C06BE280E090E20E94271E6620D1F02B
:1013B000B70189E293E20E94CB1381110FC0F701BC
:1013C00081818F9380818F938EE192E29F938F939F
:1013D0000E94E9200F900F900F900F9089E293E206
:1013E0000E9433138091D5238A3008F050C08F5F5C
:1013F0008093D5231F928F938AE292E29F938F93DB
:101400000E94E9208091D5230F900F900F900F90AC
:10141000813049F485E392E29F938F930E94E92003
:101420000E94D91432C0823079F40E9460159F93D3
:101430008F9381E492E29F938F930E94E9200F9013
:101440000F900F900F9023C0853041F484E592E215
:101450000E94222180E48093050619C0873031F470
:1014600084E792E20E94222180D411C0893079F46D
:1014700088E892E20E942221C7D5811108C080EA43
:1014800092E29F938F930E94E9200F900F9080919A
:101490004806232D30E0837F90E02817390709F4B0
:1014A00071CC90904806F92DF37F3F2E83EA92E2AB
:1014B0009F938F930E94E9200F900F9090FE03C09E
:1014C00089EA92E202C080EB92E29F938F930E949E
:1014D000E9200F900F9091FE03C087EB92E202C0CB
:1014E0008CEB92E29F938F930E94E9200F900F90D4
:1014F00096FC03C082EC92E202C085EC92E29F93DC
:101500008F930E94E9200F900F908AE090E00E9454
:101510001D2138CC1F920F920FB60F9211248F937A
:101520008091D5238A3018F484E0809307068AE0FE
:10153000809306068F910F900FBE0F901F90189505
:101540001F920F920FB60F9211248F938091262332
:101550008F5F809326238F910F900FBE0F901F9067
:101560001895E0E0F4E020853185280F391F2487A5
:1015700035878381826083830895E0E0F4E083818E
:1015800082700895292F33272230310559F02330F6
:10159000310569F021303105F9F482E190E025E26E
:1015A00033E01EC083E890E022EA32E019C09927B8
:1015B0008130910541F08230910541F0892B61F431
:1015C000EEE9F2E005C0E4E8F2E002C0ECE5F2E0AA
:1015D000849190E09F0104C080E090E020E030E042
:1015E000FA012083318308950F931F93CF93DF93E4
:1015F00000D0CDB7DEB7FB01813051F0823061F011
:10160000833081F480E800E010E022E092E00FC037
:1016100080E802E210E003C080E802E010E020E28F
:1016200091E005C081E800E010E020E090E030911A
:10163000CF0137FDFCCF913071F4DF010D90002018
:10164000E9F7AE1BA217C8F44A2F50E0B801CF014A
:101650000E94732311C0923081F442E0BF01CE0199
:101660000196A4D5698170E0762F66278A81680F7C
:10167000711DC8010E948B2380E02396CDBFDEBF81
:10168000DF91CF911F910F9108956F927F929F925A
:10169000AF92BF92CF92DF92EF92FF920F931F9380
:1016A000CF93DF93CDB7DEB7C65AD109CDBFDEBF2A
:1016B0003C01CB016E0125E9C20ED11C2DE0F601E3
:1016C00011922A95E9F728E0F601208369EC72E28D
:1016D0000E945D208C0169EC72E280E090E00E9443
:1016E0005D205C0169EC72E280E090E00E945D2088
:1016F0007C010115110511F43FEF8EC0A114B10456
:10170000D9F30097C9F3F80180818033A8F3918160
:10171000903390F33DD5982E929480EF9822F80163
:10172000818136D5980EF3E6F91530F38E010B580A
:101730001F4F80E2F80111928A95E9F740E250E0EC
:10174000B501C8010E948120F601928246E0B301F2
:10175000C60107962BD540E2B701CE018B5A9F4FA9
:1017600025D5CE018E559F4F0E94BF17811102C013
:101770003FEF01C031E0CE55DF4F188219821A8247
:101780001B82C25AD040CE018B5A9F4F7C0120E071
:1017900040E0BE016E557F4F84559109CA55DF4F19
:1017A0003883C65AD0400E94B018CA55DF4F3881DE
:1017B000C65AD040811132E0CE55DF4F8881C25ADF
:1017C000D0408430E9F4CD55DF4F8881C35AD040F2
:1017D000811116C0CC55DF4F8881C45AD040833068
:1017E00079F4CB55DF4F8881C55AD040803441F41D
:1017F00087EA90E20E942221B501892DF5DE382F7B
:10180000CA55DF4F3883C65AD0400E940F17CA55B9
:10181000DF4F3881C65AD040832FCA55DF4FCDBF26
:10182000DEBFDF91CF911F910F91FF90EF90DF907E
:10183000CF90BF90AF909F907F906F900895FC01E4
:101840002081207F622B60830895FC0126812C7FFC
:10185000622B66830895FC01608371834283EC5D93
:10186000FE4F10823197108233961082319710828A
:101870000895FC01EB5DFE4F2081319690812F5F32
:101880002F7181E0291301C080E008950F931F9309
:10189000CF93DF931F92CDB7DEB78C016983E9DF69
:1018A00069818823B9F0F801EB5DFE4F9081D80182
:1018B000A90FB11DAD5FBE4F6C939F5F9F71908369
:1018C000D801ED91FC91119793819C7F12962C91F8
:1018D000922B93830F90DF91CF911F910F910895D9
:1018E000FC01ED5DFE4F20813196908181E029134E
:1018F00001C080E00895895D9E4FFC0180810895BC
:10190000FC01E95DFE4F108233972081DC01A20FBC
:10191000B11D13968C9190819F5F90830895CF9312
:10192000DF93FC01ED5DFE4F20812F5FDC01AC5D9C
:10193000BE4F4C91EC01A881B9813C913D3029F416
:1019400051E0DC01A95DBE4F5C93241749F0408152
:10195000DC01A40FB11D13963C93208381E001C0EC
:1019600080E0DF91CF910895CF93DF93FC01EA5D92
:10197000FE4F2081DC01AB5DBE4F3C91EC01A881A4
:10198000B981321307C013968C9113978C7F1396ED
:101990008C930CC02081820F911DEC01CD5FDE4F36
:1019A00088818C9380818F5F8F718083DF91CF914D
:1019B0000895CF93DF9341E060EA78E086ED93E20B
:1019C0004ADFC6EDD3E2E881F98183E08583838134
:1019D000806383838EE2868386811F928F938BEC54
:1019E00092E29F938F930E94E920E881F98188E930
:1019F000878387811F928F9383ED92E29F938F93CA
:101A00000E94E920E881F981848180618483848156
:101A100088608483E0E4F6E088E08183858384E065
:101A20008283E0EAF0E08281856082838DB79EB791
:101A300008968DBF9EBFDF91CF910895CF93DF931E
:101A400041E060EA79E08EEF94E205DFCEEFD4E288
:101A5000E881F98183E0858383818F7C8061838342
:101A600085EE868386811F928F938BEC92E29F9303
:101A70008F930E94E920E881F9818CEB878387812D
:101A80001F928F9383ED92E29F938F930E94E920A0
:101A9000E881F98184818061848384818860848382
:101AA000E0E6F6E088E08183858384E08283E0EAF3
:101AB000F0E08281816082838DB79EB708968DBFEA
:101AC0009EBFDF91CF910895CF93DF9341E060EA0D
:101AD0007AE086E296E2BFDEC6E2D6E2E881F981EC
:101AE00083E0858383818F7C8061838385EC86831B
:101AF00086811F928F938BEC92E29F938F930E942B
:101B0000E920E881F9818CEA878387811F928F938E
:101B100083ED92E29F938F930E94E920E881F981FF
:101B2000848180618483848188608483E0E8F6E036
:101B300088E08183858384E08283E0EAF0E082812B
:101B4000816082838DB79EB708968DBF9EBFDF915F
:101B5000CF9108951F920F920FB60F9211240BB6DA
:101B60000F922F933F934F935F936F937F938F9336
:101B70009F93AF93BF93EF93FF9386ED93E2CFDEF6
:101B8000FF91EF91BF91AF919F918F917F916F9155
:101B90005F914F913F912F910F900BBE0F900FBE11
:101BA0000F901F9018951F920F920FB60F9211244D
:101BB0000BB60F922F933F934F935F936F937F9347
:101BC0008F939F93AF93BF93EF93FF9386ED93E231
:101BD000CBDEFF91EF91BF91AF919F918F917F915C
:101BE0006F915F914F913F912F910F900BBE0F908E
:101BF0000FBE0F901F9018951F920F920FB60F9265
:101C000011240BB60F922F933F934F935F936F93D3
:101C10007F938F939F93AF93BF93EF93FF938EEF39
:101C200094E27DDEFF91EF91BF91AF919F918F91F3
:101C30007F916F915F914F913F912F910F900BBECC
:101C40000F900FBE0F901F9018951F920F920FB616
:101C50000F9211240BB60F922F933F934F935F93E4
:101C60006F937F938F939F93AF93BF93EF93FF9364
:101C70008EEF94E279DEFF91EF91BF91AF919F914A
:101C80008F917F916F915F914F913F912F910F9025
:101C90000BBE0F900FBE0F901F9018951F920F92C2
:101CA0000FB60F9211240BB60F922F933F934F93C1
:101CB0005F936F937F938F939F93AF93BF93EF93B4
:101CC000FF9386E296E22BDEFF91EF91BF91AF91F9
:101CD0009F918F917F916F915F914F913F912F9144
:101CE0000F900BBE0F900FBE0F901F9018951F9274
:101CF0000F920FB60F9211240BB60F922F933F93B2
:101D00004F935F936F937F938F939F93AF93BF9303
:101D1000EF93FF9386E296E227DEFF91EF91BF916A
:101D2000AF919F918F917F916F915F914F913F9173
:101D30002F910F900BBE0F900FBE0F901F90189514
:101D4000E0E0F6E080E681838683E0E2F6E080E48E
:101D50008583A0E4B6E088E156968C93569780EB95
:101D600011968C938FEF8183089580E4E0E2F6E092
:101D700086832FEF83EC99E0215080409040E1F77B
:101D800000C0000080E485830895682F86ED93E20B
:101D90007DCD0F931F93CF93DF931F921F92CDB7EB
:101DA000DEB7E82FF0E0EE0FFF1FE95CFC4F8591F6
:101DB00094918C010F5F1F4FFC018491882339F0AF
:101DC00069837A83E2DFC8017A816981F2CF8B016E
:101DD000F80181918F01882311F0D7DFF9CF8DE0D1
:101DE000D4DF80E00F900F90DF91CF911F910F9182
:101DF00008951F93CF93DF93182F80E69AEEB1DBFF
:101E0000C0E086ED93E277DDDFEF882339F186EDE0
:101E100093E276DD8A3041F1C11105C08032B9F319
:101E20008D30A1F41BC0C13019F48B34A9F41EC04D
:101E3000CF5FC33088F08D3089F06091A53070910C
:101E4000A63090E00E94B720DEEFE1CF111111C063
:101E5000C1E08F34E1F2C0E08D30C9F68EDB811134
:101E60000FC0DF3F71F20CC0C0E0D1CFC2E0D0E0C4
:101E7000CECF20ED280F2A3008F4D22FC2E0ECCFCD
:101E80008D2FDF91CF911F910895BF92CF92DF9256
:101E9000EF92FF920F931F93CF93DF93D82EEB0116
:101EA000C42E80E69AEE5DDBE12C00E0F12C1FEF02
:101EB00086ED93E220DD882321F186ED93E220DD9B
:101EC0000C1520F4DE01A00FB11D8C938A3009F4AB
:101ED0005BC0F11005C0803309F058C0E02E56C039
:101EE0008D3051F4202F30E0215031096E2D70E0FB
:101EF0002617370709F44DC00F5F86ED93E2F0DC3B
:101F0000DACF3BDB882349F0B12EDE01AE0DB11DE7
:101F10001C92112329F0B12E3EC01E3F48F6F4CF8B
:101F2000ED2DF0E0EE0FFF1FE655FB4FC590D4906E
:101F3000E12CF12CB701A601CE010E94CA048C014C
:101F40000097F9F0C701B6010E94BF04F8010190A3
:101F50000020E9F73197E01BF10BE81B1E16DCF4BB
:101F6000EE2EFF24E7FCF094B801680F711D87FD89
:101F70007A95A701CE010E946920CE0DDF1D18823F
:101F80000AC02DEFB22E07C0F12CB6CF92E0F92E89
:101F9000B3CF10E0B1CF8B2DDF91CF911F910F9177
:101FA000FF90EF90DF90CF90BF9008950F931F9315
:101FB000CF93DF931F92CDB7DEB78C01462F60E041
:101FC00070E082E04983E5DE4981B80188E00F9046
:101FD000DF91CF911F910F9158CF0F931F93CF9304
:101FE000DF931F92CDB7DEB78C01462F60E070E023
:101FF00086E14983CEDE4981B80187E00F90DF9109
:10200000CF911F910F9141CFCF93DF9380914806DD
:1020100086FD4BC060E070E080E0BBDE80E0E9DE82
:102020002FEF33EC99E0215030409040E1F700C0B1
:102030000000811113C060E070E081E0AADE81E061
:10204000D8DED82F2FEF33EC89E02150304080408C
:10205000E1F700C00000A895C3E012C060E070E0A6
:1020600080E097DE80E0C5DE9FEF23EC39E0915001
:1020700020403040E1F700C00000811119C0DBCFE3
:1020800060E070E08C2F85DE81E0B3DED80F8FEF4B
:1020900093EC29E0815090402040E1F700C000001F
:1020A000A895CF5FCD3061F702C08FEF01C08D2FB3
:1020B000DF91CF9108959F92AF92BF92CF92DF921E
:1020C000EF92FF920F931F93CF93DF93EC01062FB4
:1020D00086ED93E210DC811103C099249A944BC0E1
:1020E000F12C10E00150110986ED93E209DC2F2D4F
:1020F00030E0201731072CF4FE01E20FF31F80833C
:10210000F3948D3089F7FE01EF0DF11D10824AEA3C
:10211000A42E44E0B42E912CF501C590D490E12C6E
:10212000F12CB701A601CE010E94CA048C010097D0
:10213000D1F0C701B6010E94BF04F8010190002050
:10214000E9F73197E01BF10BE81BA9F0EE2EF12C1B
:10215000B801680F711DA701CE010E946920CE0D44
:10216000DF1D188208C0939482E0A80EB11C89E09C
:102170009812D2CFB2CF892DDF91CF911F910F91BD
:10218000FF90EF90DF90CF90BF90AF909F90089519
:102190009FEB980F963010F4875308959FE9980F9E
:1021A000963010F48755089580530895BF92CF92CA
:1021B000DF92EF92FF920F931F93CF93DF937C01F7
:1021C000C42EEB01B82E8C01D02EDB18DC14C8F421
:1021D00088818033B0F0DCDF2296FE013197908158
:1021E000903358F0D82ED29450EFD522892FD0DFDB
:1021F0008D0DF80181938F01E7CFF701ED0DF11DF2
:10220000808381E08D0D8C1530F4F701E80FF11D0E
:1022100010828F5FF8CFDF91CF911F910F91FF90C8
:10222000EF90DF90CF90BF9008954F925F926F92A2
:102230007F928F929F92AF92BF92CF92DF92EF9256
:10224000FF920F931F93CF93DF933B0101967C0185
:10225000512C00E010E0C0E0D0E066E0A62EB12CEA
:1022600077E0872E912CF701319780816301C00EB2
:10227000D11E882309F440C08BDF482EF7018081EE
:1022800087DFF0E14F9E800D1124F501EC1BFD0B63
:10229000E658FF4D9081682F69230C2E01C0660F10
:1022A0000A94EAF7A8014F5F5F4F650DF60160835E
:1022B000282F30E0892F90E08095909528233923AE
:1022C000C4018C1B9D0B02C0359527958A95E2F7BA
:1022D000522EC630D10551F4F301E40FF51F2083CF
:1022E0004F5F5F4F512CC0E0D0E001C02196F2E07B
:1022F000EF0EF11C8A01B7CFF6011082C801DF9101
:10230000CF911F910F91FF90EF90DF90CF90BF90F2
:10231000AF909F908F907F906F905F904F900895B7
:102320000F931F93CF93DF938B01FC01019000204B
:10233000E9F73197E81BF90BDC012C912A3009F4FD
:102340000196EC0120E030E0DE012E173F0744F457
:10235000119688818A3021F02F5F3F4FED01F4CF35
:10236000ED01CE018A1B9B0B8E179F0734F48881E9
:102370008A3009F418822196F4CF2E173F070CF00B
:1023800046C0ED01229611968C9102DFC80FD11D37
:10239000C80FD11D22968981FBDE282F30E080FFF7
:1023A00002C02F5F3F4F24960115110559F170E0CF
:1023B00060E0472F50E0862F90E042175307F4F477
:1023C000FE01E40FF51F508141E0460FE1E0E70F09
:1023D000DE01AE0FB11DFD017E5FE081D801A80FC7
:1023E000B91FEC9380ED850F8A3030F4F801E40FCB
:1023F000F11D508342E0460F642FDBCFF801E80F58
:10240000F91F1082CE01820F931F449602C080E014
:1024100090E0DF91CF911F910F9108951F93CF937B
:10242000DF9323E035E0DB01F901C0E05E2F521BB2
:10243000D491D11105C0A1E0A50F50E0D6E420C091
:10244000442341F0DD3209F05C2FDD934150319699
:10245000C52FECCF4FEFEFCF4423F9F0FC011181F2
:1024600030E01123A1F002965F5F260F371FF901BC
:102470001083FB01EA0FF11DB0835F5FAE5F415037
:102480002FEF2A0FFC01B081B111E6CF07C00196F2
:10249000FB01E20FF31FD083ECCF4FEF5A3048F42B
:1024A000FB01EC0FF11D505D5083420FE6EFF4E0AD
:1024B00011C086EF850F8630C0F7FB01EC0FF11DD0
:1024C000595CF2CF3196241761F0DB01A80FB91FD8
:1024D0005C93232F5491822F90E031E0320F511101
:1024E000F1CFFB01E80FF91F2AE12083FB01E30F85
:1024F000F11D1082FB0101900020E9F73197E61BE6
:10250000F70BF695E7958FEF8E0FDF91CF911F9127
:1025100008950F931F93CF93DF938B01BC0182E14A
:1025200038DC80E29EE41DD886ED93E2D9D9811192
:1025300004C023D88823C1F307C086ED93E2E0D915
:102540008E33B9F7E80106C081E0DF91CF911F918A
:102550000F914FCC89918823B9F317DCFBCFCF9231
:10256000DF92EF92FF920F931F93CF93DF93CDB73C
:10257000DEB7C05BD109CDBFDEBF7B01C42EBC017D
:102580008FE007DC4C2DB70185E07FDCD82E811170
:102590002FC0BE016F557F4FC701C2DE8E010F5F96
:1025A0001F4FB80142DE892B09F1B801CE018F55CA
:1025B0009F4F6BD881111CC04C2DB701CE018F5598
:1025C0009F4F2CDF1F928F9320EA31E23F932F938E
:1025D0001F930F930E944F21B701C8019ADF0F90FC
:1025E0000F900F900F900F900F9002C0DD24D394A6
:1025F0008D2DC055DF4FCDBFDEBFDF91CF911F9135
:102600000F91FF90EF90DF90CF900895BC0180E193
:10261000C0DB81E0EECB60E070E081E1BACB462F19
:10262000BC0188E032CC60E070E08EE0B2CB60E0CC
:1026300070E084E1AECB60E070E083E1AACB60E0C3
:1026400070E085E1A6CB80E1E0E4F6E085832FEF42
:1026500083EC99E0215080409040E1F700C00000F9
:1026600080E186830895CF93DF93EC010E942B04D1
:10267000882341F0CE010E948A0384E40E947903FA
:1026800081E009C08BED92E29F938F930E94E92035
:102690000F900F9080E0DF91CF910895FC01218190
:1026A00030E0322F22278081282B2E7F63E0220FFB
:1026B000331F6A95E1F746818CE090E0841B910915
:1026C000820F931F97FF05C0919581959109E1E0D5
:1026D00001C0E0E09C0144E0369527954A95E1F77A
:1026E0006AE0629FA001639F500D11248F709927AB
:1026F00060E872E0869F9001879F300D969F300DB5
:102700001124E11101C03E5F232F33272695269522
:10271000240F351FEE2319F0319521953109C90198
:102720008A5D9D4F8930974018F08FE097E20895B9
:10273000C9010895EF92FF920F931F93CF93DF93F8
:102740001F921F92CDB7DEB7142F6A8379830E9440
:102750008A038EEB0E9479036A81062FE62E798127
:10276000F72E60E08E2D801B811758F46A830E943B
:10277000B403F70181937F016A810E94FC02682FF4
:10278000F1CF862F0F900F90DF91CF911F910F9176
:10279000FF90EF900895EF92FF920F931F93CF93C6
:1027A000DF93CDB7DEB72997CDBFDEBF7C018B01AC
:1027B0000E942B0449E0BE016F5F7F4FC701BADF63
:1027C000F82E811106C0CE01019668DFF8018083E2
:1027D00091838F2D2996CDBFDEBFDF91CF911F91C1
:1027E0000F91FF90EF9008959F92AF92BF92CF927A
:1027F000DF92EF92FF920F931F93CF93DF938C01A1
:10280000C3E064E0C8010E944304882341F0C15042
:10281000C1F78AE193E20E942221912C57C020E067
:1028200030E0912CF801E20FF31F80818111939425
:10283000275F3F4F24323105A9F71F929F922FEF58
:1028400032E23F932F930E94E9200F900F900F9058
:102850000F90C1E0D0E079E0C72E73E2D72EEFE011
:10286000AE2EE3E2BE2EF8018081882329F1DF93AA
:10287000CF93DF92CF920E94E9200F900F900F909C
:102880000F90E12CF12CF801EE0DFF1D81811F92BC
:102890008F93BF92AF920E94E920EFEFEE1AFE0AEB
:1028A0000F900F900F900F90F8E0EF16F10459F78A
:1028B00083E392E20E942221075F1F4F2196C530D9
:1028C000D10589F684E193E20E942221892DDF91CE
:1028D000CF911F910F91FF90EF90DF90CF90BF901D
:1028E000AF909F900895E0E6F6E088EB818B82E060
:1028F0008583818380E1858381830895882321F006
:1029000080E180936606089580E1809365060895CE
:10291000CF938EEF94E20E94700C882329F08EEF03
:1029200094E20E94800CF5CF81E0E8DF8FE39FE125
:102930000197F1F700C000008EEF94E20E94700C46
:10294000882339F08EEF94E20E94800CC1E08E3330
:1029500009F0C0E080E0D2DF8C2FCF9108950F9373
:102960001F93CF93DF93C091262300E010E0D0E0C7
:102970008EEF94E20E94700C882359F08EEF94E25F
:10298000113021F40E94800C082F02C00E94800C9C
:102990001F5F133040F42091262330E02C1B3D0BA9
:1029A000223031052CF3802FDF91CF911F910F91B1
:1029B00008951F93CF93DF93ABDF882309F47AC088
:1029C000D1E6C0E069E58EEF94E20E94460C6D2FDF
:1029D0008EEF94E20E94460CC2DFEC2FF0E0EF5D38
:1029E000FA4FE4918E1301C0CF5FDF5FDD3651F700
:1029F000CB3009F058C081E295E09F938F930E94FD
:102A0000FA2084E195E09F938F930E94FA200F9023
:102A10000F900F900F901EE669E58EEF94E20E94F2
:102A2000460C612F8EEF94E20E94460CC091A530B7
:102A3000D091A63094DFBE0190E00E94B7201F5FC6
:102A4000123751F78EE095E09F938F930E94FA2002
:102A50000F900F9013E769E58EEF94E20E94460C09
:102A6000612F8EEF94E20E94460CC091A530D09168
:102A7000A63075DFBE0190E00E94B7201F5F1737B8
:102A800051F76091A5307091A6308AE090E00E94E5
:102A9000B7206091A5307091A6308DE090E00E9443
:102AA000B720C1E001C0C0E068E58EEF94E20E946B
:102AB000460C01C0C0E08C2FDF91CF911F9108958B
:102AC000FF920F931F93CF93DF930091262320DF74
:102AD000882309F449C060E38EEF94E20E94460C1B
:102AE000CFEFDFEFF12C10E08EEF94E20E94700C3C
:102AF0008823E1F08EEF94E20E94800CC8278C2F8F
:102B000082958C27082E869586958025082E869599
:102B1000802587700C2ECD2F869507948795D02D14
:102B2000C82706948795D025C827F39480E48F158D
:102B300038F48FE39FE10197F1F700C0000009C06E
:102B40008091262390E0801B910B02970CF4CCCF50
:102B5000F0CF8EEF94E20E94700C882339F08EEF54
:102B600094E20E94800CF5CFCFEFDFEF68E58EEFA7
:102B700094E20E94460CCE01DF91CF911F910F91FC
:102B8000FF9008950F931F93CF93DF93EC01C0DE66
:102B9000811102C080E05AC06DE48EEF94E20E9481
:102BA000460C8FEB9DE50197F1F700C000008EEF1A
:102BB00094E20E94700C882369F38EEF94E20E94E5
:102BC000800C8E3339F78091CF0187FDFCCFCE0189
:102BD0000E945F23182FCE0101960E945F23082FC9
:102BE0001F3FB9F46FEF8EEF94E20E94460C81E232
:102BF00093E29F938F930E94E9209FEF23EC89E05B
:102C0000915020408040E1F700C000000F900F90ED
:102C10000CC02296612F8EEF94E20E94460C602F2A
:102C20008EEF94E20E94460CCECF8EEF94E20E948B
:102C3000700C882329F08EEF94E20E94800CF5CF6F
:102C400068E58EEF94E20E94460C81E0DF91CF911F
:102C50001F910F910895FF920F931F93CF93DF93CE
:102C6000EC018091D123853011F41092D12310E032
:102C700005E084E0F82E8EEF94E20E94700C882329
:102C800009F44DC08EEF94E20E94800C9091D12304
:102C900091110AC0883679F781E08093D123809121
:102CA00026238093D023E7CF913049F48093CF231C
:102CB0001092CE2392E09093D1238883DCCF923080
:102CC00081F49091CE239F5F9093CE23FE01E90F74
:102CD000F11D80838091CF239813CDCFF092D12323
:102CE000CACF943041F6863121F40093D12310E805
:102CF000C2CF883629F481E08093D12312E0BBCF84
:102D00002091262330E08091D023281B31092330E5
:102D100031050CF4B0CF0093D12311E0ACCF812F5B
:102D2000DF91CF911F910F91FF900895CF92EF9275
:102D3000FF920F93CF93DF931F92CDB7DEB78983B6
:102D4000C62E7A0101E09E012F5F3F4F4AE060915D
:102D5000D22380EA94E00E941420882311F080EFAF
:102D600001C080E00F90DF91CF910F91FF90EF9025
:102D7000CF900895E0EAF4E010828BE4858388E048
:102D80008183128281E0848388EC8093D22308952A
:102D90004AE060E080EA94E00E94C41F87E0E0EA35
:102DA000F4E083838FEB9DE50197F1F700C000000D
:102DB00080E00895FF920F931F93CF93DF93F62E39
:102DC000C82FD0E02197862F8F1990E08C179D0790
:102DD00064F48B010F5F1F4F40E080EA94E00E9493
:102DE000FF1F882349F0B801EECF41E080EA94E06C
:102DF0000E94FF1F811105C087E08093A30481E03A
:102E000004C087E08093A30480E0DF91CF911F91FD
:102E10000F91FF900895AB01682F83E087CF40E0CA
:102E200050E060E081E082CF40E050E060E080E090
:102E30007DCF1F93CF93DF93182FEB016091D223A7
:102E400061604AE080EA94E00E94C41F882321F078
:102E50008330D1F487EE18C040E0BE0180EA94E0F0
:102E60000E94FF1F811102C080EF0EC08881843054
:102E700050F0181740F0BE016F5F7F4F81509ADF0E
:102E80008111F2CF01C084EEDF91CF911F9108959F
:102E90008FEF8093A6048091A40486FFFCCF10924C
:102EA000A6048091A40486FFFCCF83E08093A30452
:102EB0006091D22361604AE080EA94E00E94C41FDE
:102EC000811104C087E08093A304AECF80EF089502
:102ED0001F93CF93DF93C62FFB0120E030E09E2F9E
:102EE0009C1B9817D8F4B19168E070E091E0D32F63
:102EF000DD1FDD27DD1F220F331FA1E0192F1B234C
:102F000009F4A0E0AD1719F0A5E02A273058990F71
:102F1000615071096115710551F7E1CFFA01208304
:102F20003183DF91CF911F910895FF920F931F93EB
:102F3000CF93DF931F921F92CDB7DEB78C01FC01B8
:102F4000F080FA94FA94AE014F5F5F4FBC018F2D71
:102F5000BFDFF801EF0DF11D99818081981306C044
:102F60009A818181981302C080E001C085EE0F90A4
:102F70000F90DF91CF911F910F91FF900895CF9304
:102F8000DF93EC0105DF811121C0BE0184E051DF38
:102F900081111CC08881843059F48981813151F4B8
:102FA0008A81833349F48B81833431F480E00EC00D
:102FB00084EE03C080EF01C085EE2FEF35ED96E083
:102FC000215030409040E1F700C00000DF91CF91E8
:102FD0000895CF93DF93EB015BDF882339F01FDF88
:102FE000CE01CDDF811103C088EE01C080E0DF910A
:102FF000CF9108955F926F927F928F929F92AF923E
:10300000BF92CF92DF92EF92FF920F931F93CF93D5
:10301000DF931F921F92CDB7DEB76C01162F7A0196
:10302000722EFC0180808EEF880D28EE33E0029F27
:103030005001039FB00C1124F5E2AF0EB11CA601A4
:10304000480F511DB60144DF03E0502E00EE6E2CF8
:103050005A9409F472C00023C9F1B601882DDBDE51
:10306000082F811102C080E006C0B701812FB1DFB7
:10307000873E71F762C0871541F0EFE3FFE13197BA
:10308000F1F700C000008F5FF6CFB3E09B2E25C0A4
:10309000A982BA82B701812FCCDE082F49815A81DB
:1030A0004552510949835A8329813A812632310593
:1030B000F0F0873E79F3043E59F0C70136DF082F60
:1030C00081112EC0F7018081853000F180E036C08B
:1030D000B701812F7EDF811114C09A9409F4B8CF13
:1030E000F7018E2F8619811798F61192FACF873E35
:1030F00011F7B701812F6DDF873E09F0A9CF87EE69
:103100001DC0883E09F4A4CF84EE18C0F701818168
:10311000833079F08F3079F08F3FC1F604ED98CF8E
:10312000B701812F56DF8823C1F2883E09F490CF82
:1031300004C082ED03C083ED01C0802F0F900F907B
:10314000DF91CF911F910F91FF90EF90DF90CF9083
:10315000BF90AF909F908F907F906F905F900895F9
:10316000CF92DF92EF92FF920F931F93CF93DF9353
:10317000EC01009709F43FC061157105E1F1E1141C
:10318000F104C9F1C114D104B1F1842F87628732EF
:1031900091F5203180F584E5888388E28983477240
:1031A0004A832B831C82DE01159680E201151105EE
:1031B00029F4FD0111928A95E9F705C0F801019003
:1031C0000D928A95E1F7DE01959680E2F701019074
:1031D0000D928A95E1F7DE01AB5BBF4F8DE0F60102
:1031E00001900D928A95E1F70BE12BE0AB0164E0D1
:1031F000CE0100DF01C082EEDF91CF911F910F91D0
:10320000FF90EF90DF90CF9008950F931F93CF938F
:10321000DF93CDB7DEB7EA97CDBFDEBF03E517E298
:1032200039D2F80181938F01F7E20B351F07C1F7FF
:103230000E946C05A2D2882309F4EFC02091532785
:1032400030915427832F90E08A30910508F0E5C033
:10325000FC01E250FF4F2BC7203891F0223809F0D3
:10326000DCC0809157278F7035D2E0915D27F091B7
:103270005E27118112FB112710F980E02BD206C0C6
:1032800010914F2780915027811112608FD2812F8A
:1032900011D280E0A3C0822F8D7F09F0BEC022230F
:1032A00019F0223061F0B9C080915527813009F0C2
:1032B000B4C0333009F080E08093502729C080915A
:1032C0005527811125C0109157271F7009F4A5C0FB
:1032D000812F00D280915427833011F493D218C0EB
:1032E000A0915D27B0915E2711968C9111978B7FED
:1032F00011968C9324E8129FF0011124EF55F84D9C
:103300001082E0915D27F0915E2780818E7F80831F
:1033100080E0E0D14BD264C021117FC010915527CD
:103320001F7744D23AD304D28823E9F31093C3041D
:10333000112311F083E001C082E0809352276DC019
:103340002058223008F069C0809155279091562767
:103350008C3DE3E09E0761F583E08A838AE38983FD
:103360004FB7F894DE01139620E038E052E0509316
:10337000CA01E32FF0E0E4911092CA0120FF03C0DC
:10338000E295EF703F5FEF708E2F90E0EA3010F023
:10339000C79601C0C0968D939D932F5F2C3139F74E
:1033A0004FBF04D26AE370E0CE01019655D00FC042
:1033B000AE014F5F5F4F609157270E94C20A8C0198
:1033C000009759F1F3D1B80189819A81BFD053D1C7
:1033D00024C0203811F5EAD180914E276BD132D12B
:1033E000DCD21BC0211119C0809155278230A8F46E
:1033F000DDD18091552780934E27CFD280914E27E3
:10340000811104C08091C304882311F084E001C0BD
:1034100081E0809352270E945905AFD1882311F093
:10342000C5D1F0D1EA96CDBFDEBFDF91CF911F911C
:103430000F9108950895CF9380915227882351F0DA
:10344000C0915F2780E046D198D18111DEDE8C2FBC
:10345000CF9140C1CF910895DF92EF92FF920F93E9
:103460001F93CF93DF93182F092FEB0180915F27D4
:10347000806830D12091592730915A272C173D0769
:1034800020F0209719F4DED001C0E901E12EF02EE2
:10349000D12C209709F440C080915227811102C09D
:1034A00082E04CC0853011F483E048C066D18823A7
:1034B00011F081E043C048D181113CC039D188234B
:1034C00041F320915F2780915B2790915C27FC015D
:1034D00027FF05C0EF5BFF4F008110E013C0E05CE9
:1034E000FF4F00813196808110E0081B11090AC04E
:1034F0000830110548F4F70181917F01DBD0219755
:103500000F5F1F4F2097A1F7DD24D39408301105DA
:1035100009F0D12C97D0BDCFD110BECF0BC0809178
:103520005227882309F4BCCF853009F4BDCF25D1BB
:103530008111BFCF09D1882391F380E0DF91CF9132
:103540001F910F91FF90EF90DF900895DF92EF921F
:10355000FF920F931F93CF93DF93182F092FEB0147
:1035600080915F278068B6D02091592730915A27E3
:103570002C173D0720F0209719F464D001C0E90111
:10358000E12EF02ED12C209709F442C080915227D1
:10359000811102C082E04EC0853011F483E04AC040
:1035A000ECD0882311F081E045C0CED081113EC01F
:1035B000BFD0882341F320915F2780915B279091B2
:1035C0005C27FC0127FF05C0EF5BFF4F008110E087
:1035D00015C0E05CFF4F00813196808110E0081B30
:1035E00011090CC00830110558F4F701849162D01C
:1035F000FFEFEF1AFF0A21970F5F1F4F209791F7F8
:10360000DD24D3940830110509F0D12C1BD0BBCF99
:10361000D110BCCF0BC080915227882309F4BACFB8
:10362000853009F4BBCFA9D08111BDCF8DD08823BF
:1036300091F380E0DF91CF911F910F91FF90EF9078
:10364000DF900895E0915D27F0915E27A0915B27C0
:10365000B0915C27AF5BBF4F8C9190E082839383E6
:1036600080818D798083E0915B27F0915C27EF5B0F
:10367000FF4F10820895E0915D27F0915E278081D1
:103680008D798083E0915B27F0915C27EF5BFF4FA2
:103690001082089580915B2790915C27FC01EF5B7D
:1036A000FF4F208131E0320F3083FC01E20FF11D2A
:1036B0008081089520915B2730915C27F901EF5BB1
:1036C000FF4F908141E0490F4083F901E90FF11D5F
:1036D0008083089580935F27482F4F7094E8499F17
:1036E00090011124205A384D6091C6047091C7048E
:1036F00090E1499FA001112487FF0FC02E5B3F4F2F
:1037000020935B2730935C27CA010896860F971F8A
:1037100080935D2790935E27089520935B273093D5
:103720005C27460F571F40935D2750935E270895EF
:1037300080915F278068CEDFE0915D27F0915E2762
:10374000808186958170089580915F278F77C2DF91
:10375000E0915D27F0915E27808185FF0CC020916C
:103760005B2730915C2782819381F901E05CFF4FF8
:10377000808381E0089580E0089580915F278F77AE
:10378000A9DFE0915D27F0915E27808184FF0CC066
:1037900020915B2730915C2782819381F901E05C65
:1037A000FF4F808381E0089580E0089580915F2736
:1037B0008F7790DFE0915D27F0915E2780818D7893
:1037C0008083E0915D27F0915E2780818160808316
:1037D000E0915B27F0915C27EF5BFF4F10828091B7
:1037E0005F27806877DFE0915D27F0915E27808119
:1037F00081608083E0915B27F0915C27EF5BFF4F56
:1038000010820895E0915D27F0915E2781818460A8
:103810008183E0915D27F0915E278181807C8034F7
:1038200059F480915F27805855DFE0915D27F09132
:103830005E2781818460818308951F93CF93DF93F6
:103840001F921F92CDB7DEB7182F4A83698342DFDC
:10385000E0915D27F0915E271182E0915D27F09164
:103860005E27812F881F8827881F880F8083E0911B
:103870005D27F0915E2769816183E0915D27F0917A
:103880005E271282138220915B2730915C2724836C
:103890003583110F110B4A811423F901E05CFF4FAE
:1038A00010833196108281E00F900F90DF91CF91BD
:1038B0001F910895AF92BF92DF92EF92FF920F9304
:1038C0001F93CF93DF931F92CDB7DEB7D62E5C0147
:1038D000F12CFD14D9F1F501E080EE2091F1018188
:1038E000128183819481923010F048E101C048E058
:1038F00028E030E090E02017310720F49F5F220F8E
:10390000331FF9CF942B9F7E0134110510F080E016
:103910001EC0882321F0813021F4906C0CC090648B
:1039200003C09068811107C0402F692F80E88E0D79
:10393000998383DF9981402F692F8E2D7EDF882325
:1039400031F3F394F5E0AF0EB11CC3CF81E00F90DB
:10395000DF91CF911F910F91FF90EF90DF90BF907B
:10396000AF90089580E090E0E091C604F091C70424
:103970009C0164E0220F331F6A95E1F7E20FF31F09
:103980001186E091C604F091C704E20FF31F118283
:1039900001968031910541F708958091532787FD65
:1039A00004C0C6DE882351F00EC0CEDE811105C0F2
:1039B000809152278111F9CF08955DCE80915227D1
:1039C0008111EFCF08953ECE1F93CF93DF93E09107
:1039D000C604F091C704F395C081D18114E68091AB
:1039E0005F278078803851F4A3DE811105C0809173
:1039F0005227811105C020C080E023C0A5DEF5CF8D
:103A00008530E1F0E0915D27F0915E27818182FDB4
:103A100017C0E091C604F091C704F39580819181AD
:103A20008C179D07E1F22FEF210F112319F0EC0104
:103A3000122FD5CF84E005C082E003C083E001C02F
:103A400081E0DF91CF911F91089562D068D0E0ECC2
:103A5000F4E081818E7F818380818F7780831092D3
:103A600051270895CF93DF93E0E4F0E0148284813E
:103A7000836084834DD053D0C0ECD4E088818F77AD
:103A800088838881806888831092522710924E27FD
:103A90001092502710924F2788818064888348E0D5
:103AA00068E480E8CADE48E068E480E0C6DE888535
:103AB00080648887898181608983DF91CF910895AF
:103AC0002FB7F89482E0E0ECF1E08287EAE1F0E0E1
:103AD000E491A0ECB4E0DA96EC93DA97EBE1F0E055
:103AE000E491DB96EC93DB97E0ECF1E0128681EA5F
:103AF0009FE28E7F16968D939C9317978FE18C9300
:103B000083E018968C932FBF81E080935127AACF32
:103B1000E0ECF4E080858370808711860895E0EC06
:103B2000F4E08FEF8287848708951F920F920FB67B
:103B30000F9211240BB60F922F933F934F935F93E5
:103B40006F937F938F939F93AF93BF93EF93FF9365
:103B50008091CA0487FF08C08091C80487FF04C011
:103B600080E88093CA0466DC8091CA0486FF07C09F
:103B700080E48093CA04109252270E9457058091D6
:103B8000CA0485FF14C080E28093CA0480914E2746
:103B9000882311F084E007C08091C304882311F0CA
:103BA00083E001C081E0809352270E9455058091F7
:103BB000CA0484FF14C080E18093CA0482E0809329
:103BC000522710924E271092C304CCDE48E068E4DE
:103BD00080E833DE48E068E480E02FDE2BDCFF91F4
:103BE000EF91BF91AF919F918F917F916F915F9175
:103BF0004F913F912F910F900BBE0F900FBE0F90E2
:103C00001F901895CF93DF93EC01FC0170968BE029
:103C1000DF011D928A95E9F782E08C83898783E032
:103C20008E8761E0CE01019645DE882361F061E078
:103C3000CE0106963FDE882331F061E0CE010B967F
:103C4000DF91CF9137CE80E0DF91CF910895CF9370
:103C5000FC01C62F809152278430F9F4448955899C
:103C600066897789452B462B472BB9F0818132DD58
:103C700020915B2730915C27F901EF5BFF4F90812A
:103C800031978081981720F48C2F14DD80E006C0D6
:103C9000D9DC9ADE8823C1F301C082E0CF91089578
:103CA000FB01682F84859585D2DF21E030E081110A
:103CB00002C020E030E088279927821B930B0895EB
:103CC000CF93DF9320915227243091F5FC01448952
:103CD000558966897789452B462B472B49F1818188
:103CE000F9DC20915F2780915B2790915C27FC0194
:103CF00027FF05C0EF5BFF4F208130E008C0E05C8C
:103D0000FF4F20813196408130E0241B3109232B65
:103D100069F0FC01EF5BFF4FD0813197C08192DCED
:103D2000DC1720F051DE811104C08CDC80E001C082
:103D300082E0DF91CF910895CF93DF93EC018091E2
:103D40005227843089F44C895D896E897F89452B9F
:103D5000462B472B49F08981BDDCEADC882321F022
:103D6000CE01DF91CF91ACCFDF91CF910895CF936A
:103D7000DF9320915227243019F08FEF9FEF46C038
:103D8000FC014489558966897789452B462B472B49
:103D9000A1F386819FDCD8DC882379F380915F27AB
:103DA00020915B2730915C27F90187FF05C0EF5B0D
:103DB000FF4F808190E008C0E05CFF4F808131962A
:103DC000208190E0821B9109892B21F063DCC82FB0
:103DD000D0E002C0CFEFDFEF80915F2720915B271B
:103DE00030915C27F90187FF05C0EF5BFF4F8081B1
:103DF00090E008C0E05CFF4F80813196208190E028
:103E0000821B9109892B09F436DCCE01DF91CF9119
:103E10000895FC0184859585AADF97FF02C08EEF87
:103E20009FEF0895FB012EE0DB011D922A95E9F733
:103E300023E0238320E53EE12087318729E03FE12D
:103E4000228733878487958708950895FF920F937B
:103E50001F93CF93DF93EC0190DC882309F48EC08D
:103E6000888190E0209157273091582728173907EB
:103E700009F084C080915427813259F018F48032BF
:103E800049F17CC0823209F457C0833209F467C01B
:103E900075C080915327813A09F070C087DC48DCF7
:103EA0008823E9F38C89FD880E891F8903DC8F2D17
:103EB00001DC802FFFDB812FFDDB888DFBDB898D13
:103EC000F9DB8A8DF7DBBEDBDF91CF911F910F917C
:103ED000FF9063CD80915327813209F04FC066DC9B
:103EE00033DC811105C0809152278111F9CF46C082
:103EF000D1DB082FCFDB182FCDDBF82ECBDB4F2DFE
:103F000050E060E070E0BA0155274427782B402B41
:103F1000512B4C8B5D8B6E8B7F8BBCDB888FBADB20
:103F2000898FB8DB8A8FA7DB38DDCE01DF91CF9197
:103F30001F910F91FF9089CF809153278132F1F427
:103F400035DC2BDD8091552790915627888B998BF6
:103F5000CE01DF91CF911F910F91FF9076CF80918D
:103F60005327813259F422DC18DD60915527CE01A8
:103F7000DF91CF911F910F91FF9067CFDF91CF918C
:103F80001F910F91FF900895FC01668384E6489F7E
:103F9000A0011124848141155105B9F0982F98741E
:103FA000983411F466830AC0982F9075903521F4E7
:103FB00087E0838383E00895807C61F48AE68A95B4
:103FC000F1F700C041505109E5CF85FF05C087E0FA
:103FD000838302C080E0089582E00895FC01678336
:103FE000848186FFFDCF848186FF06C0848182950F
:103FF000817091E0892701C080E081700895FC0103
:1040000084818C708C3071F0848187FFFDCF878133
:10401000DB018C93442311F087E001C082E08383AD
:1040200081E0089580E008958F929F92AF92BF92B1
:10403000CF92EF92FF920F931F93CF93DF931F9234
:104040001F92CDB7DEB75C016E7F29833A839CDF78
:10405000182F29813A8181111BC04901020F0815CF
:1040600041F0F40161914F01C501B8DF8111F7CF33
:1040700015E04701EC0CE81441F0F40161914F01A7
:10408000C501ACDF8111F7CF15E087E0F50183832F
:10409000812F0F900F90DF91CF911F910F91FF9083
:1040A000EF90CF90BF90AF909F908F900895EE0FBC
:1040B000FF1F0590F491E02D199443ED53E230C0B9
:1040C000FB01DC0102C001900D9241505040D8F735
:1040D00008956817790768F4FB01DC01E40FF51F08
:1040E000A40FB51F02C002900E9241505040D8F765
:1040F0000895E6CFFB01DC0101900D920020E1F76D
:104100000895FB01DC014150504048F001900D92B0
:104110000020C9F701C01D9241505040E0F70895BA
:10412000FA01A191B081009719F41097E1F0CD0147
:10413000DC01CD010D90002011F4C00113C0FB0182
:104140002191222319F02015D9F7F3CFFB012191FA
:10415000201519F41E92119606C02223C1F70D9066
:104160000020A1F7D001FA01A193B08308950F9325
:104170001F93CF93DF93182F092FEB018B8181FDC4
:1041800003C08FEF9FEF20C082FF10C04E815F8180
:104190002C813D81421753077CF4E881F9819F010E
:1041A0002F5F3F4F28833983108306C0E885F98548
:1041B000812F1995892B29F72E813F812F5F3F4F42
:1041C0002E833F83812F902FDF91CF911F910F91ED
:1041D0000895CF93DF93CDB7DEB7FE013696619198
:1041E0007191AF018091A5309091A63080D0DF9180
:1041F000CF9108950F931F93CF93DF93CDB7DEB781
:10420000FE0138966191719105EA10E3D8018D9114
:104210009C91DC0113962C911397286013962C9394
:10422000AF0165D0D801ED91FC912381277F2383D5
:10423000DF91CF911F910F9108956091A5307091FA
:10424000A63095CF0F931F93CF93DF93E091A530C6
:10425000F091A630238121FF1BC0EC0100E010E0AB
:1042600089916091A5307091A630DB011896ED918F
:10427000FC911997882331F01995892B89F30FEF59
:104280001FEFEECF8AE01995892B11F4C80102C007
:104290008FEF9FEFDF91CF911F910F9108950F93B3
:1042A0001F93CF93DF93CDB7DEB72E97CDBFDEBF81
:1042B0000E891F8986E08C8309831A838FEF9FE71D
:1042C0008D839E83AE01465E5F4F688D798DCE01F2
:1042D00001960DD0EF81F885E00FF11F10822E9628
:1042E000CDBFDEBFDF91CF911F910F9108952F9227
:1042F0003F924F925F926F927F928F929F92AF9276
:10430000BF92CF92DF92EF92FF920F931F93CF93C2
:10431000DF93CDB7DEB72C97CDBFDEBF7C016B013D
:104320008A01FC0116821782838181FFB0C1CE0110
:1043300001964C01F7019381F60193FD859193FF5E
:1043400081916F01882309F49EC1853239F493FD70
:10435000859193FF81916F01853221F4B70190E03F
:1043600006DFE8CF512C312C20E02032A0F48B3234
:1043700069F030F4803259F0833269F420612CC046
:104380008D3239F0803339F4216026C022602460F8
:1043900023C0286021C027FD27C030ED380F3A30F8
:1043A00078F426FF06C0FAE05F9E300D1124532EEC
:1043B00013C08AE0389E300D1124332E20620CC0C9
:1043C0008E3221F426FD5FC1206406C08C3611F4C4
:1043D000206802C0883641F4F60193FD859193FF71
:1043E00081916F018111C1CF982F9F7D955493309A
:1043F00028F40C5F1F4FFFE3F9830DC0833631F0C3
:10440000833771F0833509F057C021C0F8018081EE
:1044100089830E5F1F4F44244394512C540114C0D0
:104420003801F2E06F0E711CF801A080B18026FF08
:1044300003C0652D70E002C06FEF7FEFC5012C87D0
:104440009CD12C0183012C852F77222E16C0380198
:10445000F2E06F0E711CF801A080B18026FF03C04E
:10446000652D70E002C06FEF7FEFC5012C877AD118
:104470002C012C852068222E830123FC19C0832D5A
:1044800090E048165906A0F4B70180E290E06FDE94
:104490003A94F5CFF50127FC859127FE81915F01C4
:1044A000B70190E064DE31103A94F1E04F1A510800
:1044B0004114510479F7DEC0843611F0893631F5A4
:1044C000F80127FF07C060817181828193810C5FB1
:1044D0001F4F08C060817181882777FD8095982FD4
:1044E0000E5F1F4F2F76B22E97FF09C090958095D3
:1044F000709561957F4F8F4F9F4F2068B22E2AE0B5
:1045000030E0A40145D1A82EA81843C0853729F46E
:104510002F7EB22E2AE030E025C0F22FF97FBF2E89
:104520008F36C1F018F4883579F0ADC0803719F0B6
:10453000883721F0A8C02F2F2061B22EB4FE0DC005
:104540008B2D8460B82E09C024FF0AC09F2F96606F
:10455000B92E06C028E030E005C020E130E002C0FE
:1045600020E132E0F801B7FE07C0608171818281ED
:1045700093810C5F1F4F06C06081718180E090E0E5
:104580000E5F1F4FA40104D1A82EA818FB2DFF77A2
:10459000BF2EB6FE0BC02B2D2E7FA51450F4B4FEFB
:1045A0000AC0B2FC08C02B2D2E7E05C07A2C2B2D04
:1045B00003C07A2C01C0752C24FF0DC0FE01EA0D4A
:1045C000F11D8081803311F4297E09C022FF06C0CD
:1045D0007394739404C0822F867809F0739423FD3A
:1045E00012C020FF06C05A2C731418F4530C57182D
:1045F000732C731460F4B70180E290E02C87B7DD70
:1046000073942C85F6CF731410F4371801C0312C35
:1046100024FF11C0B70180E390E02C87A8DD2C8532
:1046200022FF16C021FF03C088E590E002C088E7A2
:1046300090E0B7010CC0822F867851F021FD02C0B6
:1046400080E201C08BE227FD8DE2B70190E08FDDB3
:10465000A51430F4B70180E390E089DD5A94F8CFD7
:10466000AA94F401EA0DF11D8081B70190E07FDD8D
:10467000A110F6CF332009F45DCEB70180E290E0BF
:1046800076DD3A94F7CFF7018681978102C08FEFEC
:104690009FEF2C96CDBFDEBFDF91CF911F910F9181
:1046A000FF90EF90DF90CF90BF90AF909F908F9052
:1046B0007F906F905F904F903F902F90089503D020
:1046C000808199270895E0ECF1E0378537FDFDCF33
:1046D000348538603487FC01E050F04F0895F3DFF3
:1046E000808191810895DC01A40FB51F4150504095
:1046F00040F0CB01840F951F2E9105D041505040C2
:10470000D8F70895262FDFDF0080021611F008D0B9
:104710000197019708950196272FF5DFF3CF262FF4
:10472000E0ECF1E0378537FDFDCF3485377F348706
:10473000378531FF09C036E3328738ED34BF31E0C9
:104740003387378537FDFDCF33E33287808391830D
:104750001282248325E3228728ED31E024BF3387AA
:1047600001960895FC010590615070400110D8F742
:10477000809590958E0F9F1F0895FC0161507040A9
:1047800001900110D8F7809590958E0F9F1F089586
:10479000FA01AA27283051F1203181F1E8946F9372
:1047A0006E7F6E5F7F4F8F4F9F4FAF4FB1E03ED018
:1047B000B4E03CD0670F781F891F9A1FA11D680FB6
:1047C000791F8A1F911DA11D6A0F711D811D911DE9
:1047D000A11D20D009F468943F912AE0269F11245E
:1047E0003019305D3193DEF6CF010895462F4770C2
:1047F000405D4193B3E00FD0C9F7F6CF462F4F701D
:10480000405D4A3318F0495D31FD4052419302D07A
:10481000A9F7EACFB4E0A695979587957795679520
:10482000BA95C9F700976105710508959B01AC0120
:104830000A2E06945795479537952795BA95C9F747
:10484000620F731F841F951FA01D0895F894FFCF5A
:10485000028410000001051000000186080000011C
:1048600000000000000000000000000081100000B7
:104870000102100000018308000001000000000098
:10488000000000000000001122334455667788992B
:10489000AABBCCDDEEFF0011223344556677889920
:1048A000AABBCCDDEEFF040003400667004F284D95
:1048B0006E986204F460A3E8758A5985A67996C457
:1048C0008A8846434EB3DB58A4FB0103070F1F3F02
:1048D0007F57616B654572720045786563457272FA
:1048E00020257820000A526573706F6E73653A2038
:1048F000090025782C20000A4964656E746963619B
:104900006C21000A5374617274207072656368616F
:1049100072676500204E3A2025780A004D422043F8
:104920006667206372633A2025780A0052696E67D1
:104930003D25642C204354533D25642C204F4E3D8F
:10494000256400330053657269616C3A204E6F6EC6
:10495000650053657269616C3A2045787465726EC2
:10496000616C20285036290053657269616C3A20C9
:1049700047534D0053657269616C3A204D627573FF
:1049800000436F6D6D616E64733A205B6D5D2073E3
:10499000656C65637420326E6420736572616C208F
:1049A000656E64706F696E742E205B6F5D2053744A
:1049B0006172742047534D2E205B562F765D205335
:1049C00065742F436C72204D62757320636F6E6641
:1049D00069672070696E2E205B495D207465737471
:1049E00020415453484132303400525353493D2DF5
:1049F0002564002E35002E3000526567697374659A
:104A0000726564206F6E206E6574776F726B2C20F8
:104A100025730A00257320476F7420534D53002CD3
:104A20000044656C3A257800476F7420616E20530E
:104A30004D53207769746820696E6465782025730A
:104A40000A00413A20257300423A20257300434F63
:104A50004E4E0025782D3E25730A00434E00436FCD
:104A60006E6E656374696F6E206F70656E000920ED
:104A700054656D703A2025640A00426F6F743A20C5
:104A800025640A0D004D6275732070726F62653A7D
:104A9000004D62757320434647204352433A202518
:104AA000780A0D005374617274696E67206D6169D4
:104AB0006E2047534D2056434320726567756C61E5
:104AC000746F72005374617274696E672047534D3E
:104AD000206D6F64756C6500496E697469616C69FD
:104AE0007A696E672047534D206D6F64756C650061
:104AF0004F4B0047534D3A200052494E472120006A
:104B000072696E672120004354532000637473213F
:104B100020004F4E006F6666003C0043413A20255E
:104B200078200043423A20257820004453313858F9
:104B300032305F73746172745F6D6561733A2053D4
:104B4000686F72742043697263756974210D003156
:104B5000733A253032640D0A00253032643A00255C
:104B6000303278002A454E440D0031574572720D9F
:064B700000456E64000028
:00000001FF
