:100000008BC10000A9C10000A7C10000A5C100006C
:10001000A3C10000A1C100009FC100009DC100005C
:100020009BC1000099C1000075C7000095C1000088
:1000300093C1000091C100008FC100008DC100007C
:100040008BC1000089C1000087C1000085C100008C
:1000500083C1000081C100007FC100007DC100009C
:100060007BC100000C9455090C947E0975C10000F9
:1000700073C1000071C100006FC100006DC10000BC
:100080006BC1000069C1000067C1000065C10000CC
:1000900063C1000061C100005FC100005DC10000DC
:1000A0005BC1000059C1000057C1000055C10000EC
:1000B00053C1000051C100004FC1000011C7000032
:1000C0004BC1000049C1000047C1000045C100000C
:1000D00043C1000041C100003FC100003DC100001C
:1000E0003BC1000039C100000C94F9090C94220AAC
:1000F00033C1000031C100002FC100002DC100003C
:100100002BC1000029C1000027C1000025C100004B
:1001100023C1000021C100001FC100001DC100005B
:100120001BC1000019C1000017C1000015C100006B
:1001300013C1000011C100000FC100000DC100007B
:100140000BC1000009C1000007C1000005C100008B
:1001500003C1000001C10000FFC00000FDC000009D
:100160000C94A7090C94D009F7C00000F5C000005A
:10017000F3C00000F1C00000EFC00000EDC00000BF
:10018000EBC00000E9C00000E7C00000E5C00000CF
:10019000E3C00000E1C00000DFC00000DDC00000DF
:1001A000DBC00000D9C00000D7C00000D5C00000EF
:1001B000D3C00000D1C00000CFC00000CDC00000FF
:1001C000CBC00000C9C00000C7C00000C5C000000F
:1001D000C3C00000C1C00000BFC00000BDC000001F
:1001E000BBC00000B9C00000B7C00000B5C000002F
:1001F000B3C000000C942E13AFC00000C60EE50E75
:10020000A60FE50EA60F260F3A0FA60F820F8B0F33
:100210004877763A25782C205273743A25780A006C
:100220005469633A25640A00426F6F74206C6F61F1
:1002300064657220737461727465640A0026034CED
:100240000055004600410020004400750061006C2C
:100250000020004300440043002000440065006D7E
:10026000006F00000018034400650061006E00206C
:1002700000430061006D0065007200610000000431
:1002800003090409028300040100C032080B0002C4
:10029000020201000904000001020201000524001D
:1002A0001001042402060524060001070583030843
:1002B00000FF09040100020A000000070502021005
:1002C000000507058102100005080B020202020169
:1002D00000090402000102020100052400100104CB
:1002E0002402060524060203070586030800FF0909
:1002F000040300020A0000000705050210000507BC
:1003000005840210000512011001EF020108EB0341
:100310004E2001000102DC0111241FBECFEFCDBF32
:10032000DFE3DEBF00E00CBF12E2A0E0B0E2EAE3F0
:10033000F2E300E00BBF02C007900D92A433B107B7
:10034000D9F72DE2A4E3B2E201C01D92A53AB207AB
:10035000E1F77AD30C941B1953CE3BB78BBFFB014B
:1003600086913BBF08953BB78BBFFB018791969168
:100370003BBF089542E030C041E02EC08093C001F1
:1003800088278093C1018093C20147E015D0CB013B
:10039000089548E311C049E30FC028ED20933400CD
:1003A00021E02093CC0108952091CF0127FDFCCFBF
:1003B00022272093CA0108954093CA0128ED31E015
:1003C000209334003093CB016091C4017091C5013A
:1003D0008091C60199270895FC014093CA01849138
:1003E000089598E028E1362F382730FD02C0669541
:1003F00003C062276695606886959150A1F7862FA5
:10040000089598E0282F262720FD03C0769567954C
:1004100007C022E0622720E472277695679570680E
:100420008695915079F7CB010895EF92FF920F9343
:100430001F93CF93DF93EC017C0187E0E80EF11C62
:100440008E0160E0F80181918F01CBDF682F0E15DE
:100450001F05C1F781E09F81691301C080E0DF9132
:10046000CF911F910F91FF90EF900895E0EAF6E091
:1004700088E08183858388EB838B84E0828388E1B5
:10048000828BE0EAFBE084818861848383E085835A
:1004900083E4868386EA878308959091A10B906C0C
:1004A0009093A10B8093A00B8091A10B86FFFCCFB2
:1004B00080E491E02091A10B27FD03C001970097F4
:1004C000C9F783E48093A60B86EA8093A70B8091FB
:1004D000A00B08958FEFE1CF80E0DFCFCF93DF93C4
:1004E000D82FC8E0D0FF02C0F5DF01C0F5DFD695F8
:1004F000C150C1F7DF91CF9108958CECEFCFEF920F
:10050000FF920F931F93CF93DF931F92CDB7DEB768
:10051000182F85E59983E2DFE12E9981F92E870175
:10052000085F1F4FF70181917F01D8DFE016F106C8
:10053000C9F70F90DF91CF911F910F91FF90EF902E
:1005400008958FEFAADF91E08F3F09F090E0892FA7
:100550000895CF93DF93D8E0C0E0C695F2DF811114
:10056000C068D150D1F78C2FDF91CF910895EF92D1
:10057000FF920F931F93CF93DF931F92CDB7DEB7F8
:10058000182F83E39983AADFE12E9981F92E870141
:10059000085F1F4FDEDFF70181937F01E017F1074E
:1005A000C9F70F90DF91CF911F910F91FF90EF90BE
:1005B0000895DF92EF92FF920F931F93CF93DF93F3
:1005C000EC01E62E80EF8ADF11E0F12C01E0B9DFCB
:1005D000D82EB7DFDD2029F0811129C08881812B39
:1005E00006C09881882329F0812F809589238883EC
:1005F0000FC00E1103C0912B98830AC0E01628F497
:10060000812F80958923888302C0912309F4F02EDD
:100610008881812311F05EDF01C05EDF0F5F110F63
:1006200011F4219611E0013491F68F2D01C08FEF66
:10063000DF91CF911F910F91FF90EF90DF90089580
:100640008091A40B8F7E8093A40B8091A40B80617A
:100650008093A40B8EED8093A60B84EE8093A70B62
:1006600080EF1BDF91E0803F09F490E0892F08952F
:100670006F927F929F92AF92BF92CF92DF92EF9252
:10068000FF920F931F93CF93DF931F92CDB7DEB7E7
:100690008C01A62EFC0120E02A1579F0108280E062
:1006A00090E0DF01A80FB91F11961C9201968830C7
:1006B0009105B9F72F5F3996EFCFC2DF98012F5F11
:1006C0003F4F3901882381F1B22EC72C82E08093FD
:1006D00025067801F901D12C60E048E0942EAB2D7D
:1006E000BC2D892D01900D928A95E1F76983A8DFD1
:1006F00069818B2D9C2D5DDF682FD394F701D0820B
:100700009801F9E0DF9E200D311D11242F5F3F4F2E
:10071000882359F089E0E80EF11CDA1430F4EB2D4F
:10072000FC2DB22EC32EDBCFD12C730110E01D1592
:1007300049F0C7017ADE99E0E90EF11C811104C08D
:100740001F5FF5CF80E001C081E00F90DF91CF9176
:100750001F910F91FF90EF90DF90CF90BF90AF90DF
:100760009F907F906F900895E0E0F6E09481907FF5
:10077000982B9483089580E18093550080915000D8
:100780008061809350008091510084FFFCCF2FB78F
:10079000F89434E088ED90E0A0E4B0E01BBEFD01E9
:1007A00084BF30832FBF8FE39FE10197F1F700C033
:1007B0000000809140008091500082608093500042
:1007C0008091510081FFFCCF80915600846080931E
:1007D00056008BE18093650087EB8093660082E092
:1007E0008093CA01EDE1F0E0E491E0936200ECE176
:1007F000F0E0E491E09363001092CA0181E08093FD
:10080000600080915000846080935000809151007E
:1008100082FFFCCF8DE08093430081E08093000451
:1008200083E08093020487E08093A2008FE08093AE
:1008300001068093060680E097DF0C94F91289E0A8
:1008400093CF80E091CFCF938BE190E20E949B13F6
:10085000C82F80E090E20E949B13882321F0CC23D4
:1008600011F081E001C088E0CF917ECF8BE190E272
:100870000E94BF1480E090E20C94BF14EEEFF0E20F
:1008800080E08CBF1994089561E080E09AE08BD3FA
:10089000E0EAF0E082818160828366E080E09AE0B5
:1008A0007CD3E0E2F6E081E08183868382E081838D
:1008B0008683E0E6F6E0818308958F929F92AF925F
:1008C000BF92CF92DF92EF92FF920F931F93CF933D
:1008D000DF93CDB7DEB7A197CDBFDEBF80E2E6E301
:1008E000F0E2DE01119601900D928A95E1F7E0E8C1
:1008F000F2E2119282E2E33AF807D9F780E892E255
:100900000E94EB0C89A389A1882341F089E790E23A
:100910009F938F930E94FF150F900F9080E892E2B3
:100920009F938F9383E28F9389E592E29F938F93B6
:1009300087E28F93812C912CA12CC12CD12CE12CFE
:100940008E010F5F1F4F20E240E050E060E088E042
:100950000E94DC0D89A389A10F900F900F900F903A
:100960000F900F90882369F089A11F928F9381E8DF
:1009700090E29F938F930E94FF150F900F900F901E
:100980000F9079D789A319A28DE890E29F938F9356
:100990000E94FF150F900F9000E812E22AE9E22E64
:1009A00020E2F22EF80181918F011F928F93FF9226
:1009B000EF920E94FF150F900F900F900F90F2E2B0
:1009C000033A1F0779F78FE990E29F938F930E9474
:1009D000FF1506E510E20F900F9080E8E82E82E206
:1009E000F82EB12C9AE9C92E90E2D92EF801A190E7
:1009F0008F011F92AF92DF92CF920E94FF15F701F5
:100A000081917F010F900F900F900F908A1101C07C
:100A1000B394F0E209371F0749F783E2B81204C024
:100A20008CEA90E20E943816A196CDBFDEBFDF911E
:100A3000CF911F910F91FF90EF90DF90CF90BF90DB
:100A4000AF909F908F900895CF93DF93CDB7DEB78F
:100A50006097CDBFDEBF50907800252D2F73522EAA
:100A6000809178008F638093780080E087DC382E57
:100A7000809180008C7F816098ED94BF809380008E
:100A800094BF83E2809380008091820080FDFCCF40
:100A9000A895FADE78946FDE63EA72E28BE190E269
:100AA0000E94AB1483EA92E280939F2D9093A02D35
:100AB0008093A12D9093A22D78948FEF97EAA1E6D1
:100AC00081509040A040E1F700C00000A895CEDC26
:100AD00080E18093A1068093A506DDD485E392E2B0
:100AE000BDD5682E882319F086E392E2F9D46ED63C
:100AF00034D695D309D34DD388EB90E29F938F934F
:100B00000E94FF1580E2809305060F900F90812CC4
:100B100005E010E0412CCE0101968F87988B48E9C3
:100B2000E42E41E2F42E54ECC52E51E2D52E80E0A5
:100B300090E20E9450145C018BE190E20E945014FC
:100B4000181619060CF0F1C092E090930506823455
:100B500051F5A895A8E2B2E0BF93AF930E9410169A
:100B60008BE190E20E94F9130F900F9038EC232E46
:100B70008BE190E20E9435140E94B40F2A94C1F7D1
:100B80008091C1048E7F8093C1040E94BE12F894AC
:100B90008FEF93EDA0E381509040A040E1F700C0BB
:100BA00000006CDEC2C08F3611F48AD4BEC08F3410
:100BB00009F4BBC0863511F481E003C0863719F40F
:100BC00080E0D6D5B2C0843759F4809134221F9288
:100BD0008F93A0E2B2E0BF93AF930E94101634C08F
:100BE000883689F41F925F921F923F92A0E1B2E093
:100BF000BF93AF930E9410160F900F900F900F901D
:100C00000F900F9092C0823711F480E209C08235B4
:100C100021F480E68093060688C0833721F480E4BF
:100C20008093050682C08936A1F464E582EC93E2E4
:100C3000DBD182EC93E20DD21F928F93A9ECB0E24C
:100C4000BF93AF930E94FF150F900F900F900F90DE
:100C50006CC0893411F431DE68C0853711F4DFD2FD
:100C600064C08D36A9F41F5F19F480ED90E259C07D
:100C7000113019F48DED90E254C0123019F483EF65
:100C800090E24FC0133009F04FC08FEF90E249C09F
:100C90008A3229F485E392E2E1D4682E46C0803797
:100CA00009F03DC086E392E21BD4882341F0ACE01A
:100CB000B1E2BF93AF930E94FF150F900F908FEF9B
:100CC0009DE3A9E481509040A040E1F700C00000FE
:100CD000BE01655F7F4F86E392E298D4811125C003
:100CE0008C858F938B858F93A0E1B1E2BF93AF93F7
:100CF0000E94FF15809134229C859F939B859F9332
:100D00001F928F93A9E1B1E2BF93AF9388898F932C
:100D10009F859F930E946516CDBFDEBF06C084E20B
:100D200091E20E94381601C010E01A141B048CF4E2
:100D3000B5017727113019F482EC93E209C0123023
:100D400019F482EB92E204C0133019F48AE393E2BF
:100D50004BD182EC93E272D1882351F082EC93E282
:100D600078D1113029F4682F80E090E20E94C013FE
:100D700082EB92E263D1811106C08AE393E25ED1F5
:100D80008823D1F012C00E947D1282EB92E256D1EC
:100D9000882399F382EB92E25CD11230B1F7682F8D
:100DA00080E090E20E94C013F0CF0E947D128AE39F
:100DB00093E244D1811110C08BE190E20E9435147E
:100DC00080E090E20E9435140E94B40FA8958091B3
:100DD000342284110CC051C08AE393E23AD113301B
:100DE00031F7682F80E090E20E94C013E0CF40907E
:100DF0003422662049F0BE01635F7F4F86E392E2B2
:100E000005D486E392E26CD3809134221F928F93B3
:100E1000ADE8B1E2BF93AF930E94FF150F900F9022
:100E20000F900F90111105C06BE280E090E20E94DC
:100E3000C0136620B9F0BE01655F7F4F86E392E282
:100E4000E5D381110CC08C858F938B858F93FF9296
:100E5000EF920E94FF150F900F900F900F9086E376
:100E600092E23ED3002349F0015039F484EA91E242
:100E70000E94381680E48093050680914806881603
:100E800009F455CE80904806DF92CF920E94FF155C
:100E90000F900F9080FE08C08AEC91E29F938F9391
:100EA0000E94FF150F900F9081FE08C081ED91E226
:100EB0009F938F930E94FF150F900F9086FC03C0A5
:100EC00086ED91E202C089ED91E29F938F930E949B
:100ED000FF150F900F908AE090E00E94331627CE06
:100EE0001F920F920FB60F9211240BB60F928F9391
:100EF000EF93FF93E0E0F6E084E087838AE0868367
:100F0000FF91EF918F910F900BBE0F900FBE0F903E
:100F10001F9018951F920F920FB60F9211248F9366
:100F2000809134228F5F809334228F910F900FBE77
:100F30000F901F901895292F33272230310559F033
:100F40002330310569F021303105F9F482E190E078
:100F500026E033E01EC083E890E023E832E019C0C9
:100F600099278130910541F08230910541F0892B1C
:100F700061F4EFE7F2E005C0E5E6F2E002C0EDE380
:100F8000F2E0849190E09F0104C080E090E020E0D6
:100F900030E0FA01208331830895FC012081207F15
:100FA000622B60830895FC0126812C7F622B66836F
:100FB0000895FC01608371834283EC57FF4F1082D8
:100FC0003197108233961082319710820895FC0178
:100FD000EB57FF4F2081319690812F5F2F7381E077
:100FE000291301C080E008950F931F93CF93DF93DF
:100FF0001F92CDB7DEB78C016983E9DF6981882351
:10100000B9F0F801EB57FF4F9081D801A90FB11D3E
:10101000AD5BBF4F6C939F5F9F739083D801ED9141
:10102000FC91119793819C7F12962C91922B938324
:101030000F90DF91CF911F910F910895FC01ED5713
:10104000FF4F20813196908181E0291301C080E01B
:101050000895FC01E957FF4F108233972081DC018E
:10106000A20FB11D13968C9190819F5F9F73908307
:101070000895CF93DF93FC01ED57FF4F20812F5F41
:101080002F73DC01AC57BF4F4C91EC01A881B981A3
:101090003C913D3029F451E0DC01A957BF4F5C93EE
:1010A000241749F04081DC01A40FB11D13963C9335
:1010B000208381E001C080E0DF91CF910895CF933C
:1010C000DF93FC01EA57FF4F2081DC01AB57BF4F94
:1010D0003C91EC01A881B981321307C013968C9121
:1010E00013978C7F13968C930CC02081820F911DD7
:1010F000EC01CD5BDF4F88818C9380818F5F8F7394
:101100008083DF91CF910895CF93DF9341E060EA30
:1011100078E082EB92E24DDFC2EBD2E2E881F98126
:1011200083E085838381806383838EE286838681E7
:101130001F928F938DED91E29F938F930E94FF15E5
:10114000E881F98188E9878387811F928F9385EEF3
:1011500091E29F938F930E94FF15E881F98184812A
:1011600080618483848188608483E0E4F6E088E0A1
:101170008183858384E08283E0EAF0E08281856078
:1011800082838DB79EB708968DBF9EBFDF91CF91AA
:101190000895CF93DF9341E060EA79E08AE393E238
:1011A00008DFCAE3D3E2E881F98183E085838381A4
:1011B0008F7C8061838385EE868386811F928F93E7
:1011C0008DED91E29F938F930E94FF15E881F98145
:1011D0008CEB878387811F928F9385EE91E29F939B
:1011E0008F930E94FF15E881F98184818061848357
:1011F000848188608483E0E6F6E088E081838583EB
:1012000084E08283E0EAF0E08281816082838DB7AE
:101210009EB708968DBF9EBFDF91CF910895CF9363
:10122000DF9341E060EA7AE082EC93E2C2DEC2EC56
:10123000D3E2E881F98183E0858383818F7C8061BB
:10124000838385EC868386811F928F938DED91E257
:101250009F938F930E94FF15E881F9818CEA878321
:1012600087811F928F9385EE91E29F938F930E94C7
:10127000FF15E881F981848180618483848188609D
:101280008483E0E8F6E088E08183858384E08283DC
:10129000E0EAF0E08281816082838DB79EB7089694
:1012A0008DBF9EBFDF91CF9108951F920F920FB611
:1012B0000F9211240BB60F922F933F934F935F938E
:1012C0006F937F938F939F93AF93BF93EF93FF930E
:1012D00082EB92E2CEDEFF91EF91BF91AF919F91B1
:1012E0008F917F916F915F914F913F912F910F90CF
:1012F0000BBE0F900FBE0F901F9018951F920F926C
:101300000FB60F9211240BB60F922F933F934F936A
:101310005F936F937F938F939F93AF93BF93EF935D
:10132000FF9382EB92E2CBDEFF91EF91BF91AF9101
:101330009F918F917F916F915F914F913F912F91ED
:101340000F900BBE0F900FBE0F901F9018951F921D
:101350000F920FB60F9211240BB60F922F933F935B
:101360004F935F936F937F938F939F93AF93BF93AD
:10137000EF93FF938AE393E27CDEFF91EF91BF91BD
:10138000AF919F918F917F916F915F914F913F911D
:101390002F910F900BBE0F900FBE0F901F901895BE
:1013A0001F920F920FB60F9211240BB60F922F932C
:1013B0003F934F935F936F937F938F939F93AF93DD
:1013C000BF93EF93FF938AE393E279DEFF91EF916E
:1013D000BF91AF919F918F917F916F915F914F914D
:1013E0003F912F910F900BBE0F900FBE0F901F904B
:1013F00018951F920F920FB60F9211240BB60F92F1
:101400002F933F934F935F936F937F938F939F930C
:10141000AF93BF93EF93FF9382EC93E22ADEFF91A9
:10142000EF91BF91AF919F918F917F916F915F915C
:101430004F913F912F910F900BBE0F900FBE0F90C9
:101440001F9018951F920F920FB60F9211240BB692
:101450000F922F933F934F935F936F937F938F934D
:101460009F93AF93BF93EF93FF9382EC93E227DEBA
:10147000FF91EF91BF91AF919F918F917F916F916C
:101480005F914F913F912F910F900BBE0F900FBE28
:101490000F901F901895E0E0F6E080E68183868348
:1014A000E0E2F6E080E48583A0E4B6E088E15696C9
:1014B0008C93569780EB11968C938FEF81830895D0
:1014C00080E4E0E2F6E086832FEF83EC99E02150A0
:1014D00080409040E1F700C0000080E485830895DB
:1014E000CF93DF93EC01ACD8882339F0CE0107D835
:1014F00084E40E946E0281E009C08DEE91E29F9328
:101500008F930E94FF150F900F9080E0DF91CF9195
:101510000895FC01218130E0322F22278081282B81
:101520002E7F63E0220F331F6A95E1F746818CE03E
:1015300090E0841B9109820F931F97FF05C091953E
:1015400081959109E1E001C0E0E09C0144E036951D
:1015500027954A95E1F76AE0629FA001639F500DCD
:1015600011248F70992760E872E0869F9001879F11
:10157000300D969F300D1124E11101C03E5F232FE5
:10158000332726952695240F351FEE2319F0319524
:1015900021953109C9018A5D9D4F8930974018F026
:1015A0008FE097E20895C9010895EF92FF920F939B
:1015B0001F93CF93DF931F921F92CDB7DEB7142FE7
:1015C0006A8379830E947F028EEB0E946E026A8199
:1015D000062FE62E7981F72E60E08E2D801B811775
:1015E00058F46A830E94A902F70181937F016A81FE
:1015F0000E94F101682FF1CF862F0F900F90DF919D
:10160000CF911F910F91FF90EF900895EF92FF926D
:101610000F931F93CF93DF93CDB7DEB72997CDBF3D
:10162000DEBF7C018B010CD849E0BE016F5F7F4FAC
:10163000C701BBDFF82E811106C0CE01019669DF1C
:10164000F801808391838F2D2996CDBFDEBFDF9176
:10165000CF911F910F91FF90EF9008959F92AF92BD
:10166000BF92CF92DF92EF92FF920F931F93CF938F
:10167000DF938C01C3E064E0C8010E943803882333
:1016800041F0C150C1F78CE292E20E943816912CD1
:1016900057C020E030E0912CF801E20FF31F808169
:1016A00081119394275F3F4F24323105A9F71F9290
:1016B0009F9221E132E23F932F930E94FF150F90FA
:1016C0000F900F900F90C1E0D0E07BE1C72E72E247
:1016D000D72EE1E2AE2EE2E2BE2EF8018081882311
:1016E00029F1DF93CF93DF92CF920E94FF150F90E5
:1016F0000F900F900F90E12CF12CF801EE0DFF1DD3
:1017000081811F928F93BF92AF920E94FF15EFEFDE
:10171000EE1AFE0A0F900F900F900F90F8E0EF1660
:10172000F10459F78FE092E20E943816075F1F4FCD
:101730002196C530D10589F686E292E20E943816DC
:10174000892DDF91CF911F910F91FF90EF90DF9046
:10175000CF90BF90AF909F900895E0E6F6E088EBC1
:10176000818B82E08583818380E1858381830895F5
:10177000882321F080E180936606089580E18093BC
:1017800065060895CF92EF92FF920F93CF93DF9368
:101790001F92CDB7DEB78983C62E7A0101E09E0184
:1017A0002F5F3F4F4AE06091B12280EA94E00E94AF
:1017B000AD15882311F080EF01C080E00F90DF911C
:1017C000CF910F91FF90EF90CF900895E0EAF4E071
:1017D00010828BE4858388E08183128281E0848398
:1017E00088EC8093B12208954AE060E080EA94E0BA
:1017F0000E945D1587E0E0EAF4E083838FEB9DE5CE
:101800000197F1F700C0000080E00895FF920F9368
:101810001F93CF93DF93F62EC82FD0E02197862F0A
:101820008F1990E08C179D0764F48B010F5F1F4F99
:1018300040E080EA94E00E949815882349F0B801BE
:10184000EECF41E080EA94E00E949815811105C036
:1018500087E08093A30481E004C087E08093A30421
:1018600080E0DF91CF911F910F91FF900895AB0120
:10187000682F83E087CF40E050E060E081E082CFD6
:1018800040E050E060E080E07DCF1F93CF93DF9396
:10189000182FEB016091B12261604AE080EA94E088
:1018A0000E945D15882321F08330D1F487EE18C0A3
:1018B00040E0BE0180EA94E00E949815811102C0C8
:1018C00080EF0EC08881843050F0181740F0BE01C0
:1018D0006F5F7F4F81509ADF8111F2CF01C084EE9C
:1018E000DF91CF911F9108958FEF8093A60480918F
:1018F000A40486FFFCCF1092A6048091A40486FF66
:10190000FCCF83E08093A3046091B12261604AE040
:1019100080EA94E00E945D15811104C087E0809305
:10192000A304AECF80EF08951F93CF93DF93C62F0C
:10193000FB0120E030E09E2F9C1B9817D8F4B1915A
:1019400068E070E091E0D32FDD1FDD27DD1F220F5F
:10195000331FA1E0192F1B2309F4A0E0AD1719F0E4
:10196000A5E02A273058990F61507109611571055A
:1019700051F7E1CFFA0120833183DF91CF911F919D
:101980000895FF920F931F93CF93DF931F921F929F
:10199000CDB7DEB78C01FC01F080FA94FA94AE0169
:1019A0004F5F5F4FBC018F2DBFDFF801EF0DF11DC1
:1019B00099818081981306C09A818181981302C011
:1019C00080E001C085EE0F900F90DF91CF911F91C5
:1019D0000F91FF900895CF93DF93EC0105DF811104
:1019E00021C0BE0184E051DF81111CC08881843098
:1019F00059F48981813151F48A81833349F48B818F
:101A0000833431F480E00EC084EE03C080EF01C067
:101A100085EE2FEF35ED96E0215030409040E1F714
:101A200000C00000DF91CF910895CF93DF93EB01C9
:101A30005BDF882339F01FDFCE01CDDF811103C0CA
:101A400088EE01C080E0DF91CF9108955F926F92A0
:101A50007F928F929F92AF92BF92CF92DF92EF923E
:101A6000FF920F931F93CF93DF931F921F92CDB7D7
:101A7000DEB76C01162F7A01722EFC0180808EEF8A
:101A8000880D28EE33E0029F5001039FB00C112413
:101A9000F5E2AF0EB11CA601480F511DB60144DF9F
:101AA00003E0502E00EE6E2C5A9409F472C000230D
:101AB000C9F1B601882DDBDE082F811102C080E05C
:101AC00006C0B701812FB1DF873E71F762C087156D
:101AD00041F0EFE3FFE13197F1F700C000008F5FC5
:101AE000F6CFB3E09B2E25C0A982BA82B701812F21
:101AF000CCDE082F49815A814552510949835A83C6
:101B000029813A8126323105F0F0873E79F3043E8F
:101B100059F0C70136DF082F81112EC0F7018081EF
:101B2000853000F180E036C0B701812F7EDF811162
:101B300014C09A9409F4B8CFF7018E2F8619811733
:101B400098F61192FACF873E11F7B701812F6DDF1A
:101B5000873E09F0A9CF87EE1DC0883E09F4A4CFC7
:101B600084EE18C0F7018181833079F08F3079F0ED
:101B70008F3FC1F604ED98CFB701812F56DF882340
:101B8000C1F2883E09F490CF04C082ED03C083ED1A
:101B900001C0802F0F900F90DF91CF911F910F9177
:101BA000FF90EF90DF90CF90BF90AF909F908F907D
:101BB0007F906F905F9008952F923F924F925F9227
:101BC0006F927F928F929F92AF92BF92CF92DF924D
:101BD000EF92FF920F931F93CF93DF931F921F9269
:101BE000CDB7DEB7962F222EB801498C5A8C1B8DAB
:101BF0008631B1F190F4883079F128F48130A1F187
:101C00008230B9F13EC08231C1F18531F1F08131CC
:101C1000C1F513E20CE22AE141C08C31A1F138F4A4
:101C20008731B1F08B3169F513E209E220C08832C7
:101C300039F0803341F0803221F514E003E01FC019
:101C400014E00BE10BC017E010C014E001E20FC07C
:101C500014E004E124E022C013E208E12BE01EC0FE
:101C60009330A9F414E014C014E002E016C02AE096
:101C700015C097FF10C013E20FC014E007E223E085
:101C80000DC006E40AC014E002E32DE007C013E231
:101C900008E225E103C017E004E020E03E2D3A0D04
:101CA000320D3983395FF20130838183928343831C
:101CB0003201F5E06F0E711CF2015483222041F0D5
:101CC000312CA101C3012A8391D7620C731C2A8194
:101CD000EE2049F0F12CA701B601C3012A8386D773
:101CE0006E0C7F1C2A81AA2049F0B12CA501B401F9
:101CF000C3012A837BD76A0C7B1C2A81A301B20112
:101D000089818B5F2A8310DE2A814C8D5D8D612F46
:101D1000C2019CDE0F900F90DF91CF911F910F9128
:101D2000FF90EF90DF90CF90BF90AF909F908F90FB
:101D30007F906F905F904F903F902F9008950F93FA
:101D40001F93CF93DF93CDB7DEB7EA97CDBFDEBF4A
:101D50000FE414E238D2F80181938F01F4E20735E1
:101D60001F07C1F70E943604A1D2882309F4EEC0F0
:101D700020914F2430915024832F90E08A30910598
:101D800008F0E4C0FC01E250FF4F2AC7203891F070
:101D9000223809F0DBC0809153248F7034D2E09157
:101DA0005924F0915A24118112FB112710F980E077
:101DB0002AD206C010914B2480914C2481111260CC
:101DC0008ED2812F10D280E0A2C0822F8D7F09F0A9
:101DD000BDC0222319F0223061F0B8C08091512497
:101DE000813009F0B3C0333009F080E080934C2497
:101DF00029C080915124811125C0109153241F7056
:101E000009F4A4C0812FFFD180915024833011F4B4
:101E100092D218C0A0915924B0915A2411968C9155
:101E200011978B7F11968C9324E8129FF001112457
:101E3000E356FB4D1082E0915924F0915A248081A1
:101E40008E7F808380E0DFD14AD263C021117EC0C3
:101E5000109151241F7743D239D303D28823E9F359
:101E60001093C304112311F083E001C082E080933A
:101E70004E246CC02058223008F068C08091512454
:101E8000909152248C3DE3E09E0761F583E08A83C4
:101E90008AE389834FB7F894DE01139620E038E097
:101EA00052E05093CA01E32FF0E0E4911092CA018E
:101EB00020FF03C0E295EF703F5FEF708E2F90E040
:101EC000EA3010F0C79601C0C0968D939D932F5FA6
:101ED0002C3139F74FBF03D26AE370E0CE0101968F
:101EE00054D00EC0AE014F5F5F4F6091532423D892
:101EF0008C01009759F1F3D1B80189819A81BFD043
:101F000053D124C0203811F5EAD180914A246BD1F5
:101F100032D1DCD21BC0211119C0809151248230F2
:101F2000A8F4DDD18091512480934A24CFD28091AE
:101F30004A24811104C08091C304882311F084E0F5
:101F400001C081E080934E240E942304AFD18823F6
:101F500011F0C5D1F0D1EA96CDBFDEBFDF91CF91B0
:101F60001F910F9108950895CF9380914E24882357
:101F700051F0C0915B2480E046D198D18111DFDE21
:101F80008C2FCF9140C1CF910895DF92EF92FF92B5
:101F90000F931F93CF93DF93182F092FEB0180919D
:101FA0005B24806830D120915524309156242C1721
:101FB0003D0720F0209719F4DED001C0E901E12EA1
:101FC000F02ED12C209709F440C080914E2481112D
:101FD00002C082E04CC0853011F483E048C066D175
:101FE000882311F081E043C048D181113CC039D130
:101FF000882341F320915B248091572490915824A9
:10200000FC0127FF05C0EF5BFF4F008110E013C00C
:10201000E05CFF4F00813196808110E0081B1109C0
:102020000AC00830110548F4F70181917F01DBD027
:1020300021970F5F1F4F2097A1F7DD24D39408301D
:10204000110509F0D12C97D0BDCFD110BECF0BC058
:1020500080914E24882309F4BCCF853009F4BDCF8C
:1020600025D18111BFCF09D1882391F380E0DF9181
:10207000CF911F910F91FF90EF90DF900895DF9225
:10208000EF92FF920F931F93CF93DF93182F092F97
:10209000EB0180915B248068B6D02091552430916B
:1020A00056242C173D0720F0209719F464D001C066
:1020B000E901E12EF02ED12C209709F442C0809145
:1020C0004E24811102C082E04EC0853011F483E0BD
:1020D0004AC0ECD0882311F081E045C0CED08111F8
:1020E0003EC0BFD0882341F320915B2480915724C8
:1020F00090915824FC0127FF05C0EF5BFF4F008142
:1021000010E015C0E05CFF4F00813196808110E047
:10211000081B11090CC00830110558F4F70184910F
:1021200062D0FFEFEF1AFF0A21970F5F1F4F209732
:1021300091F7DD24D3940830110509F0D12C1BD080
:10214000BBCFD110BCCF0BC080914E24882309F4A3
:10215000BACF853009F4BBCFA9D08111BDCF8DD0C6
:10216000882391F380E0DF91CF911F910F91FF9031
:10217000EF90DF900895E0915924F0915A24A091B6
:102180005724B0915824AF5BBF4F8C9190E082836D
:10219000938380818D798083E0915724F091582436
:1021A000EF5BFF4F10820895E0915924F0915A247B
:1021B00080818D798083E0915724F0915824EF5BE2
:1021C000FF4F108208958091572490915824FC016C
:1021D000EF5BFF4F208131E0320F3083FC01E20FD3
:1021E000F11D808108952091572430915824F901E0
:1021F000EF5BFF4F908141E0490F4083F901E90F08
:10220000F11D8083089580935B24482F4F7094E8DC
:10221000499F90011124245A3B4D6091C60470914E
:10222000C70490E1499FA001112487FF0FC02E5BD6
:102230003F4F2093572430935824CA010896860FA5
:10224000971F8093592490935A24089520935724DC
:1022500030935824460F571F4093592450935A24C3
:10226000089580915B248068CEDFE0915924F0913D
:102270005A24808186958170089580915B248F77A0
:10228000C2DFE0915924F0915A24808185FF0CC06F
:10229000209157243091582482819381F901E05C88
:1022A000FF4F808381E0089580E0089580915B2452
:1022B0008F77A9DFE0915924F0915A24808184FF1F
:1022C0000CC0209157243091582482819381F901C8
:1022D000E05CFF4F808381E0089580E00895809165
:1022E0005B248F7790DFE0915924F0915A2480810C
:1022F0008D788083E0915924F0915A248081816007
:102300008083E0915724F0915824EF5BFF4F1082B7
:1023100080915B24806877DFE0915924F0915A2402
:10232000808181608083E0915724F0915824EF5B95
:10233000FF4F10820895E0915924F0915A24818131
:1023400084608183E0915924F0915A248181807CBA
:10235000803459F480915B24805855DFE0915924F2
:10236000F0915A2481818460818308951F93CF93D3
:10237000DF931F921F92CDB7DEB7182F4A83698370
:1023800042DFE0915924F0915A241182E0915924BE
:10239000F0915A24812F881F8827881F880F8083F7
:1023A000E0915924F0915A2469816183E091592484
:1023B000F0915A241282138220915724309158248C
:1023C00024833583110F110B4A811423F901E05C3A
:1023D000FF4F10833196108281E00F900F90DF91B4
:1023E000CF911F910895AF92BF92DF92EF92FF922B
:1023F0000F931F93CF93DF931F92CDB7DEB7D62EE7
:102400005C01F12CFD14D9F1F501E080EE2091F191
:102410000181128183819481923010F048E101C0E2
:1024200048E028E030E090E02017310720F49F5F7B
:10243000220F331FF9CF942B9F7E0134110510F02A
:1024400080E01EC0882321F0813021F4906C0CC004
:10245000906403C09068811107C0402F692F80E805
:102460008E0D998383DF9981402F692F8E2D7EDF1A
:10247000882331F3F394F5E0AF0EB11CC3CF81E0B4
:102480000F90DF91CF911F910F91FF90EF90DF9010
:10249000BF90AF90089580E090E0E091C604F09185
:1024A000C7049C0164E0220F331F6A95E1F7E20F35
:1024B000F31F1186E091C604F091C704E20FF31FE9
:1024C000118201968031910541F7089580914F2442
:1024D00087FD04C0C6DE882351F00EC0CEDE811118
:1024E00005C080914E248111F9CF08955DCE809171
:1024F0004E248111EFCF08953ECE1F93CF93DF93EB
:10250000E091C604F091C704F395C081D18114E62F
:1025100080915B248078803851F4A3DE811105C05E
:1025200080914E24811105C020C080E023C0A5DE2B
:10253000F5CF8530E1F0E0915924F0915A24818162
:1025400082FD17C0E091C604F091C704F395808125
:1025500091818C179D07E1F22FEF210F112319F0C4
:10256000EC01122FD5CF84E005C082E003C083E0E8
:1025700001C081E0DF91CF911F91089562D068D0B2
:10258000E0ECF4E081818E7F818380818F7780838E
:1025900010924D240895CF93DF93E0E4F0E014828D
:1025A0008481836084834DD053D0C0ECD4E0888193
:1025B0008F77888388818068888310924E24109258
:1025C0004A2410924C2410924B2488818064888382
:1025D00048E068E480E8CADE48E068E480E0C6DEFF
:1025E000888580648887898181608983DF91CF9124
:1025F00008952FB7F89482E0E0ECF1E08287EAE1F9
:10260000F0E0E491A0ECB4E0DA96EC93DA97EBE139
:10261000F0E0E491DB96EC93DB97E0ECF1E01286DE
:102620008DE99CE28E7F16968D939C9317978FE190
:102630008C9383E018968C932FBF81E080934D2478
:10264000AACFE0ECF4E0808583708087118608953E
:10265000E0ECF4E08FEF8287848708951F920F9259
:102660000FB60F9211240BB60F922F933F934F93F7
:102670005F936F937F938F939F93AF93BF93EF93EA
:10268000FF938091CA0487FF08C08091C80487FF28
:1026900004C080E88093CA0466DC8091CA0486FF87
:1026A00007C080E48093CA0410924E240E94210443
:1026B0008091CA0485FF14C080E28093CA0480918F
:1026C0004A24882311F084E007C08091C304882342
:1026D00011F083E001C081E080934E240E941F042A
:1026E0008091CA0484FF14C080E18093CA0482E010
:1026F00080934E2410924A241092C304CCDE48E00A
:1027000068E480E833DE48E068E480E02FDE2BDC1C
:10271000FF91EF91BF91AF919F918F917F916F91B9
:102720005F914F913F912F910F900BBE0F900FBE75
:102730000F901F901895CF93DF93EC01FC017096DA
:102740008BE0DF011D928A95E9F782E08C8389870F
:1027500083E08E8761E0CE01019645DE882361F03B
:1027600061E0CE0106963FDE882331F061E0CE01C4
:102770000B96DF91CF9137CE80E0DF91CF91089516
:10278000CF93FC01C62F80914E248430F9F4448904
:10279000558966897789452B462B472BB9F081816E
:1027A00032DD2091572430915824F901EF5BFF4F1F
:1027B000908131978081981720F48C2F14DD80E070
:1027C00006C0D9DC9ADE8823C1F301C082E0CF9134
:1027D0000895FB01682F84859585D2DF21E030E0E4
:1027E000811102C020E030E088279927821B930BDB
:1027F0000895CF93DF9320914E24243091F5FC016E
:102800004489558966897789452B462B472B49F1A1
:102810008181F9DC20915B24809157249091582488
:10282000FC0127FF05C0EF5BFF4F208130E008C0AF
:10283000E05CFF4F20813196408130E0241B31095C
:10284000232B69F0FC01EF5BFF4FD0813197C081F2
:1028500092DCDC1720F051DE811104C08CDC80E0BA
:1028600001C082E0DF91CF910895CF93DF93EC0117
:1028700080914E24843089F44C895D896E897F89EA
:10288000452B462B472B49F08981BDDCEADC8823A8
:1028900021F0CE01DF91CF91ACCFDF91CF910895A0
:1028A000CF93DF9320914E24243019F08FEF9FEFC8
:1028B00046C0FC014489558966897789452B462B9A
:1028C000472BA1F386819FDCD8DC882379F38091A4
:1028D0005B242091572430915824F90187FF05C0CB
:1028E000EF5BFF4F808190E008C0E05CFF4F80818C
:1028F0003196208190E0821B9109892B21F063DCC5
:10290000C82FD0E002C0CFEFDFEF80915B24209191
:10291000572430915824F90187FF05C0EF5BFF4F22
:10292000808190E008C0E05CFF4F8081319620817B
:1029300090E0821B9109892B09F436DCCE01DF91EE
:10294000CF910895FC0184859585AADF97FF02C089
:102950008EEF9FEF0895FB012EE0DB011D922A957B
:10296000E9F723E0238329EE33E12087318722EA48
:1029700034E1228733878487958708950895FF92ED
:102980000F931F93CF93DF93EC0190DC882309F41E
:102990008EC0888190E020915324309154242817D0
:1029A000390709F084C080915024813259F018F41D
:1029B000803249F17CC0823209F457C0833209F475
:1029C00067C075C080914F24813A09F070C087DCE0
:1029D00048DC8823E9F38C89FD880E891F8903DC94
:1029E0008F2D01DC802FFFDB812FFDDB888DFBDB52
:1029F000898DF9DB8A8DF7DBBEDBDF91CF911F91EB
:102A00000F91FF9063CD80914F24813209F04FC028
:102A100066DC33DC811105C080914E248111F9CF31
:102A200046C0D1DB082FCFDB182FCDDBF82ECBDB58
:102A30004F2D50E060E070E0BA0155274427782B15
:102A4000402B512B4C8B5D8B6E8B7F8BBCDB888F2F
:102A5000BADB898FB8DB8A8FA7DB38DDCE01DF9147
:102A6000CF911F910F91FF9089CF80914F24813298
:102A7000F1F435DC2BDD8091512490915224888B28
:102A8000998BCE01DF91CF911F910F91FF9076CF5F
:102A900080914F24813259F422DC18DD6091512459
:102AA000CE01DF91CF911F910F91FF9067CFDF9102
:102AB000CF911F910F91FF900895FC01668384E6EA
:102AC000489FA0011124848141155105B9F0982F28
:102AD0009874983411F466830AC0982F90759035D5
:102AE00021F487E0838383E00895807C61F48AE6A3
:102AF0008A95F1F700C041505109E5CF85FF05C027
:102B000087E0838302C080E0089582E00895FC019D
:102B10006783848186FFFDCF848186FF06C0848120
:102B20008295817091E0892701C080E081700895CD
:102B3000FC0184818C708C3071F0848187FFFDCF23
:102B40008781DB018C93442311F087E001C082E090
:102B5000838381E0089580E008958F929F92AF92E1
:102B6000BF92CF92EF92FF920F931F93CF93DF9379
:102B70001F921F92CDB7DEB75C016E7F29833A8327
:102B80009CDF182F29813A8181111BC04901020F56
:102B9000081541F0F40161914F01C501B8DF8111C1
:102BA000F7CF15E04701EC0CE81441F0F401619116
:102BB0004F01C501ACDF8111F7CF15E087E0F501CA
:102BC0008383812F0F900F90DF91CF911F910F91F1
:102BD000FF90EF90CF90BF90AF909F908F9008950F
:102BE000EE0FFF1F0590F491E02D1994FB01DC011D
:102BF00002C001900D9241505040D8F70895CF93F4
:102C0000DF93CDB7DEB7FE01369661917191AF01CA
:102C10008091A12D9091A22D80D0DF91CF91089528
:102C20000F931F93CF93DF93CDB7DEB7FE01389696
:102C30006191719101EA1DE2D8018D919C91DC01B5
:102C400013962C911397286013962C93AF0165D09F
:102C5000D801ED91FC912381277F2383DF91CF91D0
:102C60001F910F9108956091A12D7091A22D53C2D3
:102C70000F931F93CF93DF93E091A12DF091A22D9D
:102C8000238121FF1BC0EC0100E010E089916091DD
:102C9000A12D7091A22DDB011896ED91FC91199751
:102CA000882331F01995892B89F30FEF1FEFEECFB1
:102CB0008AE01995892B11F4C80102C08FEF9FEFAC
:102CC000DF91CF911F910F9108950F931F93CF9391
:102CD000DF93CDB7DEB72E97CDBFDEBF0E891F893C
:102CE00086E08C8309831A838FEF9FE78D839E8311
:102CF000AE01465E5F4F688D798DCE0101960DD095
:102D0000EF81F885E00FF11F10822E96CDBFDEBF58
:102D1000DF91CF911F910F9108952F923F924F9283
:102D20005F926F927F928F929F92AF92BF92CF925B
:102D3000DF92EF92FF920F931F93CF93DF93CDB764
:102D4000DEB72C97CDBFDEBF7C016B018A01FC0191
:102D500016821782838181FFB0C1CE0101964C019A
:102D6000F7019381F60193FD859193FF81916F01A6
:102D7000882309F49EC1853239F493FD859193FF30
:102D800081916F01853221F4B70190E0C4D1E8CF81
:102D9000512C312C20E02032A0F48B3269F030F439
:102DA000803259F0833269F420612CC08D3239F0C1
:102DB000803339F4216026C02260246023C028605B
:102DC00021C027FD27C030ED380F3A3078F426FFB8
:102DD00006C0FAE05F9E300D1124532E13C08AE026
:102DE000389E300D1124332E20620CC08E3221F417
:102DF00026FD5FC1206406C08C3611F4206802C035
:102E0000883641F4F60193FD859193FF81916F011E
:102E10008111C1CF982F9F7D9554933028F40C5F7A
:102E20001F4FFFE3F9830DC0833631F0833771F014
:102E3000833509F057C021C0F801808189830E5F76
:102E40001F4F44244394512C540114C03801F2E024
:102E50006F0E711CF801A080B18026FF03C0652DA4
:102E600070E002C06FEF7FEFC5012C8749D12C01C4
:102E700083012C852F77222E16C03801F2E06F0EC9
:102E8000711CF801A080B18026FF03C0652D70E0A1
:102E900002C06FEF7FEFC5012C8727D12C012C8555
:102EA0002068222E830123FC19C0832D90E0481650
:102EB0005906A0F4B70180E290E02DD13A94F5CF05
:102EC000F50127FC859127FE81915F01B70190E014
:102ED00022D131103A94F1E04F1A510841145104B3
:102EE00079F7DEC0843611F0893631F5F80127FF15
:102EF00007C060817181828193810C5F1F4F08C080
:102F000060817181882777FD8095982F0E5F1F4F14
:102F10002F76B22E97FF09C0909580957095619598
:102F20007F4F8F4F9F4F2068B22E2AE030E0A401E0
:102F300024D1A82EA81843C0853729F42F7EB22E9D
:102F40002AE030E025C0F22FF97FBF2E8F36C1F086
:102F500018F4883579F0ADC0803719F0883721F042
:102F6000A8C02F2F2061B22EB4FE0DC08B2D84601F
:102F7000B82E09C024FF0AC09F2F9660B92E06C044
:102F800028E030E005C020E130E002C020E132E07E
:102F9000F801B7FE07C060817181828193810C5F67
:102FA0001F4F06C06081718180E090E00E5F1F4F6F
:102FB000A401E3D0A82EA818FB2DFF77BF2EB6FEE4
:102FC0000BC02B2D2E7FA51450F4B4FE0AC0B2FC0A
:102FD00008C02B2D2E7E05C07A2C2B2D03C07A2CF9
:102FE00001C0752C24FF0DC0FE01EA0DF11D80818A
:102FF000803311F4297E09C022FF06C073947394B4
:1030000004C0822F867809F0739423FD12C020FF3C
:1030100006C05A2C731418F4530C5718732C7314DD
:1030200060F4B70180E290E02C8775D073942C8512
:10303000F6CF731410F4371801C0312C24FF11C0DF
:10304000B70180E390E02C8766D02C8522FF16C064
:1030500021FF03C088E590E002C088E790E0B70157
:103060000CC0822F867851F021FD02C080E201C0A1
:103070008BE227FD8DE2B70190E04DD0A51430F42E
:10308000B70180E390E047D05A94F8CFAA94F401B6
:10309000EA0DF11D8081B70190E03DD0A110F6CF7F
:1030A000332009F45DCEB70180E290E034D03A9449
:1030B000F7CFF7018681978102C08FEF9FEF2C96A3
:1030C000CDBFDEBFDF91CF911F910F91FF90EF90A9
:1030D000DF90CF90BF90AF909F908F907F906F9038
:1030E0005F904F903F902F900895FC0105906150A4
:1030F00070400110D8F7809590958E0F9F1F08950E
:10310000FC016150704001900110D8F780959095B6
:103110008E0F9F1F08950F931F93CF93DF93182F48
:10312000092FEB018B8181FD03C08FEF9FEF20C042
:1031300082FF10C04E815F812C813D814217530771
:103140007CF4E881F9819F012F5F3F4F2883398309
:10315000108306C0E885F985812F1995892B29F7F9
:103160002E813F812F5F3F4F2E833F83812F902FF2
:10317000DF91CF911F910F910895FA01AA2728306E
:1031800051F1203181F1E8946F936E7F6E5F7F4F34
:103190008F4F9F4FAF4FB1E03ED0B4E03CD0670FB0
:1031A000781F891F9A1FA11D680F791F8A1F911D03
:1031B000A11D6A0F711D811D911DA11D20D009F453
:1031C00068943F912AE0269F11243019305D319395
:1031D000DEF6CF010895462F4770405D4193B3E07E
:1031E0000FD0C9F7F6CF462F4F70405D4A3318F025
:1031F000495D31FD4052419302D0A9F7EACFB4E0D6
:10320000A6959795879577956795BA95C9F700978D
:103210006105710508959B01AC010A2E069457952E
:10322000479537952795BA95C9F7620F731F841F85
:0A323000951FA01D0895F894FFCF2C
:10323A000284100000010510000001860800000148
:10324A0000000000000000000000000081100000E3
:10325A0001021000000183080000010000000000C4
:10326A000000000000000011223344556677889957
:10327A00AABBCCDDEEFF001122334455667788994C
:10328A00AABBCCDDEEFF230667004F284D6E98627D
:10329A0004F460A3E8758A5985A67996C48A884693
:1032AA00434EB3DB58A4FBE57357616B65457272F5
:1032BA00004578656345727220257820000A5265B8
:1032CA0073706F6E73653A20090025782C20000A06
:1032DA0045787065637465643A2009000A49646533
:1032EA006E746963616C21000A5374617274207090
:1032FA00726563686172676500523A20256320002F
:10330A0053657269616C3A204E6F6E65005365723F
:10331A0069616C3A2045787465726E616C20285038
:10332A0036290053657269616C3A2047534D005340
:10333A00657269616C3A204D62757300534F4B0098
:10334A0054656D703A2025640021253034642D259A
:10335A0030346400436F6D6D616E64733A205B6D47
:10336A005D2073656C65637420326E6420736572C8
:10337A00616C20656E64706F696E742E205B6F5D80
:10338A002053746172742047534D2E205B562F765A
:10339A005D205365742F436C72204D6275732063F0
:1033AA006F6E6669672070696E2E205B495D2074B6
:1033BA006573742041545348413230340054696370
:1033CA006B3A202530336400092054656D703A2029
:1033DA0025640A005374617274696E67206D6169AD
:1033EA006E2047534D2056434320726567756C61C2
:1033FA00746F720047534D3A200052494E472120BC
:10340A000043545320004F4E006F66660043413A12
:10341A00202578200043423A202578200044533161
:10342A00385832305F73746172745F6D6561733AD4
:10343A002053686F72742043697263756974210D31
:10344A000031733A253032640D0A00253032643A6D
:10345A000025303278002A454E440D003157457216
:04346A00720D0000DF
:00000001FF
