:1000000049C2000067C2000065C2000063C2000070
:1000100061C200005FC200005DC200005BC2000060
:1000200059C2000057C200000C947E0853C2000061
:1000300051C200004FC200004DC200004BC2000080
:1000400049C2000047C2000045C2000043C2000090
:1000500041C200003FC200003DC200003BC20000A0
:1000600039C200000C94490A0C94720A33C2000091
:1000700031C200002FC200002DC200002BC20000C0
:1000800029C2000027C2000025C2000023C20000D0
:1000900021C200001FC200001DC200001BC20000E0
:1000A00019C2000017C2000015C2000013C20000F0
:1000B00011C200000FC200000DC200000C946408C1
:1000C00009C2000007C2000005C2000003C2000010
:1000D00001C20000FFC10000FDC10000FBC1000023
:1000E000F9C10000F7C100000C94ED0A0C94160B46
:1000F000F1C10000EFC10000EDC10000EBC1000044
:10010000E9C10000E7C10000E5C10000E3C1000053
:10011000E1C10000DFC10000DDC10000DBC1000063
:10012000D9C10000D7C10000D5C10000D3C1000073
:10013000D1C10000CFC10000CDC10000CBC1000083
:10014000C9C10000C7C10000C5C10000C3C1000093
:10015000C1C10000BFC10000BDC10000BBC10000A3
:100160000C949B0A0C94C40AB5C10000B3C10000F2
:10017000B1C10000AFC10000ADC10000ABC10000C3
:10018000A9C10000A7C10000A5C10000A3C10000D3
:10019000A1C100009FC100009DC100009BC10000E3
:1001A00099C1000097C1000095C1000093C10000F3
:1001B00091C100008FC100008DC100008BC1000003
:1001C00089C1000087C1000085C1000083C1000013
:1001D00081C100007FC100007DC100007BC1000023
:1001E00079C1000077C1000075C1000073C1000033
:1001F00071C100000C944A166DC10000E11100129B
:10020000C2120012C21241125512C2129E12A7123D
:100210004877763A25782C205273743A25780A006C
:100220005469633A25640A00426F6F74206C6F61F1
:1002300064657220737461727465640A0026034CED
:100240000055004600410020004400750061006C2C
:100250000020004300440043002000440065006D7E
:10026000006F00000018034400650061006E00206C
:1002700000430061006D0065007200610000000431
:1002800003090409028300040100C032080B0002C4
:10029000020201000904000001020201000524001D
:1002A0001001042402060524060001070583030843
:1002B00000FF09040100020A000000070502021005
:1002C000000507058102100005080B020202020169
:1002D00000090402000102020100052400100104CB
:1002E0002402060524060203070586030800FF0909
:1002F000040300020A0000000705050210000507BC
:1003000005840210000512011001EF020108EB0341
:100310004E2001000102DC016F046A0466045B04E4
:10032000510445042D041304F303D503C003AB03A8
:10033000890382037A0371036803600356034C0345
:10034000420341545E534953543D300041545E537F
:1003500049534F3D300041545E534953433D3000B3
:1003600041542B434D474C0041542B434D47443D92
:100370000041542B434D47523D0041545E534D5371
:100380004F0041542B4353510041545E5349535342
:100390003D302C414444524553532C227777772EDD
:1003A000686F6A2E6E753A3830220041545E5349A8
:1003B00053533D302C414C5048414245542C310060
:1003C00041545E534943533D302C414C50484142C7
:1003D00045542C310041545E534953533D302C5306
:1003E0005256545950452C5452414E535041524547
:1003F0004E540041545E534943533D302C61706E5E
:100400002C226F6E6C696E652E74656C69612E733B
:1004100065220041545E534943533D302C22696E9E
:10042000616374544F222C20223230220041545EEA
:10043000534943533D302C636F6E547970652C479C
:10044000505253300041542B434E4D493D322C31D4
:100450000041542B435245473D320041545E5353B3
:10046000594E433D310041544900415456300041FA
:10047000544530002046573A200020666F756E6460
:100480002E2048573A20005243313138302D4D420A
:100490005553000011241FBECFEFCDBFDFE3DEBFF9
:1004A00000E00CBF12E2A0E0B0E2E2E4F8E300E01A
:1004B0000BBF02C007900D92A634B107D9F72EE208
:1004C000A6E4B2E201C01D92AB31B207E1F77BD3E3
:1004D0000C941F1C95CD3BB78BBFFB0186913BBF96
:1004E00008953BB78BBFFB01879196913BBF089561
:1004F00042E030C041E02EC08093C0018827809345
:10050000C1018093C20147E015D0CB01089548E3B3
:1005100011C049E30FC028ED2093340021E020935F
:10052000CC0108952091CF0127FDFCCF22272093F5
:10053000CA0108954093CA0128ED31E020933400A8
:100540003093CB016091C4017091C5018091C601C7
:1005500099270895FC014093CA018491089598E079
:1005600028E1362F382730FD02C0669503C0622788
:100570006695606886959150A1F7862F089598E05A
:10058000282F262720FD03C07695679507C022E017
:10059000622720E47227769567957068869591505A
:1005A00079F7CB010895EF92FF920F931F93CF93AA
:1005B000DF93EC017C0187E0E80EF11C8E0160E026
:1005C000F80181918F01CBDF682F0E151F05C1F750
:1005D00081E09F81691301C080E0DF91CF911F917D
:1005E0000F91FF90EF900895E0EAF6E088E08183B4
:1005F000858388EB838B84E0828388E1828BE0EAC9
:10060000FBE084818861848383E0858383E486833F
:1006100086EA878308959091A10B906C9093A10B2B
:100620008093A00B8091A10B86FFFCCF80E491E02A
:100630002091A10B27FD03C001970097C9F783E420
:100640008093A60B86EA8093A70B8091A00B089558
:100650008FEFE1CF80E0DFCFCF93DF93D82FC8E0DB
:10066000D0FF02C0F5DF01C0F5DFD695C150C1F75C
:10067000DF91CF9108958CECEFCFEF92FF920F9323
:100680001F93CF93DF931F92CDB7DEB7182F85E569
:100690009983E2DFE12E9981F92E8701085F1F4FD0
:1006A000F70181917F01D8DFE016F106C9F70F90BD
:1006B000DF91CF911F910F91FF90EF9008958FEFF1
:1006C000AADF91E08F3F09F090E0892F0895CF9342
:1006D000DF93D8E0C0E0C695F2DF8111C068D15049
:1006E000D1F78C2FDF91CF910895EF92FF920F9366
:1006F0001F93CF93DF931F92CDB7DEB7182F83E3FD
:100700009983AADFE12E9981F92E8701085F1F4F97
:10071000DEDFF70181937F01E017F107C9F70F9042
:10072000DF91CF911F910F91FF90EF900895DF928D
:10073000EF92FF920F931F93CF93DF93EC01E62E7E
:1007400080EF8ADF11E0F12C01E0B9DFD82EB7DFAE
:10075000DD2029F0811129C08881812B06C0988174
:10076000882329F0812F8095892388830FC00E115B
:1007700003C0912B98830AC0E01628F4812F80953E
:100780008923888302C0912309F4F02E8881812374
:1007900011F05EDF01C05EDF0F5F110F11F42196D3
:1007A00011E0013491F68F2D01C08FEFDF91CF91D1
:1007B0001F910F91FF90EF90DF9008958091A40B0F
:1007C0008F7E8093A40B8091A40B80618093A40BF7
:1007D0008EED8093A60B84EE8093A70B80EF1BDF3A
:1007E00091E0803F09F490E0892F08956F927F9205
:1007F0009F92AF92BF92CF92DF92EF92FF920F93B0
:100800001F93CF93DF931F92CDB7DEB78C01A62E37
:10081000FC0120E02A1579F0108280E090E0DF01F1
:10082000A80FB91F11961C92019688309105B9F74F
:100830002F5F3996EFCFC2DF98012F5F3F4F39010D
:10084000882381F1B22EC72C82E08093250678019F
:10085000F901D12C60E048E0942EAB2DBC2D892D00
:1008600001900D928A95E1F76983A8DF69818B2D4C
:100870009C2D5DDF682FD394F701D0829801F9E0B9
:10088000DF9E200D311D11242F5F3F4F882359F02B
:1008900089E0E80EF11CDA1430F4EB2DFC2DB22EB9
:1008A000C32EDBCFD12C730110E01D1549F0C70119
:1008B0007ADE99E0E90EF11C811104C01F5FF5CFCB
:1008C00080E001C081E00F90DF91CF911F910F91E7
:1008D000FF90EF90DF90CF90BF90AF909F907F9070
:1008E0006F900895E0E0F6E09481907F982B9483D8
:1008F000089580E18093550080915000806180933D
:1009000050008091510084FFFCCF2FB7F89434E061
:1009100088ED90E0A0E4B0E01BBEFD0184BF308311
:100920002FBF8FE39FE10197F1F700C00000809196
:10093000400080915000826080935000809151006F
:1009400081FFFCCF809156008460809356008BE13C
:100950008093650087EB8093660082E08093CA01F4
:10096000EDE1F0E0E491E0936200ECE1F0E0E4918D
:10097000E09363001092CA0181E08093600080914F
:1009800050008460809350008091510082FFFCCF22
:100990008DE08093430081E08093000483E08093A6
:1009A000020487E08093A2008FE080930106809389
:1009B000060680E097DF0C94151689E093CF80E05F
:1009C00091CFCF938BE190E20E94B716C82F80E0C1
:1009D00090E20E94B716882321F0CC2311F081E029
:1009E00001C088E0CF917ECF8BE190E20E94DB17BF
:1009F00080E090E20C94DB17EEEFF0E280E08CBF39
:100A00001994089561E080E09AE0C1D3E0EAF0E053
:100A100082818160828366E080E09AE0B2D3E0E286
:100A2000F6E081E08183868382E081838683E0E64D
:100A3000F6E0818308958F929F92AF92BF92CF92FA
:100A4000DF92EF92FF920F931F93CF93DF93CDB777
:100A5000DEB7A197CDBFDEBF80E2E6E3F0E2DE01C4
:100A6000119601900D928A95E1F7E2E9F2E2119276
:100A700082E2E53BF807D9F782E992E20E9406108C
:100A800089A389A1882341F089E790E29F938F93FE
:100A90000E944D190F900F9082E992E29F938F93DD
:100AA00083E28F938BE692E29F938F9387E28F93FB
:100AB000812C912CA12CC12CD12CE12C8E010F5F0B
:100AC0001F4F20E240E050E060E088E00E94F71015
:100AD00089A389A10F900F900F900F900F900F9006
:100AE000882369F089A11F928F9381E890E29F93F8
:100AF0008F930E944D190F900F900F900F900E94AE
:100B0000560F89A319A28DE890E29F938F930E94BC
:100B10004D190F900F9002E912E22AE9E22E20E22D
:100B2000F22EF80181918F011F928F93FF92EF9225
:100B30000E944D190F900F900F900F90F2E2053B1D
:100B40001F0779F78FE990E29F938F930E944D19C9
:100B500006E510E20F900F9082E9E82E82E2F82E6F
:100B6000B12C9AE9C92E90E2D92EF801A1908F01FB
:100B70001F92AF92DF92CF920E944D19F70181919F
:100B80007F010F900F900F900F908A1101C0B394C6
:100B9000F0E209371F0749F783E2B81204C08CEA74
:100BA00090E20E948619A196CDBFDEBFDF91CF9162
:100BB0001F910F91FF90EF90DF90CF90BF90AF907B
:100BC0009F908F900895CF93DF93CDB7DEB7C55038
:100BD000D140CDBFDEBF90907800292D2F73922E8B
:100BE000809178008F638093780080E085DC782E98
:100BF000809180008C7F816098ED94BF809380000D
:100C000094BF83E2809380008091820080FDFCCFBE
:100C1000A895F8DE78946DDE65EB72E28BE190E2E8
:100C20000E94C71785EB92E28093152E9093162EA3
:100C30008093172E9093182E78948FEF97EAA1E661
:100C400081509040A040E1F700C00000A895CCDCA6
:100C500080E18093A1068093A50611D587E492E2F6
:100C600029D6C82E882319F088E492E263D50E9421
:100C7000010F9FD6C8D33CD380D388EB90E29F93DB
:100C80008F930E944D1980E2809305060F900F907C
:100C9000A12CB12CE12C45E0D42EF12C812C58E96B
:100CA000252E51E2352E67EA462E61E2562E80E06F
:100CB00090E20E946C178C018BE190E20E946C170D
:100CC000181619060CF0CFC092E0909305068234F6
:100CD00051F5A895A8E2B2E0BF93AF930E945E19C8
:100CE0008BE190E20E9415170F900F9038EC632E65
:100CF0008BE190E20E9451170E94D0126A94C1F7D2
:100D00008091C1048E7F8093C1040E94DA15F8940B
:100D1000FFEF23ED80E3F15020408040E1F700C079
:100D200000006ADEA0C08F3611F4BED49CC08F34A0
:100D300009F494C0803711F49BD695C0863511F420
:100D400081E003C0863719F480E03ED68CC084373A
:100D500059F4809146221F928F93A0E2B2E0BF9394
:100D6000AF930E945E192EC0883689F41F929F921D
:100D70001F927F92A0E1B2E0BF93AF930E945E19F1
:100D80000F900F900F900F900F900F906CC08237C4
:100D900011F480E209C0823521F480E680930606D2
:100DA00062C0833721F480E4809305065CC08936F5
:100DB00071F4DED69F938F93A9ECB0E2BF93AF930B
:100DC0000E944D190F900F900F900F904CC08934D6
:100DD00011F431DE48C0853721F480E090E024D75B
:100DE00042C08736B1F42091480681E090E021119D
:100DF00001C080E09F938F939F938F939F938F93D6
:100E0000A9EDB0E2BF93AF930E944D19CDBFDEBFF5
:100E10002AC08D36B9F4F39419F480EF90E21BC028
:100E200091E0F91203C08DEF90E215C0A2E0FA1232
:100E300003C083E191E20FC0B3E0FB1213C08FE166
:100E400091E209C08A3229F487E492E233D5C82EB0
:100E50000AC08CE291E20E94861905C0A12CBB2435
:100E6000B39401C0F12C10161106A4F4B801772731
:100E7000E1E0FE1203C088E194E20BC0F2E0FF1251
:100E800003C088EC92E205C023E0F21203C080E7C1
:100E900093E29ED188E194E2C5D1882359F088E19C
:100EA00094E2CBD191E0F91205C0682F80E090E286
:100EB0000E94DC1688EC92E2B5D1811104C0A3E057
:100EC000FA1214C05BC00E94991588EC92E2AAD174
:100ED0008823A9F388EC92E2B0D1B2E0FB12F5CFFF
:100EE000682F80E090E20E94DC16EFCFCE010196E1
:100EF000FBD6803809F057C029818E010E5F1F4F45
:100F0000662463946216D8F4F80181918F011F92D0
:100F10008F93A5E9B1E2BF93AF93CB5FDE4F2883F8
:100F2000C550D1400E944D1963940F900F900F90BF
:100F30000F90CB5FDE4F2881C550D140E3CF01E059
:100F400010E00C0F1D1F020F111DD8018C9186950A
:100F50001F928F933F922F920E944D19F80180812A
:100F60000F900F900F900F9080FF03C081EA91E2E5
:100F700002C084EA91E20E94861915C080E793E2DC
:100F800051D1882381F00E94991580E793E24AD1DC
:100F9000882349F080E793E250D1682F80E090E207
:100FA0000E94DC16F2CF8BE190E20E94511780E0A4
:100FB00090E20E9451170E94D012A895809146227B
:100FC000881509F44CC080904622CC2049F0BE011F
:100FD0006D5F7E4F88E492E244D488E492E2AAD323
:100FE000F11005C06BE280E090E20E94DC16CC209C
:100FF000F9F0BE016F5F7E4F88E492E232D4811136
:1010000014C0CE5FDE4F8881C250D1408F93CF5F36
:10101000DE4F8881C150D1408F935F924F920E94E2
:101020004D190F900F900F900F9088E492E282D3A9
:10103000DD2051F0DA9499F483EB91E20E94861955
:1010400080E4809305060BC0BB2049F08A2D90E018
:1010500064D3A82EBB24B394811101C0B12C80911C
:101060004806E81609F423CEE090480683ED91E2A5
:101070009F938F930E944D190F900F90E0FE08C030
:1010800089ED91E29F938F930E944D190F900F90DD
:10109000E1FE08C080EE91E29F938F930E944D196C
:1010A0000F900F90E6FC03C085EE91E202C088EE3F
:1010B00091E29F938F930E944D190F900F908AE0B9
:1010C00090E00E948119F3CD1F920F920FB60F92FC
:1010D00011240BB60F928F93EF93FF93E0E0F6E0AD
:1010E00084E087838AE08683FF91EF918F910F9050
:1010F0000BBE0F900FBE0F901F9018951F920F926E
:101100000FB60F9211248F93809146228F5F8093A8
:1011100046228F910F900FBE0F901F901895292F88
:1011200033272230310559F02330310569F0213061
:101130003105F9F482E190E026E033E01EC083E857
:1011400090E023E832E019C099278130910541F001
:101150008230910541F0892B61F4EFE7F2E005C0A0
:10116000E5E6F2E002C0EDE3F2E0849190E09F0159
:1011700004C080E090E020E030E0FA012083318379
:101180000895FC012081207F622B60830895FC017B
:1011900026812C7F622B66830895FC016083718316
:1011A0004283EC55FF4F10823197108233961082A4
:1011B000319710820895FC01EB55FF4F2081319645
:1011C00090812F5F2F7181E0291301C080E0089585
:1011D0000F931F93CF93DF931F92CDB7DEB78C0190
:1011E0006983E9DF69818823B9F0F801EB55FF4F86
:1011F0009081D801A90FB11DAD57BF4F6C939F5F70
:101200009F719083D801ED91FC91119793819C7F00
:1012100012962C91922B93830F90DF91CF911F9177
:101220000F910895FC01ED55FF4F2081319690817B
:1012300081E0291301C080E00895FC01E955FF4FCA
:10124000108233972081DC01A20FB11D13968C917F
:1012500090819F5F9F7790830895CF93DF93FC01E8
:10126000ED55FF4F20812F5F2F77DC01AC55BF4F2D
:101270004C91EC01A881B9813C913D3029F451E0B9
:10128000DC01A955BF4F5C93241749F04081DC0174
:10129000A40FB11D13963C93208381E001C080E030
:1012A000DF91CF910895CF93DF93FC01EA55FF4F73
:1012B0002081DC01AB55BF4F3C91EC01A881B98185
:1012C000321307C013968C9113978C7F13968C93CF
:1012D0000CC02081820F911DEC01CD57DF4F88811A
:1012E0008C9380818F5F8F718083DF91CF91089580
:1012F000CF93DF9341E060EA78E088EC92E24DDF43
:10130000C8ECD2E2E881F98183E085838381806340
:1013100083838EE2868386811F928F938CEE91E287
:101320009F938F930E944D19E881F98188E9878303
:1013300087811F928F9384EF91E29F938F930E94F6
:101340004D19E881F981848180618483848188607A
:101350008483E0E4F6E088E08183858384E082830F
:10136000E0EAF0E08281856082838DB79EB70896BF
:101370008DBF9EBFDF91CF910895CF93DF9341E062
:1013800060EA79E080E793E208DFC0E7D3E2E88132
:10139000F98183E0858383818F7C8061838385EEFF
:1013A000868386811F928F938CEE91E29F938F9319
:1013B0000E944D19E881F9818CEB878387811F9208
:1013C0008F9384EF91E29F938F930E944D19E88150
:1013D000F981848180618483848188608483E0E6EC
:1013E000F6E088E08183858384E08283E0EAF0E0B0
:1013F0008281816082838DB79EB708968DBF9EBF24
:10140000DF91CF910895CF93DF9341E060EA7AE0D6
:1014100088E194E2C2DEC8E1D4E2E881F98183E0A8
:10142000858383818F7C8061838385EC868386813D
:101430001F928F938CEE91E29F938F930E944D1990
:10144000E881F9818CEA878387811F928F9384EFEB
:1014500091E29F938F930E944D19E881F9818481D5
:1014600080618483848188608483E0E8F6E088E09A
:101470008183858384E08283E0EAF0E08281816079
:1014800082838DB79EB708968DBF9EBFDF91CF91A7
:1014900008951F920F920FB60F9211240BB60F9260
:1014A0002F933F934F935F936F937F938F939F936C
:1014B000AF93BF93EF93FF9388EC92E2CEDEFF9160
:1014C000EF91BF91AF919F918F917F916F915F91BC
:1014D0004F913F912F910F900BBE0F900FBE0F9029
:1014E0001F9018951F920F920FB60F9211240BB6F2
:1014F0000F922F933F934F935F936F937F938F93AD
:101500009F93AF93BF93EF93FF9388EC92E2CBDE70
:10151000FF91EF91BF91AF919F918F917F916F91CB
:101520005F914F913F912F910F900BBE0F900FBE87
:101530000F901F9018951F920F920FB60F921124C3
:101540000BB60F922F933F934F935F936F937F93BD
:101550008F939F93AF93BF93EF93FF9380E793E2B3
:101560007CDEFF91EF91BF91AF919F918F917F9121
:101570006F915F914F913F912F910F900BBE0F9004
:101580000FBE0F901F9018951F920F920FB60F92DB
:1015900011240BB60F922F933F934F935F936F934A
:1015A0007F938F939F93AF93BF93EF93FF9380E7C6
:1015B00093E279DEFF91EF91BF91AF919F918F916F
:1015C0007F916F915F914F913F912F910F900BBE43
:1015D0000F900FBE0F901F9018951F920F920FB68D
:1015E0000F9211240BB60F922F933F934F935F935B
:1015F0006F937F938F939F93AF93BF93EF93FF93DB
:1016000088E194E22ADEFF91EF91BF91AF919F9123
:101610008F917F916F915F914F913F912F910F909B
:101620000BBE0F900FBE0F901F9018951F920F9238
:101630000FB60F9211240BB60F922F933F934F9337
:101640005F936F937F938F939F93AF93BF93EF932A
:10165000FF9388E194E227DEFF91EF91BF91AF9174
:101660009F918F917F916F915F914F913F912F91BA
:101670000F900BBE0F900FBE0F901F901895E0E0DB
:10168000F6E080E681838683E0E2F6E080E485830D
:10169000A0E4B6E088E156968C93569780EB1196BD
:1016A0008C938FEF8183089580E4E0E2F6E08683F7
:1016B0002FEF83EC99E0215080409040E1F700C08B
:1016C000000080E4858308951F93CF93DF93E82F74
:1016D000F0E0EE0FFF1FE85EFC4FEF012196149142
:1016E000612F88EC92E274DD6091172E7091182EB4
:1016F000812F90E00E941B19112311F0FE01EDCF04
:101700006AE088EC92E264DD6DE088EC92E260DDF4
:1017100080E0DF91CF911F910895CF93C82F8C3037
:1017200030F460E070E0D0DF81E08C0F01C080E039
:10173000CF910895CF93DF93EC0140D8882341F0F7
:10174000CE010E943D0384E40E942C0381E009C085
:101750008CEF91E29F938F930E944D190F900F9001
:1017600080E0DF91CF910895FC01218130E0322F9C
:1017700022278081282B2E7F63E0220F331F6A955A
:10178000E1F746818CE090E0841B9109820F931F62
:1017900097FF05C0919581959109E1E001C0E0E0D6
:1017A0009C0144E0369527954A95E1F76AE0629FEF
:1017B000A001639F500D11248F70992760E872E09B
:1017C000869F9001879F300D969F300D1124E11167
:1017D00001C03E5F232F332726952695240F351F02
:1017E000EE2319F0319521953109C9018A5D9D4F8C
:1017F0008930974018F08FE097E20895C901089565
:10180000EF92FF920F931F93CF93DF931F921F923C
:10181000CDB7DEB7142F6A8379830E943D038EEB28
:101820000E942C036A81062FE62E7981F72E60E054
:101830008E2D801B811758F46A830E946703F7017D
:1018400081937F016A810E94AF02682FF1CF862FBA
:101850000F900F90DF91CF911F910F91FF90EF901C
:101860000895EF92FF920F931F93CF93DF93CDB71D
:10187000DEB72997CDBFDEBF7C018B010E94DE035E
:1018800049E0BE016F5F7F4FC701BADFF82E8111BB
:1018900006C0CE01019668DFF801808391838F2D09
:1018A0002996CDBFDEBFDF91CF911F910F91FF90A1
:1018B000EF9008959F92AF92BF92CF92DF92EF92F6
:1018C000FF920F931F93CF93DF938C01C3E064E0EB
:1018D000C8010E94F603882341F0C150C1F78BE391
:1018E00092E20E948619912C57C020E030E0912CA2
:1018F000F801E20FF31F808181119394275F3F4F1E
:1019000024323105A9F71F929F9220E232E23F93E1
:101910002F930E944D190F900F900F900F90C1E0E0
:10192000D0E07AE2C72E72E2D72EE0E3AE2EE2E2FA
:10193000BE2EF8018081882329F1DF93CF93DF92B7
:10194000CF920E944D190F900F900F900F90E12CA5
:10195000F12CF801EE0DFF1D81811F928F93BF9234
:10196000AF920E944D19EFEFEE1AFE0A0F900F9002
:101970000F900F90F8E0EF16F10459F78EE192E224
:101980000E948619075F1F4F2196C530D10589F641
:1019900085E392E20E948619892DDF91CF911F91F4
:1019A0000F91FF90EF90DF90CF90BF90AF909F90FE
:1019B0000895E0E6F6E088EB818B82E08583818301
:1019C00080E1858381830895882321F080E18093DD
:1019D0006606089580E1809365060895CF9380E7B9
:1019E00093E220DC882321F080E793E226DCF7CF26
:1019F00081E0EADF8FE39FE10197F1F700C000008B
:101A000080E793E20FDC882331F080E793E215DC76
:101A1000C1E08E3309F0C0E080E0D6DF8C2FCF919B
:101A200008950F931F93CF93DF93C091462200E058
:101A300010E0D0E080E793E2F5DB882349F080E70F
:101A400093E2113019F4F9DB082F01C0F6DB1F5FB8
:101A5000133040F42091462230E02C1B3D0B223005
:101A6000310544F3802FDF91CF911F910F9108959D
:101A70001F93CF93DF93B2DF882309F473C0D1E6BD
:101A8000C0E069E580E793E2A3DB6D2F80E793E296
:101A90009FDBC7DFEC2FF0E0E957FB4FE4918E139B
:101AA00001C0CF5FDF5FDD3661F7CB3009F054C096
:101AB00087E894E09F938F930E945E198AE794E0F1
:101AC0009F938F930E945E190F900F900F900F902D
:101AD0001EE669E580E793E27BDB612F80E793E216
:101AE00077DBC091172ED091182E9BDFBE0190E0BE
:101AF0000E941B191F5F123761F784E794E09F93E0
:101B00008F930E945E190F900F9013E769E580E7AD
:101B100093E25EDB612F80E793E25ADBC091172EE0
:101B2000D091182E7EDFBE0190E00E941B191F5F2E
:101B3000173761F76091172E7091182E8AE090E0A8
:101B40000E941B196091172E7091182E8DE090E065
:101B50000E941B19C1E001C0C0E068E580E793E284
:101B600037DB01C0C0E08C2FDF91CF911F9108952A
:101B7000FF920F931F93CF93DF93009146222EDFA6
:101B8000882309F444C060E380E793E221DBCFEFD0
:101B9000DFEFF12C10E080E793E244DB8823D9F0FB
:101BA00080E793E24ADBC8278C2F82958C27082E8A
:101BB000869586958025082E8695802587700C2E23
:101BC000CD2F869507948795D02DC82706948795A5
:101BD000D025C827F39480E48F1538F48FE39FE174
:101BE0000197F1F700C0000009C08091462290E003
:101BF000801B910B02970CF4CECFF0CF80E793E2DD
:101C000011DB882331F080E793E217DBF7CFCFEFCA
:101C1000DFEF68E580E793E2DBDACE01DF91CF9179
:101C20001F910F91FF9008950F931F93CF93DF9310
:101C3000EC01D4DE811102C080E051C06DE480E788
:101C400093E2C6DA8FEB9DE50197F1F700C0000043
:101C500080E793E2E7DA882379F380E793E2EDDA2D
:101C60008E3351F78091CF0187FDFCCFCE010E94CA
:101C70009B1B182FCE0101960E949B1B082F1F3F14
:101C8000B1F46FEF80E793E2A3DA82E492E29F93EC
:101C90008F930E944D199FEF23EC89E091502040D3
:101CA0008040E1F700C000000F900F900AC022961C
:101CB000612F80E793E28CDA602F80E793E288DA85
:101CC000D1CF80E793E2AEDA882321F080E793E278
:101CD000B4DAF7CF68E580E793E27ADA81E0DF9162
:101CE000CF911F910F910895FF920F931F93CF9360
:101CF000DF93EC018091C622853011F41092C62248
:101D000010E005E084E0F82E80E793E28BDA882388
:101D100009F44CC080E793E290DA9091C6229111C9
:101D20000AC0883689F781E08093C62280914622D6
:101D30008093C522E9CF913049F48093C422109258
:101D4000C32292E09093C6228883DECF923081F442
:101D50009091C3229F5F9093C322FE01E90FF11D72
:101D600080838091C4229813CFCFF092C622CCCF2B
:101D7000943051F6863121F40093C62210E8C4CF86
:101D8000883629F481E08093C62212E0BDCF2091ED
:101D9000462230E08091C522281B310923303105CD
:101DA0000CF4B2CF0093C62211E0AECF812FDF91A9
:101DB000CF911F910F91FF900895CF92EF92FF92D4
:101DC0000F93CF93DF931F92CDB7DEB78983C62ED3
:101DD0007A0101E09E012F5F3F4F4AE06091C722E8
:101DE00080EA94E00E94C918882311F080EF01C0B6
:101DF00080E00F90DF91CF910F91FF90EF90CF9007
:101E00000895E0EAF4E010828BE4858388E0818322
:101E1000128281E0848388EC8093C72208954AE08F
:101E200060E080EA94E00E94791887E0E0EAF4E05C
:101E300083838FEB9DE50197F1F700C0000080E000
:101E40000895FF920F931F93CF93DF93F62EC82F21
:101E5000D0E02197862F8F1990E08C179D0764F4AE
:101E60008B010F5F1F4F40E080EA94E00E94B4189E
:101E7000882349F0B801EECF41E080EA94E00E9467
:101E8000B418811105C087E08093A30481E004C0E9
:101E900087E08093A30480E0DF91CF911F910F91A1
:101EA000FF900895AB01682F83E087CF40E050E0BA
:101EB00060E081E082CF40E050E060E080E07DCFF4
:101EC0001F93CF93DF93182FEB016091C7226160BE
:101ED0004AE080EA94E00E947918882321F0833058
:101EE000D1F487EE18C040E0BE0180EA94E00E9481
:101EF000B418811102C080EF0EC08881843050F088
:101F0000181740F0BE016F5F7F4F81509ADF81113B
:101F1000F2CF01C084EEDF91CF911F9108958FEF32
:101F20008093A6048091A40486FFFCCF1092A6049F
:101F30008091A40486FFFCCF83E08093A30460918A
:101F4000C72261604AE080EA94E00E94791881111A
:101F500004C087E08093A304AECF80EF08951F9361
:101F6000CF93DF93C62FFB0120E030E09E2F9C1B18
:101F70009817D8F4B19168E070E091E0D32FDD1F9D
:101F8000DD27DD1F220F331FA1E0192F1B2309F4CA
:101F9000A0E0AD1719F0A5E02A273058990F61503D
:101FA00071096115710551F7E1CFFA012083318381
:101FB000DF91CF911F910895FF920F931F93CF93BD
:101FC000DF931F921F92CDB7DEB78C01FC01F0802A
:101FD000FA94FA94AE014F5F5F4FBC018F2DBFDFC3
:101FE000F801EF0DF11D99818081981306C09A8147
:101FF0008181981302C080E001C085EE0F900F90A0
:10200000DF91CF911F910F91FF900895CF93DF93B0
:10201000EC0105DF811121C0BE0184E051DF811197
:102020001CC08881843059F48981813151F48A81BE
:10203000833349F48B81833431F480E00EC084EE25
:1020400003C080EF01C085EE2FEF35ED96E0215003
:1020500030409040E1F700C00000DF91CF9108953B
:10206000CF93DF93EB015BDF882339F01FDFCE01D5
:10207000CDDF811103C088EE01C080E0DF91CF91F8
:1020800008955F926F927F928F929F92AF92BF92CC
:10209000CF92DF92EF92FF920F931F93CF93DF9334
:1020A0001F921F92CDB7DEB76C01162F7A01722EE8
:1020B000FC0180808EEF880D28EE33E0029F5001F6
:1020C000039FB00C1124F5E2AF0EB11CA601480F1E
:1020D000511DB60144DF03E0502E00EE6E2C5A94E1
:1020E00009F472C00023C9F1B601882DDBDE082F88
:1020F000811102C080E006C0B701812FB1DF873EA9
:1021000071F762C0871541F0EFE3FFE13197F1F716
:1021100000C000008F5FF6CFB3E09B2E25C0A982E0
:10212000BA82B701812FCCDE082F49815A814552EE
:10213000510949835A8329813A8126323105F0F0C9
:10214000873E79F3043E59F0C70136DF082F81112D
:102150002EC0F7018081853000F180E036C0B701E4
:10216000812F7EDF811114C09A9409F4B8CFF70152
:102170008E2F8619811798F61192FACF873E11F7A4
:10218000B701812F6DDF873E09F0A9CF87EE1DC013
:10219000883E09F4A4CF84EE18C0F7018181833012
:1021A00079F08F3079F08F3FC1F604ED98CFB70109
:1021B000812F56DF8823C1F2883E09F490CF04C0F6
:1021C00082ED03C083ED01C0802F0F900F90DF914F
:1021D000CF911F910F91FF90EF90DF90CF90BF9024
:1021E000AF909F908F907F906F905F9008952F9207
:1021F0003F924F925F926F927F928F929F92AF9297
:10220000BF92CF92DF92EF92FF920F931F93CF93E3
:10221000DF931F921F92CDB7DEB7962F222EB80103
:10222000498C5A8C1B8D8631B1F190F4883079F14C
:1022300028F48130A1F18230B9F13EC08231C1F180
:102240008531F1F08131C1F513E20CE22AE141C0A0
:102250008C31A1F138F48731B1F08B3169F513E29B
:1022600009E220C0883239F0803341F0803221F514
:1022700014E003E01FC014E00BE10BC017E010C036
:1022800014E001E20FC014E004E124E022C013E2F4
:1022900008E12BE01EC09330A9F414E014C014E050
:1022A00002E016C02AE015C097FF10C013E20FC06D
:1022B00014E007E223E00DC006E40AC014E002E3E4
:1022C0002DE007C013E208E225E103C017E004E0B7
:1022D00020E03E2D3A0D320D3983395FF201308313
:1022E0008183928343833201F5E06F0E711CF2010A
:1022F0005483222041F0312CA101C3012A8392D7BB
:10230000620C731C2A81EE2049F0F12CA701B60162
:10231000C3012A8387D76E0C7F1C2A81AA2049F02B
:10232000B12CA501B401C3012A837CD76A0C7B1CA4
:102330002A81A301B20189818B5F2A8310DE2A8161
:102340004C8D5D8D612FC2019CDE0F900F90DF914F
:10235000CF911F910F91FF90EF90DF90CF90BF90A2
:10236000AF909F908F907F906F905F904F903F9035
:102370002F9008950F931F93CF93DF93CDB7DEB7C0
:10238000EA97CDBFDEBF05EC14E239D2F8018193A4
:102390008F01F4E20D3C1F07C1F70E94F404A2D2A2
:1023A000882309F4EFC02091C5243091C624832FDF
:1023B00090E08A30910508F0E5C0FC01E250FF4F43
:1023C0002BC7203891F0223809F0DCC08091C92455
:1023D0008F7035D2E091CF24F091D024118112FB7F
:1023E000112710F980E02BD206C01091C1248091F2
:1023F000C224811112608FD2812F11D280E0A3C03C
:10240000822F8D7F09F0BEC0222319F0223061F0A7
:10241000B9C08091C724813009F0B4C0333009F0CD
:1024200080E08093C22429C08091C724811125C0F7
:102430001091C9241F7009F4A5C0812F00D280918A
:10244000C624833011F493D218C0A091CF24B09148
:10245000D02411968C9111978B7F11968C9324E840
:10246000129FF0011124ED5EFA4D1082E091CF240D
:10247000F091D02480818E7F808380E0E0D14BD2A8
:1024800064C021117FC01091C7241F7744D23AD372
:1024900004D28823E9F31093C304112311F083E0DD
:1024A00001C082E08093C4246DC02058223008F01F
:1024B00069C08091C7249091C8248C3DE3E09E07B9
:1024C00061F583E08A838AE389834FB7F894DE015C
:1024D000139620E038E052E05093CA01E32FF0E079
:1024E000E4911092CA0120FF03C0E295EF703F5FB4
:1024F000EF708E2F90E0EA3010F0C79601C0C096C2
:102500008D939D932F5F2C3139F74FBF04D26AE32F
:1025100070E0CE01019655D00FC0AE014F5F5F4F06
:102520006091C9240E948F088C01009759F1F3D162
:10253000B80189819A81BFD053D124C0203811F5C8
:10254000EAD18091C0246BD132D1DCD21BC02111E1
:1025500019C08091C7248230A8F4DDD18091C724AE
:102560008093C024CFD28091C024811104C0809177
:10257000C304882311F084E001C081E08093C42467
:102580000E94E104AFD1882311F0C5D1F0D1EA96C1
:10259000CDBFDEBFDF91CF911F910F9108950895B8
:1025A000CF938091C424882351F0C091D12480E03E
:1025B00046D198D18111DEDE8C2FCF9140C1CF91D1
:1025C0000895DF92EF92FF920F931F93CF93DF93C3
:1025D000182F092FEB018091D124806830D12091F0
:1025E000CB243091CC242C173D0720F0209719F4F0
:1025F000DED001C0E901E12EF02ED12C209709F4A4
:1026000040C08091C424811102C082E04CC085305A
:1026100011F483E048C066D1882311F081E043C003
:1026200048D181113CC039D1882341F32091D12474
:102630008091CD249091CE24FC0127FF05C0EF5B53
:10264000FF4F008110E013C0E05CFF4F0081319626
:10265000808110E0081B11090AC00830110548F4F8
:10266000F70181917F01DBD021970F5F1F4F2097EA
:10267000A1F7DD24D3940830110509F0D12C97D0AF
:10268000BDCFD110BECF0BC08091C424882309F4E4
:10269000BCCF853009F4BDCF25D18111BFCF09D181
:1026A000882391F380E0DF91CF911F910F91FF90EC
:1026B000EF90DF900895DF92EF92FF920F931F93B8
:1026C000CF93DF93182F092FEB018091D1248068DD
:1026D000B6D02091CB243091CC242C173D0720F08C
:1026E000209719F464D001C0E901E12EF02ED12C1D
:1026F000209709F442C08091C424811102C082E075
:102700004EC0853011F483E04AC0ECD0882311F02C
:1027100081E045C0CED081113EC0BFD0882341F3B7
:102720002091D1248091CD249091CE24FC0127FFCB
:1027300005C0EF5BFF4F008110E015C0E05CFF4F6C
:1027400000813196808110E0081B11090CC008300F
:10275000110558F4F701849162D0FFEFEF1AFF0AD8
:1027600021970F5F1F4F209791F7DD24D3940830F6
:10277000110509F0D12C1BD0BBCFD110BCCF0BC0A1
:102780008091C424882309F4BACF853009F4BBCFE3
:10279000A9D08111BDCF8DD0882391F380E0DF9146
:1027A000CF911F910F91FF90EF90DF900895E091EE
:1027B000CF24F091D024A091CD24B091CE24AF5B52
:1027C000BF4F8C9190E08283938380818D79808349
:1027D000E091CD24F091CE24EF5BFF4F108208955D
:1027E000E091CF24F091D02480818D798083E09195
:1027F000CD24F091CE24EF5BFF4F1082089580919D
:10280000CD249091CE24FC01EF5BFF4F208131E07D
:10281000320F3083FC01E20FF11D80810895209179
:10282000CD243091CE24F901EF5BFF4F908141E040
:10283000490F4083F901E90FF11D808308958093CA
:10284000D124482F4F7094E8499F900111242E52B3
:102850003B4D6091C6047091C70490E1499FA0016F
:10286000112487FF0FC02E5B3F4F2093CD24309360
:10287000CE24CA010896860F971F8093CF24909389
:10288000D02408952093CD243093CE24460F571F93
:102890004093CF245093D02408958091D124806810
:1028A000CEDFE091CF24F091D02480818695817095
:1028B00008958091D1248F77C2DFE091CF24F091E9
:1028C000D024808185FF0CC02091CD243091CE246E
:1028D00082819381F901E05CFF4F808381E008955C
:1028E00080E008958091D1248F77A9DFE091CF24F3
:1028F000F091D024808184FF0CC02091CD243091B0
:10290000CE2482819381F901E05CFF4F808381E0D6
:10291000089580E008958091D1248F7790DFE09131
:10292000CF24F091D02480818D788083E091CF24D2
:10293000F091D024808181608083E091CD24F0915A
:10294000CE24EF5BFF4F10828091D124806877DF27
:10295000E091CF24F091D024808181608083E09148
:10296000CD24F091CE24EF5BFF4F10820895E091CB
:10297000CF24F091D024818184608183E091CF24A1
:10298000F091D0248181807C803459F48091D124CD
:10299000805855DFE091CF24F091D024818184606C
:1029A000818308951F93CF93DF931F921F92CDB71A
:1029B000DEB7182F4A83698342DFE091CF24F0917C
:1029C000D0241182E091CF24F091D024812F881F50
:1029D0008827881F880F8083E091CF24F091D0242E
:1029E00069816183E091CF24F091D0241282138217
:1029F0002091CD243091CE2424833583110F110BE7
:102A00004A811423F901E05CFF4F10833196108254
:102A100081E00F900F90DF91CF911F910895AF92B9
:102A2000BF92DF92EF92FF920F931F93CF93DF93AA
:102A30001F92CDB7DEB7D62E5C01F12CFD14D9F173
:102A4000F501E080EE2091F1018112818381948172
:102A5000923010F048E101C048E028E030E090E01A
:102A60002017310720F49F5F220F331FF9CF942BDB
:102A70009F7E0134110510F080E01EC0882321F0F4
:102A8000813021F4906C0CC0906403C09068811177
:102A900007C0402F692F80E88E0D998383DF9981CD
:102AA000402F692F8E2D7EDF882331F3F394F5E0DC
:102AB000AF0EB11CC3CF81E00F90DF91CF911F917A
:102AC0000F91FF90EF90DF90BF90AF90089580E05E
:102AD00090E0E091C604F091C7049C0164E0220FED
:102AE000331F6A95E1F7E20FF31F1186E091C604E8
:102AF000F091C704E20FF31F118201968031910516
:102B000041F708958091C52487FD04C0C6DE88235F
:102B100051F00EC0CEDE811105C08091C424811118
:102B2000F9CF08955DCE8091C4248111EFCF08952F
:102B30003ECE1F93CF93DF93E091C604F091C7047C
:102B4000F395C081D18114E68091D12480788038BA
:102B500051F4A3DE811105C08091C424811105C008
:102B600020C080E023C0A5DEF5CF8530E1F0E09104
:102B7000CF24F091D024818182FD17C0E091C6045A
:102B8000F091C704F395808191818C179D07E1F244
:102B90002FEF210F112319F0EC01122FD5CF84E074
:102BA00005C082E003C083E001C081E0DF91CF91E6
:102BB0001F91089562D068D0E0ECF4E081818E7FAF
:102BC000818380818F7780831092C3240895CF936F
:102BD000DF93E0E4F0E014828481836084834DD04D
:102BE00053D0C0ECD4E088818F7788838881806857
:102BF00088831092C4241092C0241092C224109290
:102C0000C12488818064888348E068E480E8CADE63
:102C100048E068E480E0C6DE888580648887898132
:102C200081608983DF91CF9108952FB7F89482E076
:102C3000E0ECF1E08287EAE1F0E0E491A0ECB4E0BE
:102C4000DA96EC93DA97EBE1F0E0E491DB96EC9323
:102C5000DB97E0ECF1E0128683E19DE28E7F169631
:102C60008D939C9317978FE18C9383E018968C93A8
:102C70002FBF81E08093C324AACFE0ECF4E08085ED
:102C80008370808711860895E0ECF4E08FEF8287EF
:102C9000848708951F920F920FB60F9211240BB6DE
:102CA0000F922F933F934F935F936F937F938F93E5
:102CB0009F93AF93BF93EF93FF938091CA0487FFD5
:102CC00008C08091C80487FF04C080E88093CA04CC
:102CD00066DC8091CA0486FF07C080E48093CA0442
:102CE0001092C4240E94DF048091CA0485FF14C09E
:102CF00080E28093CA048091C024882311F084E08C
:102D000007C08091C304882311F083E001C081E0F3
:102D10008093C4240E94DD048091CA0484FF14C0FF
:102D200080E18093CA0482E08093C4241092C0247E
:102D30001092C304CCDE48E068E480E833DE48E06B
:102D400068E480E02FDE2BDCFF91EF91BF91AF9123
:102D50009F918F917F916F915F914F913F912F91B3
:102D60000F900BBE0F900FBE0F901F901895CF9332
:102D7000DF93EC01FC0170968BE0DF011D928A95D8
:102D8000E9F782E08C83898783E08E8761E0CE015A
:102D9000019645DE882361F061E0CE0106963FDEB4
:102DA000882331F061E0CE010B96DF91CF9137CED1
:102DB00080E0DF91CF910895CF93FC01C62F8091E1
:102DC000C4248430F9F44489558966897789452B70
:102DD000462B472BB9F0818132DD2091CD243091F3
:102DE000CE24F901EF5BFF4F9081319780819817D6
:102DF00020F48C2F14DD80E006C0D9DC9ADE882315
:102E0000C1F301C082E0CF910895FB01682F848552
:102E10009585D2DF21E030E0811102C020E030E072
:102E200088279927821B930B0895CF93DF932091D6
:102E3000C424243091F5FC01448955896689778939
:102E4000452B462B472B49F18181F9DC2091D12478
:102E50008091CD249091CE24FC0127FF05C0EF5B2B
:102E6000FF4F208130E008C0E05CFF4F20813196A9
:102E7000408130E0241B3109232B69F0FC01EF5B1A
:102E8000FF4FD0813197C08192DCDC1720F051DEFA
:102E9000811104C08CDC80E001C082E0DF91CF9121
:102EA0000895CF93DF93EC018091C424843089F49A
:102EB0004C895D896E897F89452B462B472B49F0CC
:102EC0008981BDDCEADC882321F0CE01DF91CF913E
:102ED000ACCFDF91CF910895CF93DF932091C4249D
:102EE000243019F08FEF9FEF46C0FC0144895589CB
:102EF00066897789452B462B472BA1F386819FDC7A
:102F0000D8DC882379F38091D1242091CD2430918D
:102F1000CE24F90187FF05C0EF5BFF4F808190E071
:102F200008C0E05CFF4F80813196208190E0821BD9
:102F30009109892B21F063DCC82FD0E002C0CFEFCC
:102F4000DFEF8091D1242091CD243091CE24F9015E
:102F500087FF05C0EF5BFF4F808190E008C0E05C19
:102F6000FF4F80813196208190E0821B9109892B4F
:102F700009F436DCCE01DF91CF910895FC01848500
:102F80009585AADF97FF02C08EEF9FEF0895FB01A2
:102F90002EE0DB011D922A95E9F723E0238325E04B
:102FA00037E1208731872EEB37E12287338784870B
:102FB000958708950895FF920F931F93CF93DF9302
:102FC000EC0190DC882309F48EC0888190E0209188
:102FD000C9243091CA242817390709F084C0809188
:102FE000C624813259F018F4803249F17CC0823213
:102FF00009F457C0833209F467C075C08091C524B5
:10300000813A09F070C087DC48DC8823E9F38C89B9
:10301000FD880E891F8903DC8F2D01DC802FFFDBEB
:10302000812FFDDB888DFBDB898DF9DB8A8DF7DB5A
:10303000BEDBDF91CF911F910F91FF9063CD809107
:10304000C524813209F04FC066DC33DC811105C034
:103050008091C4248111F9CF46C0D1DB082FCFDB8A
:10306000182FCDDBF82ECBDB4F2D50E060E070E069
:10307000BA0155274427782B402B512B4C8B5D8B65
:103080006E8B7F8BBCDB888FBADB898FB8DB8A8F36
:10309000A7DB38DDCE01DF91CF911F910F91FF901B
:1030A00089CF8091C5248132F1F435DC2BDD80910C
:1030B000C7249091C824888B998BCE01DF91CF9142
:1030C0001F910F91FF9076CF8091C524813259F4E2
:1030D00022DC18DD6091C724CE01DF91CF911F91D2
:1030E0000F91FF9067CFDF91CF911F910F91FF90CC
:1030F0000895FC01668384E6489FA0011124848121
:1031000041155105B9F0982F9874983411F46683DD
:103110000AC0982F9075903521F487E0838383E06F
:103120000895807C61F48AE68A95F1F700C04150E9
:103130005109E5CF85FF05C087E0838302C080E0A9
:10314000089582E00895FC016783848186FFFDCFA6
:10315000848186FF06C084818295817091E08927F1
:1031600001C080E081700895FC0184818C708C30F6
:1031700071F0848187FFFDCF8781DB018C9344232D
:1031800011F087E001C082E0838381E0089580E050
:1031900008958F929F92AF92BF92CF92EF92FF923B
:1031A0000F931F93CF93DF931F921F92CDB7DEB77C
:1031B0005C016E7F29833A839CDF182F29813A8135
:1031C00081111BC04901020F081541F0F401619102
:1031D0004F01C501B8DF8111F7CF15E04701EC0CB5
:1031E000E81441F0F40161914F01C501ACDF811198
:1031F000F7CF15E087E0F5018383812F0F900F90C3
:10320000DF91CF911F910F91FF90EF90CF90BF90E2
:10321000AF909F908F900895EE0FFF1F0590F4914F
:10322000E02D1994FB01DC0102C001900D92415088
:103230005040D8F708950F931F93CF93DF93182F23
:10324000092FEB018B8181FD03C08FEF9FEF20C021
:1032500082FF10C04E815F812C813D814217530750
:103260007CF4E881F9819F012F5F3F4F28833983E8
:10327000108306C0E885F985812F1995892B29F7D8
:103280002E813F812F5F3F4F2E833F83812F902FD1
:10329000DF91CF911F910F910895CF93DF93CDB719
:1032A000DEB7FE01369661917191AF018091172EC4
:1032B0009091182E58D0DF91CF9108950F931F93BE
:1032C000CF93DF93CDB7DEB7FE0138966191719150
:1032D00007E11EE2D8018D919C91DC0113962C919F
:1032E0001397286013962C93AF013DD0D801ED9130
:1032F000FC912381277F2383DF91CF911F910F9131
:1033000008956091172E7091182E95CF0F931F93EB
:10331000CF93DF93E091172EF091182E238121FF98
:103320001BC0EC0100E010E089916091172E7091B4
:10333000182EDB011896ED91FC911997882331F036
:103340001995892B89F30FEF1FEFEECF8AE01995BE
:10335000892B11F4C80102C08FEF9FEFDF91CF914D
:103360001F910F9108952F923F924F925F926F920B
:103370007F928F929F92AF92BF92CF92DF92EF9205
:10338000FF920F931F93CF93DF93CDB7DEB72C97A8
:10339000CDBFDEBF7C016B018A01FC011682178262
:1033A000838181FFB0C1CE0101964C01F701938169
:1033B000F60193FD859193FF81916F01882309F4B4
:1033C0009EC1853239F493FD859193FF81916F0100
:1033D000853221F4B70190E02EDFE8CF512C312C5B
:1033E00020E02032A0F48B3269F030F4803259F0C2
:1033F000833269F420612CC08D3239F0803339F486
:10340000216026C02260246023C0286021C027FDDF
:1034100027C030ED380F3A3078F426FF06C0FAE0C6
:103420005F9E300D1124532E13C08AE0389E300D5C
:103430001124332E20620CC08E3221F426FD5FC190
:10344000206406C08C3611F4206802C0883641F42E
:10345000F60193FD859193FF81916F018111C1CF99
:10346000982F9F7D9554933028F40C5F1F4FFFE3F6
:10347000F9830DC0833631F0833771F0833509F05D
:1034800057C021C0F801808189830E5F1F4F4424FB
:103490004394512C540114C03801F2E06F0E711C9A
:1034A000F801A080B18026FF03C0652D70E002C046
:1034B0006FEF7FEFC5012C8759D12C0183012C853B
:1034C0002F77222E16C03801F2E06F0E711CF80122
:1034D000A080B18026FF03C0652D70E002C06FEFB1
:1034E0007FEFC5012C8737D12C012C852068222E37
:1034F000830123FC19C0832D90E048165906A0F4DF
:10350000B70180E290E097DE3A94F5CFF50127FC11
:10351000859127FE81915F01B70190E08CDE31102B
:103520003A94F1E04F1A51084114510479F7DEC082
:10353000843611F0893631F5F80127FF07C0608124
:103540007181828193810C5F1F4F08C060817181FE
:10355000882777FD8095982F0E5F1F4F2F76B22E0C
:1035600097FF09C090958095709561957F4F8F4F1B
:103570009F4F2068B22E2AE030E0A40102D1A82E8D
:10358000A81843C0853729F42F7EB22E2AE030E0F8
:1035900025C0F22FF97FBF2E8F36C1F018F4883581
:1035A00079F0ADC0803719F0883721F0A8C02F2FEF
:1035B0002061B22EB4FE0DC08B2D8460B82E09C0E0
:1035C00024FF0AC09F2F9660B92E06C028E030E085
:1035D00005C020E130E002C020E132E0F801B7FE92
:1035E00007C060817181828193810C5F1F4F06C08B
:1035F0006081718180E090E00E5F1F4FA401C1D017
:10360000A82EA818FB2DFF77BF2EB6FE0BC02B2DC2
:103610002E7FA51450F4B4FE0AC0B2FC08C02B2DB6
:103620002E7E05C07A2C2B2D03C07A2C01C0752C60
:1036300024FF0DC0FE01EA0DF11D8081803311F4DD
:10364000297E09C022FF06C07394739404C0822FA0
:10365000867809F0739423FD12C020FF06C05A2C0F
:10366000731418F4530C5718732C731460F4B701C7
:1036700080E290E02C87DFDD73942C85F6CF731405
:1036800010F4371801C0312C24FF11C0B70180E3BA
:1036900090E02C87D0DD2C8522FF16C021FF03C0CF
:1036A00088E590E002C088E790E0B7010CC0822F67
:1036B000867851F021FD02C080E201C08BE227FD37
:1036C0008DE2B70190E0B7DDA51430F4B70180E3D7
:1036D00090E0B1DD5A94F8CFAA94F401EA0DF11DFF
:1036E0008081B70190E0A7DDA110F6CF332009F467
:1036F0005DCEB70180E290E09EDD3A94F7CFF7010E
:103700008681978102C08FEF9FEF2C96CDBFDEBFE1
:10371000DF91CF911F910F91FF90EF90DF90CF90AD
:10372000BF90AF909F908F907F906F905F904F90E1
:103730003F902F90089503D0808199270895E0EC61
:10374000F1E0378537FDFDCF348538603487FC01E3
:10375000E050F04F0895FC01059061507040011059
:10376000D8F7809590958E0F9F1F0895FC016150AA
:10377000704001900110D8F7809590958E0F9F1F93
:103780000895FA01AA27283051F1203181F1E894F7
:103790006F936E7F6E5F7F4F8F4F9F4FAF4FB1E044
:1037A0003ED0B4E03CD0670F781F891F9A1FA11D3F
:1037B000680F791F8A1F911DA11D6A0F711D811D40
:1037C000911DA11D20D009F468943F912AE0269F05
:1037D00011243019305D3193DEF6CF010895462F64
:1037E0004770405D4193B3E00FD0C9F7F6CF462F45
:1037F0004F70405D4A3318F0495D31FD40524193AE
:1038000002D0A9F7EACFB4E0A6959795879577956A
:103810006795BA95C9F700976105710508959B01F1
:10382000AC010A2E06945795479537952795BA957A
:10383000C9F7620F731F841F951FA01D0895F89488
:02384000FFCFB8
:10384200028410000001051000000186080000013A
:1038520000000000000000000000000081100000D5
:1038620001021000000183080000010000000000B6
:103872000000000000000011223344556677889949
:10388200AABBCCDDEEFF001122334455667788993E
:10389200AABBCCDDEEFF230667004F284D6E98626F
:1038A20004F460A3E8758A5985A67996C48A884685
:1038B200434EB3DB58A4FBE57357616B65457272E7
:1038C200004578656345727220257820000A5265AA
:1038D20073706F6E73653A20090025782C20000AF8
:1038E20045787065637465643A2009000A49646525
:1038F2006E746963616C21000A5374617274207082
:103902007265636861726765004D42204366672095
:103912006372633A2025780A0052696E673D256416
:103922002C204354533D25642C204F4E3D256400EA
:1039320053657269616C3A204E6F6E650053657211
:1039420069616C3A2045787465726E616C2028500A
:1039520036290053657269616C3A2047534D005312
:10396200657269616C3A204D62757300436F6D6DCB
:10397200616E64733A205B6D5D2073656C65637480
:1039820020326E6420736572616C20656E64706FA4
:10399200696E742E205B6F5D2053746172742047D0
:1039A200534D2E205B562F765D205365742F436C4A
:1039B20072204D62757320636F6E6669672070694D
:1039C2006E2E205B495D2074657374204154534808
:1039D2004132303400257800525353493D2D25643D
:1039E200002E35002E3000092054656D703A2025D6
:1039F200640A005374617274696E67206D61696E46
:103A02002047534D2056434320726567756C61749D
:103A12006F720047534D3A200052494E4721200011
:103A220043545320004F4E006F66660043413A20D4
:103A32002578200043423A2025782000445331382B
:103A42005832305F73746172745F6D6561733A20CE
:103A520053686F72742043697263756974210D0033
:103A620031733A253032640D0A00253032643A004F
:103A720025303278002A454E440D00315745727286
:063A82000D00456E64001A
:00000001FF
