:10000000CAC20000E8C20000E6C20000E4C200006C
:10001000E2C20000E0C20000DEC20000DCC200005C
:10002000DAC20000D8C200000C945E0BD4C20000FB
:10003000D2C20000D0C20000CEC20000CCC200007C
:10004000CAC20000C8C20000C6C20000C4C200008C
:10005000C2C20000C0C20000BEC20000BCC200009C
:10006000BAC200000C94680E0C94910EB4C2000049
:10007000B2C20000B0C20000AEC20000ACC20000BC
:10008000AAC20000A8C20000A6C20000A4C20000CC
:10009000A2C20000A0C200009EC200009CC20000DC
:1000A0009AC2000098C2000096C2000094C20000EC
:1000B00092C2000090C200008EC200000C94480B57
:1000C0008AC2000088C2000086C2000084C200000C
:1000D00082C2000080C200007EC200007CC200001C
:1000E0007AC2000078C200000C940C0F0C94350FFB
:1000F00072C2000070C200006EC200006CC200003C
:100100006AC2000068C2000066C2000064C200004B
:1001100062C2000060C200005EC200005CC200005B
:100120005AC2000058C2000056C2000054C200006B
:1001300052C2000050C200004EC200004CC200007B
:100140004AC2000048C2000046C2000044C200008B
:1001500042C2000040C200003EC200003CC200009B
:100160000C94BA0E0C94E30E36C2000034C20000A8
:1001700032C2000030C200002EC200002CC20000BB
:100180002AC2000028C2000026C2000024C20000CB
:1001900022C2000020C200001EC200001CC20000DB
:1001A0001AC2000018C2000016C2000014C20000EB
:1001B00012C2000010C200000EC200000CC20000FB
:1001C0000AC2000008C2000006C2000004C200000B
:1001D00002C2000000C20000FEC10000FCC100001D
:1001E000FAC10000F8C10000F6C10000F4C100002F
:1001F000F2C100000C94D81EEEC100006F1A8E1AD6
:10020000501B8E1A501BCF1AE31A501B2C1B351B88
:100210004877763A25782C205273743A25780A006C
:100220005469633A25640A0020453A2A7462642AB4
:100230000D0A0020423A2530366C7800214B3A41B5
:100240003A2530366C7800426F6F74206C6F6164B1
:10025000657220737461727465640A0026034C0031
:1002600055004600410020004400750061006C000C
:1002700020004300440043002000440065006D005E
:100280006F00000018034400650061006E0020004C
:10029000430061006D00650072006100000004030E
:1002A000090409028300040100C032080B000202A5
:1002B00002010009040000010202010005240010EF
:1002C0000104240206052406000107058303080033
:1002D000FF09040100020A000000070502021000E5
:1002E0000507058102100005080B02020202010049
:1002F0000904020001020201000524001001042487
:1003000002060524060203070586030800FF090408
:100310000300020A0000000705050210000507059A
:10032000840210000512011001EF020108EB034ED8
:100330002001000102DC01A504A0049C04910487B3
:10034000047B04630449042B0416040104E103BF85
:1003500003B803B003A7039E0394038B03810377C1
:10036000036D03650341545E534349440041545EA9
:10037000534953543D300041545E5349534F3D302F
:100380000041545E534953433D300041542B434D8B
:1003900047533D0041542B434D474C3D340041549D
:1003A0002B434D47443D0041542B434D47523D00A4
:1003B00041545E534D534F0041542B435351004120
:1003C000545E534953533D302C414444524553539A
:1003D0002C227777772E686F6A2E6E753A38302226
:1003E0000041545E534943533D302C61706E2C22C2
:1003F0006F6E6C696E652E74656C69612E73652213
:100400000041545E534953533D302C414C504841B8
:100410004245542C310041545E534943533D302CE6
:10042000414C5048414245542C310041545E53499F
:1004300053533D302C535256545950452C5452412D
:100440004E53504152454E540041545E534943531C
:100450003D302C22696E616374544F222C2022326D
:1004600030220041545E534943533D302C636F6E3C
:10047000547970652C47505253300041542B434EF1
:100480004D493D322C310041542B435245473D32BA
:100490000041545E5353594E433D3100415449008D
:1004A00041545630004154453000FA04F304EB0443
:1004B000E304DD04D604CF04C804BF04BE0400482E
:1004C0005454502F312E31005E534349443A002B8F
:1004D000434D474C3A002B434D47523A002B434D76
:1004E000544900434F4E4E45435400434F4E4E45F2
:1004F0004354005E534953573A002B435245473A01
:1005000000303030304141303243463235003030F7
:1005100031313030302D3931002046573A2000201B
:10052000666F756E642E2048573A20005243313171
:1005300038302D4D425553000D0A436F6E74656E71
:10054000742D547970653A206170706C69636174C0
:10055000696F6E2F6A736F6E0D0A436F6E74656EEE
:10056000742D4C656E6774683A2000504F535420C8
:100570002F6E67772F702E70687020485454502F5C
:10058000312E310D0A486F73743A207777772E68D1
:100590006F6A2E6E750011241FBECFEFCDBFDFE551
:1005A000DEBF00E00CBF13E2A0E0B0E2ECEDFAE445
:1005B00000E00BBF02C007900D92AA3CB107D9F72B
:1005C00021E3AAECB3E201C01D92AD34B207E1F71A
:1005D00092D30C946C2514CD3BB78BBFFB01869155
:1005E0003BBF08953BB78BBFFB01879196913BBF03
:1005F000089542E030C041E02EC08093C0018827BA
:100600008093C1018093C20147E015D0CB010895CA
:1006100048E311C049E30FC028ED2093340021E0E6
:100620002093CC0108952091CF0127FDFCCF2227F4
:100630002093CA0108954093CA0128ED31E0209328
:1006400034003093CB016091C4017091C501809159
:10065000C60199270895FC014093CA018491089529
:1006600098E028E1362F382730FD02C0669503C098
:1006700062276695606886959150A1F7862F089548
:1006800098E0282F262720FD03C07695679507C0A0
:1006900022E0622720E47227769567957068869538
:1006A000915079F7CB010895EF92FF920F931F932A
:1006B000CF93DF93EC017C0187E0E80EF11C8E0103
:1006C00060E0F80181918F01CBDF682F0E151F05C7
:1006D000C1F781E09F81691301C080E0DF91CF9174
:1006E0001F910F91FF90EF900895E0EAF6E088E007
:1006F0008183858388EB838B84E0828388E1828B8E
:10070000E0EAFBE084818861848383E0858383E47D
:10071000868386EA878308959091A10B906C9093CD
:10072000A10B8093A00B8091A10B86FFFCCF80E4EE
:1007300091E02091A10B27FD03C001970097C9F715
:1007400083E48093A60B86EA8093A70B8091A00B8D
:1007500008958FEFE1CF80E0DFCFCF93DF93D82FE5
:10076000C8E0D0FF02C0F5DF01C0F5DFD695C1506B
:10077000C1F7DF91CF9108958CECEFCFEF92FF920C
:100780000F931F93CF93DF931F92CDB7DEB7182F30
:1007900085E59983E2DFE12E9981F92E8701085FD3
:1007A0001F4FF70181917F01D8DFE016F106C9F7ED
:1007B0000F90DF91CF911F910F91FF90EF900895CF
:1007C0008FEFAADF91E08F3F09F090E0892F089525
:1007D000CF93DF93D8E0C0E0C695F2DF8111C06807
:1007E000D150D1F78C2FDF91CF910895EF92FF92E6
:1007F0000F931F93CF93DF931F92CDB7DEB7182FC0
:1008000083E39983AADFE12E9981F92E8701085F9E
:100810001F4FDEDFF70181937F01E017F107C9F772
:100820000F90DF91CF911F910F91FF90EF9008955E
:10083000DF92EF92FF920F931F93CF93DF93EC0120
:10084000E62E80EF8ADF11E0F12C01E0B9DFD82E2F
:10085000B7DFDD2029F0811129C08881812B06C0F6
:100860009881882329F0812F8095892388830FC060
:100870000E1103C0912B98830AC0E01628F4812F33
:1008800080958923888302C0912309F4F02E888102
:10089000812311F05EDF01C05EDF0F5F110F11F4E5
:1008A000219611E0013491F68F2D01C08FEFDF9179
:1008B000CF911F910F91FF90EF90DF90089580915D
:1008C000A40B8F7E8093A40B8091A40B80618093F6
:1008D000A40B8EED8093A60B84EE8093A70B80EF84
:1008E0001BDF91E0803F09F490E0892F08956F921B
:1008F0007F929F92AF92BF92CF92DF92EF92FF9240
:100900000F931F93CF93DF931F92CDB7DEB78C0168
:10091000A62EFC0120E02A1579F0108280E090E0FC
:10092000DF01A80FB91F11961C920196883091051E
:10093000B9F72F5F3996EFCFC2DF98012F5F3F4F96
:100940003901882381F1B22EC72C82E080932506DD
:100950007801F901D12C60E048E0942EAB2DBC2D3C
:10096000892D01900D928A95E1F76983A8DF69814D
:100970008B2D9C2D5DDF682FD394F701D0829801D9
:10098000F9E0DF9E200D311D11242F5F3F4F88239A
:1009900059F089E0E80EF11CDA1430F4EB2DFC2D4F
:1009A000B22EC32EDBCFD12C730110E01D1549F000
:1009B000C7017ADE99E0E90EF11C811104C01F5FC6
:1009C000F5CF80E001C081E00F90DF91CF911F91C2
:1009D0000F91FF90EF90DF90CF90BF90AF909F90DE
:1009E0007F906F9008958BBFFB0107900020E9F77F
:1009F000609570956E0F7F1FCB010895FA016BBF54
:100A0000DC010790002009F40895FA016BBF0790FC
:100A10007D91772369F07015CD01D1F70790002003
:100A200051F07C91772321F0701579F71196F6CF6C
:100A300088279927089501976BBF0895E0E0F6E0B5
:100A40009481907F982B9483089580E18093550042
:100A5000809150008061809350008091510084FF0C
:100A6000FCCF2FB7F89434E088ED90E0A0E4B0E03C
:100A70001BBEFD0184BF30832FBF8FE39FE1019731
:100A8000F1F700C00000809140008091500082602A
:100A9000809350008091510081FFFCCF80915600DF
:100AA0008460809356008BE18093650087EB809390
:100AB000660082E08093CA01EDE1F0E0E491E0930A
:100AC0006200ECE1F0E0E491E09363001092CA016F
:100AD00081E080936000809150008460809350009A
:100AE0008091510082FFFCCF8DE08093430081E034
:100AF0008093000483E08093020487E08093A20047
:100B00008FE0809301068093060680E097DF0C94C7
:100B1000A31E89E093CF80E091CFCF938BE190E249
:100B20000E94451FC82F80E090E20E94451F882345
:100B300021F0CC2311F081E001C088E0CF917ECF7D
:100B40008BE190E20E94692080E090E20C946920A1
:100B5000E0E0F0E082E08CBF1994089561E080E06D
:100B60009AE031D7E0EAF0E082818160828366E03A
:100B700080E09AE022D7E0E2F6E081E0818386839C
:100B800082E081838683E0E6F6E081830895AF9278
:100B9000BF92CF92DF92EF92FF920F931F93CF936A
:100BA000DF93CDB7DEB7AE97CDBFDEBF80E2E6E321
:100BB000F0E2DE01119601900D928A95E1F76E0147
:100BC00081E2C80ED11C8DE0F60111928A95E9F7F9
:100BD00088E089A3E4E4F4E2119284E2E436F807C1
:100BE000D9F784E494E20E9402198EA78EA5882387
:100BF00041F081E890E29F938F930E942C220F9006
:100C00000F904AE5E42E40E2F42E8E010F5F1F4F55
:100C100020E040E064E474E280EF93E20E94F31984
:100C20008EA78EA5882369F08EA51F928F9389E8E1
:100C300090E29F938F930E942C220F900F900F9021
:100C40000F900E9452188EA71EA685E990E29F93EE
:100C50008F930E942C220F900F9004E414E232EA4A
:100C6000E32E30E2F32EF80181918F011F928F93D2
:100C7000FF92EF920E942C220F900F900F900F90F6
:100C8000F4E207361F0779F786E5E82E80E2F82EB2
:100C900094E4A92E94E2B92E00E010E026EBC22ED7
:100CA00021E2D22EF50191915F01F70181917F013F
:100CB000981313C01F930F93DF92CF920E942C22A0
:100CC0000F5F1F4F0F900F900F900F900430110582
:100CD00049F787EA90E20E946522AE96CDBFDEBF5B
:100CE000DF91CF911F910F91FF90EF90DF90CF9008
:100CF000BF90AF900895CF93DF93CDB7DEB7C255C5
:100D0000D240CDBFDEBF60907800262D2F73622EBB
:100D1000809178008F638093780080E06EDCC15B07
:100D2000DD4F8883CF54D240809180008C7F8160DA
:100D300098ED94BF8093800094BF87E280938000F9
:100D40008091820080FDFCCFA89508DF78947DDE3D
:100D500064E674E28BE190E20E94552084E694E21E
:100D600080934731909348318093493190934A3131
:100D700078948FEF97EAA1E681509040A040E1F788
:100D800000C00000A895B1DC80E18093A1068093AB
:100D9000A5060E945E0F8CEC93E20E94BC14782E94
:100DA000882321F08DEC93E20E94FB130E94FD1733
:100DB0000E943B1547D7BBD6FFD683EB90E29F93AB
:100DC0008F930E942C2280E2809305060F900F9053
:100DD000412C912C512C8E01035D1E4FF801319650
:100DE000C05BDD4FE883F983C055D2407E01F3ED4F
:100DF000EF1AFDEFFF0ACE0101966C0180E090E250
:100E00000E94FA1F5C018BE190E20E94FA1F181603
:100E100019060CF04AC192E090930506823461F500
:100E2000A8950E94D11387E492E09F938F930E942C
:100E30003D228BE190E20E94A31F0F900F9078EC6F
:100E4000272E8BE190E20E94DF1F0E945E1B2A94F6
:100E5000C1F78091C1048E7F8093C1040E94681EF7
:100E6000F8949FEFA3EDB0E39150A040B040E1F7BC
:100E700000C000006DDE19C18F3619F40E94730F97
:100E800014C18F3429F40E94D5130E94DF130DC1C1
:100E9000833419F40E94E31308C1843519F40E94C5
:100EA000E71303C1843619F40E94EB13FEC08B34A0
:100EB000F9F4AEDB9F938F937F936F938CE392E073
:100EC0009F938F930E943D22A5DB9F938F937F93E7
:100ED0006F9383E392E09F938F930E943D221F9232
:100EE0001F9288E292E09F938F930E943D2290C0D0
:100EF000803719F40E94A115D8C0863519F40E94D4
:100F0000C913D3C08637D9F462E2262E60E0362EAC
:100F1000C1010E94A22490E00E946022FFEF2F1ADC
:100F20003F0A22E6221620E0320691F780E090E0A8
:100F30000E94B2249F938F93A4ECB0E244C0843704
:100F400079F48091CA231F928F93A0E2B2E0BF93FD
:100F5000AF930E943D220F900F900F900F90A5C06D
:100F60008836B1F41F926F921F92C15BDD4F2881CA
:100F7000CF54D2402F93A0E1B2E0BF93AF930E9431
:100F80003D220F900F900F900F900F900F908DC0FB
:100F9000823721F480E28093050687C0823521F4F0
:100FA00080E68093060681C0833729F468ECC80187
:100FB0000E94AB1036C0893659F40E9428169F93C0
:100FC0008F93ACECB0E2BF93AF930E942C22C3CFBF
:100FD000893411F4DCDD69C0853729F482E490E0BE
:100FE0000E948A1662C08736B1F42091480681E0DB
:100FF00090E0211101C080E09F938F939F938F9386
:101000009F938F93ACEDB0E2BF93AF930E942C22DD
:10101000CDBFDEBF4AC0843459F468ECC8010E94D9
:1010200094101F930F930E942C220F900F903DC09D
:10103000833539F448ECB80183EF90E20E946D13D8
:1010400034C0893759F465EF70E2C8010E94BD21B0
:10105000B80182E191E20E945E1727C08D36B9F493
:10106000939419F48DE191E21CC091E0991203C0B0
:101070008AE291E216C0A2E09A1203C080E491E2F3
:1010800010C0B3E09B1210C08CE491E20AC08A3217
:1010900031F48CEC93E20E94BC14782E06C089E5F2
:1010A00091E20E94652201C0912C1A141B04A4F441
:1010B000B5017727E1E09E1203C08AEC96E20BC0EF
:1010C000F2E09F1203C08AE794E205C023E0921287
:1010D00003C082EA95E298D48AEC96E2BFD48823D2
:1010E00059F08AEC96E2CAD491E0991205C0682FB3
:1010F00080E090E20E946A1F8AE794E2AFD48823DE
:1011000009F1A2E09A121EC00E94271E8AE794E20B
:10111000A5D48823D9F08AE794E2B0D4B82EBDE0F4
:101120008B1302C062E704C0EAE08E1305C06EE6CE
:1011300080E090E20E946A1F6B2D80E090E20E94A6
:101140006A1FE4CFF3E09F1609F44BC0C8010E9468
:10115000F316803809F05AC0D8012C91C05BDD4FDE
:10116000A880B980C055D240222423942216D8F4F6
:10117000F50181915F011F928F93AAE0B2E2BF93C4
:10118000AF93CE5ADD4F2883C255D2400E942C2205
:1011900023940F900F900F900F90CE5ADD4F28811F
:1011A000C255D240E3CF5801A20EB11CD5018C919B
:1011B00086951F928F9380EB91E29F938F930E946D
:1011C0002C22F50180810F900F900F900F9080FFDF
:1011D00003C089EB91E202C08CEB91E20E94652290
:1011E00015C082EA95E23AD4882381F00E94271E36
:1011F00082EA95E233D4882349F082EA95E23ED42C
:10120000682F80E090E20E946A1FF2CF60E2C7017F
:101210000E9419118F3F09F4EFC0811124C06FEBB8
:1012200071E2C7010E94A021DC018C918133C1F4DD
:1012300082EC91E29F938F930E942C2281E0809315
:10124000CB2366EC72E280E090E00E94A0219F93A5
:101250008F9388ED91E29F938F930E942C22C6C0BA
:1012600081EE91E294C0843099F5FF92EF928BEF7A
:1012700091E29F938F930E942C2260EC71E2C70150
:101280000E94A02160EC71E280E090E00E94A02129
:101290005C0160E2C7010E94CD13F50101900020BE
:1012A000E9F73197EA19FB090F900F900F900F9013
:1012B000709708F0A1C0B501C6010E94BD21DF9260
:1012C000CF9287E192E29F938F930E942C2221C0BC
:1012D000863091F560EC71E2C7010E94A021FC010B
:1012E00001900020E9F73197E81BF90B709708F09F
:1012F00083C0BC01C6010E94BD21DF92CF928DE068
:1013000092E29F938F930E942C226FEFC7010E945D
:10131000CD134FEFB801C6010E946D13C6010E94A4
:10132000C4131F928F9386E092E29F938F930E9443
:101330002C22CDBFDEBF60C0813079F5FF92EF92E5
:1013400087E292E29F938F930E942C226FEB71E2CF
:10135000C7010E94A02164EA70E280E090E00E9450
:10136000A0210F900F900F900F90DC018C91813392
:1013700061F480E392E29F938F930E942C2282E09B
:101380008093CB230F900F9037C08FE392E29F930F
:101390008F930E942C2286E0F3CF823021F484E0E8
:1013A0008093CB2329C08830B9F4FF92EF9280E577
:1013B00092E29F938F930E942C224FEFB801C601B7
:1013C0000E946D130E94D51386E08093CB230F906B
:1013D0000F900F900F9010C0FF92EF921F928F937B
:1013E00080E692E29F938F930E942C220F900F90A1
:1013F0000F900F900F900F908BE190E20E94DF1FF3
:1014000080E090E20E94DF1F0E945E1BA895809101
:10141000CB23823051F40E94D5130E94E71383E05E
:101420008093CB2354E1852E27C08430B1F488E625
:1014300092E29F938F930E942C2265EF70E2C60187
:101440000E94BD21B6018DE792E20E945E1785E001
:101450008093CB230F900F900FC0863069F48CE8F7
:1014600092E20E9465220E94EB130E94D5130E9413
:10147000E3131092CB23812C8091CB23823078F020
:10148000B1E08B120CC08FE992E29F938F930E9480
:101490002C2286E08093CB230F900F90812C80919B
:1014A000CA23851509F4B1C05090CA23E1E0E815BC
:1014B00068F48A941F928F9288EA92E29F938F93A6
:1014C0000E942C220F900F900F900F90772059F0D0
:1014D000BE01635B7D4F8DEC93E20E9493148DEC13
:1014E00093E20E94FB13911005C06BE280E090E252
:1014F0000E946A1F7720C9F0B6018DEC93E20E942A
:10150000931481110EC08A818F9389818F9381EB0F
:1015100092E29F938F930E942C220F900F900F9036
:101520000F908DEC93E20E94FB13809179248A3016
:1015300008F06BC08F5F809379241F928F938DEB9F
:1015400092E29F938F930E942C22809179240F9096
:101550000F900F900F90813049F488EC92E29F93A6
:101560008F930E942C220E94A1154DC0823051F50C
:101570000E9428165C018AE490E00E94B224A8161A
:10158000B90619F484ED92E21AC082E490E00E9458
:101590008A16FFEF23ED80E3F15020408040E1F711
:1015A00000C000000E9428162091CF0127FDFCCF2B
:1015B000BC018AE490E00E94F52481EE92E20E9450
:1015C000652223C0853041F484EF92E20E946522B7
:1015D00080E48093050619C0873031F484E193E2FA
:1015E0000E94652280D411C0893079F488E293E2A8
:1015F0000E946522C7D5811108C08EED92E29F93AB
:101600008F930E942C220F900F9080914806242DDA
:1016100030E0837F90E02817390709F4EFCBB090D2
:1016200048069B2D937F492E80E493E29F938F93EE
:101630000E942C220F900F90B0FE03C086E493E22C
:1016400002C08DE493E29F938F930E942C220F900F
:101650000F90B1FE03C084E593E202C089E593E2F6
:101660009F938F930E942C220F900F90B6FC03C083
:101670008FE593E202C082E693E29F938F930E94EC
:101680002C220F900F908AE090E00E946022B6CB4F
:101690001F920F920FB60F9211248F93809179248D
:1016A0008A3018F484E0809307068AE08093060667
:1016B0008F910F900FBE0F901F9018951F920F9251
:1016C0000FB60F9211248F938091CA238F5F80935E
:1016D000CA238F910F900FBE0F901F901895E0E0D6
:1016E000F4E020853185280F391F248735878381D1
:1016F000826083830895E0E0F4E08381827008953E
:10170000292F33272230310559F02330310569F074
:1017100021303105F9F482E190E025E233E01EC08A
:1017200083E890E022EA32E019C0992781309105E0
:1017300041F08230910541F0892B61F4EEE9F2E04D
:1017400005C0E4E8F2E002C0ECE5F2E0849190E04C
:101750009F0104C080E090E020E030E0FA012083A7
:10176000318308950F931F93CF93DF9300D0CDB7AC
:10177000DEB7FB01813051F0823061F0833081F4BB
:1017800080E800E010E022E092E00FC080E802E292
:1017900010E003C080E802E010E020E291E005C024
:1017A00081E800E010E020E090E03091CF0137FDCB
:1017B000FCCF913071F4DF010D900020E9F7AE1BF2
:1017C000A217C8F44A2F50E0B801CF010E94B624F6
:1017D00011C0923081F442E0BF01CE010196A4D540
:1017E000698170E0762F66278A81680F711DC801B4
:1017F0000E94CE2480E02396CDBFDEBFDF91CF9143
:101800001F910F9108956F927F929F92AF92BF9216
:10181000CF92DF92EF92FF920F931F93CF93DF93BC
:10182000CDB7DEB7C65AD109CDBFDEBF3C01CB0173
:101830006E0125E9C20ED11C2DE0F60111922A9508
:10184000E9F728E0F601208366E673E20E94A02112
:101850008C0166E673E280E090E00E94A0215C01CA
:1018600066E673E280E090E00E94A0217C01011511
:10187000110511F43FEF8EC0A114B104D9F3009704
:10188000C9F3F80180818033A8F39181903390F3FC
:101890003DD5982E929480EF9822F801818136D51B
:1018A000980EF3E6F91530F38E010B581F4F80E2C6
:1018B000F80111928A95E9F740E250E0B501C801BC
:1018C0000E94C421F601928246E0B301C601079648
:1018D0002BD540E2B701CE018B5A9F4F25D5CE01C3
:1018E0008E559F4F0E940219811102C03FEF01C027
:1018F00031E0CE55DF4F188219821A821B82C25AFC
:10190000D040CE018B5A9F4F7C0120E040E0BE01C9
:101910006E557F4F84559109CA55DF4F3883C65A9B
:10192000D0400E94F319CA55DF4F3881C65AD040C3
:10193000811132E0CE55DF4F8881C25AD0408430C9
:10194000E9F4CD55DF4F8881C35AD040811116C0CC
:10195000CC55DF4F8881C45AD040833079F4CB55C1
:10196000DF4F8881C55AD040803441F487EA90E245
:101970000E946522B501892DF5DE382FCA55DF4F4B
:101980003883C65AD0400E945218CA55DF4F38815A
:10199000C65AD040832FCA55DF4FCDBFDEBFDF917F
:1019A000CF911F910F91FF90EF90DF90CF90BF905C
:1019B000AF909F907F906F900895FC012081207FD1
:1019C000622B60830895FC0126812C7F622B668345
:1019D0000895FC01608371834283EC5DFE4F1082A9
:1019E0003197108233961082319710820895FC014E
:1019F000EB5DFE4F2081319690812F5F2F7181E04A
:101A0000291301C080E008950F931F93CF93DF93B4
:101A10001F92CDB7DEB78C016983E9DF6981882326
:101A2000B9F0F801EB5DFE4F9081D801A90FB11D0F
:101A3000AD5FBE4F6C939F5F9F719083D801ED9116
:101A4000FC91119793819C7F12962C91922B9383FA
:101A50000F90DF91CF911F910F910895FC01ED5DE3
:101A6000FE4F20813196908181E0291301C080E0F2
:101A70000895895D9E4FFC0180810895FC01E95D18
:101A8000FE4F108233972081DC01A20FB11D139607
:101A90008C9190819F5F90830895CF93DF93FC0199
:101AA000ED5DFE4F20812F5FDC01AC5DBE4F4C91A0
:101AB000EC01A881B9813C913D3029F451E0DC0171
:101AC000A95DBE4F5C93241749F04081DC01A40F4F
:101AD000B11D13963C93208381E001C080E0DF912B
:101AE000CF910895CF93DF93FC01EA5DFE4F2081F3
:101AF000DC01AB5DBE4F3C91EC01A881B981321392
:101B000007C013968C9113978C7F13968C930CC0FF
:101B10002081820F911DEC01CD5FDE4F88818C9377
:101B200080818F5F8F718083DF91CF910895CF93F4
:101B3000DF9341E060EA78E08AE794E24ADFCAE7AF
:101B4000D4E2E881F98183E08583838180638383A4
:101B50008EE2868386811F928F9388E693E29F931D
:101B60008F930E942C22E881F98188E987838781FD
:101B70001F928F9380E793E29F938F930E942C2272
:101B8000E881F98184818061848384818860848391
:101B9000E0E4F6E088E08183858384E08283E0EA04
:101BA000F0E08281856082838DB79EB708968DBFF5
:101BB0009EBFDF91CF910895CF93DF9341E060EA1C
:101BC00079E082EA95E205DFC2EAD5E2E881F981AF
:101BD00083E0858383818F7C8061838385EE868328
:101BE00086811F928F9388E693E29F938F930E9442
:101BF0002C22E881F9818CEB878387811F928F9358
:101C000080E793E29F938F930E942C22E881F981D1
:101C1000848180618483848188608483E0E6F6E047
:101C200088E08183858384E08283E0EAF0E082813A
:101C3000816082838DB79EB708968DBF9EBFDF916E
:101C4000CF910895CF93DF9341E060EA7AE08AEC88
:101C500096E2BFDECAECD6E2E881F98183E08583B3
:101C600083818F7C8061838385EC868386811F924C
:101C70008F9388E693E29F938F930E942C22E881B2
:101C8000F9818CEA878387811F928F9380E793E2A3
:101C90009F938F930E942C22E881F9818481806137
:101CA0008483848188608483E0E8F6E088E081832F
:101CB000858384E08283E0EAF0E082818160828330
:101CC0008DB79EB708968DBF9EBFDF91CF910895C7
:101CD0001F920F920FB60F9211240BB60F922F93F3
:101CE0003F934F935F936F937F938F939F93AF93A4
:101CF000BF93EF93FF938AE794E2CFDEFF91EF91DA
:101D0000BF91AF919F918F917F916F915F914F9113
:101D10003F912F910F900BBE0F900FBE0F901F9011
:101D200018951F920F920FB60F9211240BB60F92B7
:101D30002F933F934F935F936F937F938F939F93D3
:101D4000AF93BF93EF93FF938AE794E2CBDEFF91CB
:101D5000EF91BF91AF919F918F917F916F915F9123
:101D60004F913F912F910F900BBE0F900FBE0F9090
:101D70001F9018951F920F920FB60F9211240BB659
:101D80000F922F933F934F935F936F937F938F9314
:101D90009F93AF93BF93EF93FF9382EA95E27DDE2B
:101DA000FF91EF91BF91AF919F918F917F916F9133
:101DB0005F914F913F912F910F900BBE0F900FBEEF
:101DC0000F901F9018951F920F920FB60F9211242B
:101DD0000BB60F922F933F934F935F936F937F9325
:101DE0008F939F93AF93BF93EF93FF9382EA95E214
:101DF00079DEFF91EF91BF91AF919F918F917F918C
:101E00006F915F914F913F912F910F900BBE0F906B
:101E10000FBE0F901F9018951F920F920FB60F9242
:101E200011240BB60F922F933F934F935F936F93B1
:101E30007F938F939F93AF93BF93EF93FF938AEC1E
:101E400096E22BDEFF91EF91BF91AF919F918F9121
:101E50007F916F915F914F913F912F910F900BBEAA
:101E60000F900FBE0F901F9018951F920F920FB6F4
:101E70000F9211240BB60F922F933F934F935F93C2
:101E80006F937F938F939F93AF93BF93EF93FF9342
:101E90008AEC96E227DEFF91EF91BF91AF919F917F
:101EA0008F917F916F915F914F913F912F910F9003
:101EB0000BBE0F900FBE0F901F901895E0E0F6E05C
:101EC00080E681838683E0E2F6E080E48583A0E417
:101ED000B6E088E156968C93569780EB11968C93DA
:101EE0008FEF8183089580E4E0E2F6E086832FEFB0
:101EF00083EC99E0215080409040E1F700C0000061
:101F000080E485830895682F8AE794E27DCD0F935E
:101F10001F93CF93DF931F921F92CDB7DEB7E82FA9
:101F2000F0E0EE0FFF1FE95CFC4F859194918C016E
:101F30000F5F1F4FFC018491882339F069837A83F6
:101F4000E2DFC8017A816981F2CF8B01F8018191CA
:101F50008F01882311F0D7DFF9CF8DE0D4DF80E047
:101F60000F900F90DF91CF911F910F9108951F93C4
:101F7000CF93DF93182F80E69AEEB1DBC0E08AE7BB
:101F800094E277DDDFEF882339F18AE794E276DDAA
:101F90008A3041F1C11105C08032B9F38D30A1F40E
:101FA0001BC0C13019F48B34A9F41EC0CF5FC330FD
:101FB00088F08D3089F06091493170914A3190E01C
:101FC0000E94FA21DEEFE1CF111111C0C1E08F3480
:101FD000E1F2C0E08D30C9F68EDB81110FC0DF3F2A
:101FE00071F20CC0C0E0D1CFC2E0D0E0CECF20ED86
:101FF000280F2A3008F4D22FC2E0ECCF8D2FDF91CA
:10200000CF911F910895BF92CF92DF92EF92FF92EE
:102010000F931F93CF93DF93D82EEB01C42E80E64E
:102020009AEE5DDBE12C00E0F12C1FEF8AE794E2F1
:1020300020DD882321F18AE794E220DD0C1520F4CD
:10204000DE01A00FB11D8C938A3009F45BC0F11042
:1020500005C0803309F058C0E02E56C08D3051F4D1
:10206000202F30E0215031096E2D70E02617370700
:1020700009F44DC00F5F8AE794E2F0DCDACF3BDB76
:10208000882349F0B12EDE01AE0DB11D1C92112343
:1020900029F0B12E3EC01E3F48F6F4CFED2DF0E002
:1020A000EE0FFF1FE655FB4FC590D490E12CF12CAD
:1020B000B701A601CE010E94FE048C010097F9F041
:1020C000C701B6010E94F304F80101900020E9F76E
:1020D0003197E01BF10BE81B1E16DCF4EE2EFF24FB
:1020E000E7FCF094B801680F711D87FD7A95A70190
:1020F000CE010E94AC21CE0DDF1D18820AC02DEF4B
:10210000B22E07C0F12CB6CF92E0F92EB3CF10E07B
:10211000B1CF8B2DDF91CF911F910F91FF90EF9059
:10212000DF90CF90BF9008950F931F93CF93DF93CD
:102130001F92CDB7DEB78C01462F60E070E082E0E1
:102140004983E5DE4981B80189E00F90DF91CF91A5
:102150001F910F9158CF0F931F93CF93DF931F922F
:10216000CDB7DEB78C01462F60E070E086E1498391
:10217000CEDE4981B80187E00F90DF91CF911F91AA
:102180000F9141CFCF93DF938091480686FD4BC0DE
:1021900060E070E080E0BBDE80E0E9DE2FEF33EC52
:1021A00099E0215030409040E1F700C000008111DB
:1021B00013C060E070E081E0AADE81E0D8DED82FB5
:1021C0002FEF33EC89E0215030408040E1F700C030
:1021D0000000A895C3E012C060E070E080E097DEE8
:1021E00080E0C5DE9FEF23EC39E091502040304085
:1021F000E1F700C00000811119C0DBCF60E070E0A2
:102200008C2F85DE81E0B3DED80F8FEF93EC29E0D1
:10221000815090402040E1F700C00000A895CF5FBA
:10222000CD3061F702C08FEF01C08D2FDF91CF91CC
:1022300008959F92AF92BF92CF92DF92EF92FF925A
:102240000F931F93CF93DF93EC01062F8AE794E25D
:1022500010DC811103C099249A944BC0F12C10E03A
:10226000015011098AE794E209DC2F2D30E0201794
:1022700031072CF4FE01E20FF31F8083F3948D30BD
:1022800089F7FE01EF0DF11D10824AEAA42E44E009
:10229000B42E912CF501C590D490E12CF12CB7010E
:1022A000A601CE010E94FE048C010097D1F0C70167
:1022B000B6010E94F304F80101900020E9F731977C
:1022C000E01BF10BE81BA9F0EE2EF12CB801680F12
:1022D000711DA701CE010E94AC21CE0DDF1D188219
:1022E00008C0939482E0A80EB11C8AE09812D2CF65
:1022F000B2CF892DDF91CF911F910F91FF90EF9079
:10230000DF90CF90BF90AF909F9008959FEB980F74
:10231000963010F4875308959FE9980F963010F483
:102320008755089580530895BF92CF92DF92EF9220
:10233000FF920F931F93CF93DF937C01C42EEB0189
:10234000B82E8C01D02EDB18DC14C8F488818033C1
:10235000B0F0DCDF2296FE0131979081903358F087
:10236000D82ED29450EFD522892FD0DF8D0DF801D1
:1023700081938F01E7CFF701ED0DF11D808381E09F
:102380008D0D8C1530F4F701E80FF11D10828F5F71
:10239000F8CFDF91CF911F910F91FF90EF90DF90D9
:1023A000CF90BF9008954F925F926F927F928F92DD
:1023B0009F92AF92BF92CF92DF92EF92FF920F93D4
:1023C0001F93CF93DF933B0101967C01512C00E0DA
:1023D00010E0C0E0D0E066E0A62EB12C77E0872EBA
:1023E000912CF701319780816301C00ED11E8823A3
:1023F00009F440C08BDF482EF701808187DFF0E1D0
:102400004F9E800D1124F501EC1BFD0BE658FF4D8E
:102410009081682F69230C2E01C0660F0A94EAF799
:10242000A8014F5F5F4F650DF6016083282F30E0F4
:10243000892F90E08095909528233923C4018C1B27
:102440009D0B02C0359527958A95E2F7522EC6302E
:10245000D10551F4F301E40FF51F20834F5F5F4F67
:10246000512CC0E0D0E001C02196F2E0EF0EF11C4B
:102470008A01B7CFF6011082C801DF91CF911F9179
:102480000F91FF90EF90DF90CF90BF90AF909F9013
:102490008F907F906F905F904F9008950F931F9350
:1024A000CF93DF938B01FC0101900020E9F7319776
:1024B000E81BF90BDC012C912A3009F40196EC01A0
:1024C00020E030E0DE012E173F0744F411968881AA
:1024D0008A3021F02F5F3F4FED01F4CFED01CE01A7
:1024E0008A1B9B0B8E179F0734F488818A3009F46E
:1024F00018822196F4CF2E173F070CF046C0ED014D
:10250000229611968C9102DFC80FD11DC80FD11DE4
:1025100022968981FBDE282F30E080FF02C02F5FEA
:102520003F4F24960115110559F170E060E0472FE7
:1025300050E0862F90E042175307F4F4FE01E40FB9
:10254000F51F508141E0460FE1E0E70FDE01AE0FDD
:10255000B11DFD017E5FE081D801A80FB91FEC938A
:1025600080ED850F8A3030F4F801E40FF11D5083BF
:1025700042E0460F642FDBCFF801E80FF91F10820D
:10258000CE01820F931F449602C080E090E0DF915D
:10259000CF911F910F9108951F93CF93DF932EE05A
:1025A00035E0DB01F901C0E05E2F521BD491D1115F
:1025B00005C0A1E0A50F50E0D6E420C0442341F0BF
:1025C000DD3209F05C2FDD9341503196C52FECCF01
:1025D0004FEFEFCF4423F9F0FC01118130E01123DC
:1025E000A1F002965F5F260F371FF9011083FB01F0
:1025F000EA0FF11DB0835F5FAE5F41502FEF2A0FEE
:10260000FC01B081B111E6CF07C00196FB01E20FDA
:10261000F31FD083ECCF4FEF5A3048F4FB01EC0F9F
:10262000F11D505D5083420FE1E0F5E011C086EFEF
:10263000850F8630C0F7FB01EC0FF11D595CF2CF1E
:102640003196241761F0DB01A80FB91F5C93232F8B
:102650005491822F90E031E0320F5111F1CFFB0104
:10266000E80FF91F2AE12083FB01E30FF11D10821F
:10267000FB0101900020E9F73197E61BF70BF69577
:10268000E7958FEF8E0FDF91CF911F9108950F93F4
:102690001F93CF93DF938B01BC0182E138DC80E292
:1026A0009EE41DD88AE794E2D9D9811104C023D8C9
:1026B0008823C1F307C08AE794E2E0D98E33B9F7E3
:1026C000E80106C081E0DF91CF911F910F914FCCBF
:1026D00089918823B9F317DCFBCFCF92DF92EF9279
:1026E000FF920F931F93CF93DF93CDB7DEB7C05BFD
:1026F000D109CDBFDEBF7B01C42EBC018FE007DC5A
:102700004C2DB70185E07FDCD82E81112FC0BE0192
:102710006F557F4FC701C2DE8E010F5F1F4FB8019B
:1027200042DE892B09F1B801CE018F559F4F6BD83E
:1027300081111CC04C2DB701CE018F559F4F2CDF4E
:102740001F928F9326EB31E23F932F931F930F93AA
:102750000E949222B701C8019ADF0F900F900F904C
:102760000F900F900F9002C0DD24D3948D2DC05593
:10277000DF4FCDBFDEBFDF91CF911F910F91FF9053
:10278000EF90DF90CF900895BC0180E1C0DB81E045
:10279000EECB60E070E081E1BACB462FBC0189E06E
:1027A00032CC60E070E08EE0B2CB8AE794E256D99A
:1027B000882321F08AE794E261D9F7CF089560E099
:1027C00070E084E1A4CB60E070E083E1A0CB60E046
:1027D00070E085E19CCB80E1E0E4F6E085832FEFBB
:1027E00083EC99E0215080409040E1F700C0000068
:1027F00080E186830895CF93DF93EC010E945F040C
:10280000882341F0CE010E94BE0384E40E94AD0300
:1028100081E009C088E793E29F938F930E942C2266
:102820000F900F9080E0DF91CF910895FC012181FE
:1028300030E0322F22278081282B2E7F63E0220F69
:10284000331F6A95E1F746818CE090E0841B910983
:10285000820F931F97FF05C0919581959109E1E043
:1028600001C0E0E09C0144E0369527954A95E1F7E8
:102870006AE0629FA001639F500D11248F70992719
:1028800060E872E0869F9001879F300D969F300D23
:102890001124E11101C03E5F232F33272695269591
:1028A000240F351FEE2319F0319521953109C90107
:1028B0008A5D9D4F8930974018F08FE097E2089528
:1028C000C9010895EF92FF920F931F93CF93DF9367
:1028D0001F921F92CDB7DEB7142F6A8379830E94AF
:1028E000BE038EEB0E94AD036A81062FE62E79812E
:1028F000F72E60E08E2D801B811758F46A830E94AA
:10290000E803F70181937F016A810E943003682FF9
:10291000F1CF862F0F900F90DF91CF911F910F91E4
:10292000FF90EF900895EF92FF920F931F93CF9334
:10293000DF93CDB7DEB72997CDBFDEBF7C018B011A
:102940000E945F0449E0BE016F5F7F4FC701BADF9D
:10295000F82E811106C0CE01019668DFF801808350
:1029600091838F2D2996CDBFDEBFDF91CF911F912F
:102970000F91FF90EF9008959F92AF92BF92CF92E8
:10298000DF92EF92FF920F931F93CF93DF938C010F
:10299000C3E064E0C8010E947704882341F0C1507D
:1029A000C1F787EB93E20E946522912C57C020E08B
:1029B00030E0912CF801E20FF31F80818111939494
:1029C000275F3F4F24323105A9F71F929F922CE9D0
:1029D00033E23F932F930E942C220F900F900F9081
:1029E0000F90C1E0D0E076EAC72E73E2D72EECEA72
:1029F000AE2EE3E2BE2EF8018081882329F1DF9319
:102A0000CF93DF92CF920E942C220F900F900F90C5
:102A10000F90E12CF12CF801EE0DFF1D81811F922A
:102A20008F93BF92AF920E942C22EFEFEE1AFE0A14
:102A30000F900F900F900F90F8E0EF16F10459F7F8
:102A400086EC92E20E946522075F1F4F2196C530F7
:102A5000D10589F681EB93E20E946522892DDF91F1
:102A6000CF911F910F91FF90EF90DF90CF90BF908B
:102A7000AF909F900895E0E6F6E088EB818B82E0CE
:102A80008583818380E1858381830895882321F074
:102A900080E180936606089580E18093650608953D
:102AA000CF9382EA95E20E942E0D882329F082EAD4
:102AB00095E20E943E0DF5CF81E0E8DF8FE39FE1D4
:102AC0000197F1F700C0000082EA95E20E942E0D06
:102AD000882339F082EA95E20E943E0DC1E08E33F0
:102AE00009F0C0E080E0D2DF8C2FCF9108950F93E2
:102AF0001F93CF93DF93C091CA2300E010E0D0E092
:102B000082EA95E20E942E0D882359F082EA95E22E
:102B1000113021F40E943E0D082F02C00E943E0D8C
:102B20001F5F133040F42091CA2330E02C1B3D0B73
:102B3000223031052CF3802FDF91CF911F910F911F
:102B400008951F93CF93DF93ABDF882309F47AC0F6
:102B5000D1E6C0E069E582EA95E20E94040D6D2F9E
:102B600082EA95E20E94040DC2DFEC2FF0E0E45D02
:102B7000FA4FE4918E1301C0CF5FDF5FDD3651F76E
:102B8000CB3009F058C08CE295E09F938F930E9460
:102B90003D228FE195E09F938F930E943D220F90FD
:102BA0000F900F900F901EE669E582EA95E20E9471
:102BB000040D612F82EA95E20E94040DC091493113
:102BC000D0914A3194DFBE0190E00E94FA211F5F4C
:102BD000123751F789E195E09F938F930E943D2230
:102BE0000F900F9013E769E582EA95E20E94040DC9
:102BF000612F82EA95E20E94040DC0914931D09183
:102C00004A3175DFBE0190E00E94FA211F5F17373D
:102C100051F76091493170914A318AE090E00E9409
:102C2000FA216091493170914A318DE090E00E9423
:102C3000FA21C1E001C0C0E068E582EA95E20E94A5
:102C4000040D01C0C0E08C2FDF91CF911F9108953A
:102C5000FF920F931F93CF93DF930091CA2320DF3E
:102C6000882309F449C060E382EA95E20E94040DDA
:102C7000CFEFDFEFF12C10E082EA95E20E942E0DFB
:102C80008823E1F082EA95E20E943E0DC8278C2F4E
:102C900082958C27082E869586958025082E869508
:102CA000802587700C2ECD2F869507948795D02D83
:102CB000C82706948795D025C827F39480E48F15FC
:102CC00038F48FE39FE10197F1F700C0000009C0DD
:102CD0008091CA2390E0801B910B02970CF4CCCF1B
:102CE000F0CF82EA95E20E942E0D882339F082EA25
:102CF00095E20E943E0DF5CFCFEFDFEF68E582EA67
:102D000095E20E94040DCE01DF91CF911F910F91AA
:102D1000FF9008950F931F93CF93DF93EC01C0DED4
:102D2000811102C080E05AC06DE482EA95E20E94FF
:102D3000040D8FEB9DE50197F1F700C0000082EADA
:102D400095E20E942E0D882369F382EA95E20E94A3
:102D50003E0D8E3339F78091CF0187FDFCCFCE0138
:102D60000E94A224182FCE0101960E94A224082FAF
:102D70001F3FB9F46FEF82EA95E20E94040D8EEBDB
:102D800093E29F938F930E942C229FEF23EC89E084
:102D9000915020408040E1F700C000000F900F905C
:102DA0000CC02296612F82EA95E20E94040D602FEA
:102DB00082EA95E20E94040DCECF82EA95E20E945B
:102DC0002E0D882329F082EA95E20E943E0DF5CF70
:102DD00068E582EA95E20E94040D81E0DF91CF91DF
:102DE0001F910F910895FF920F931F93CF93DF933D
:102DF000EC0180917524853011F41092752410E057
:102E000005E084E0F82E82EA95E20E942E0D8823E8
:102E100009F44DC082EA95E20E943E0D909175241E
:102E200091110AC0883679F781E0809375248091EA
:102E3000CA2380937424E7CF913049F4809373249C
:102E40001092722492E0909375248883DCCF9230A4
:102E500081F4909172249F5F90937224FE01E90F98
:102E6000F11D8083809173249813CDCFF092752447
:102E7000CACF943041F6863121F40093752410E8CE
:102E8000C2CF883629F481E08093752412E0BBCF4D
:102E90002091CA2330E080917424281B310923300B
:102EA00031050CF4B0CF0093752411E0ACCF812F25
:102EB000DF91CF911F910F91FF900895DF92EF92D4
:102EC000FF920F931F93CF93DF93CDB7DEB7289771
:102ED000CDBFDEBF8B0169DC9BE6E92E95E0F92EC4
:102EE000F701D490DD2099F06D2D8AE794E20E94DD
:102EF000040D8823C9F36091493170914A318D2DB9
:102F000090E00E94FA218FEFE81AF80AE9CF88E3EF
:102F1000E82E85E0F82EF701D490DD2059F06D2DD4
:102F20008AE794E20E94040D8823C9F3FFEFEF1AA9
:102F3000FF0AF1CFF80101900020E9F73197E01B7B
:102F4000F10BFF27FF93EF9382EC93E29F938F9314
:102F5000CE0101967C01FF928F930E9492220F90E6
:102F60000F900F900F900F900F90F701D1907F016D
:102F7000DD2079F06D2D8AE794E20E94040D88230C
:102F8000C9F3F3CF6F2D8AE794E20E94040D8823E2
:102F9000C9F3F801F1908F01F110F4CF2896CDBF5D
:102FA000DEBFDF91CF911F910F91FF90EF90DF90E7
:102FB0000895CF92EF92FF920F93CF93DF931F92DA
:102FC000CDB7DEB78983C62E7A0101E09E012F5F5F
:102FD0003F4F4AE06091762480EA94E00E945721B6
:102FE000882311F080EF01C080E00F90DF91CF9136
:102FF0000F91FF90EF90CF900895E0EAF4E01082F7
:103000008BE4858388E08183128281E0848388EC6D
:103010008093762408954AE060E080EA94E00E947C
:10302000072187E0E0EAF4E083838FEB9DE50197D9
:10303000F1F700C0000080E00895FF920F931F9306
:10304000CF93DF93F62EC82FD0E02197862F8F19CC
:1030500090E08C179D0764F48B010F5F1F4F40E0D9
:1030600080EA94E00E944221882349F0B801EECF23
:1030700041E080EA94E00E944221811105C087E08E
:103080008093A30481E004C087E08093A30480E0E0
:10309000DF91CF911F910F91FF900895AB01682FA1
:1030A00083E087CF40E050E060E081E082CF40E005
:1030B00050E060E080E07DCF1F93CF93DF93182F27
:1030C000EB016091762461604AE080EA94E00E941E
:1030D0000721882321F08330D1F487EE18C040E027
:1030E000BE0180EA94E00E944221811102C080EF7B
:1030F0000EC08881843050F0181740F0BE016F5F19
:103100007F4F81509ADF8111F2CF01C084EEDF91B1
:10311000CF911F9108958FEF8093A6048091A4040E
:1031200086FFFCCF1092A6048091A40486FFFCCFFA
:1031300083E08093A3046091762461604AE080EA92
:1031400094E00E940721811104C087E08093A304CA
:10315000AECF80EF08951F93CF93DF93C62FFB016F
:1031600020E030E09E2F9C1B9817D8F4B19168E0C6
:1031700070E091E0D32FDD1FDD27DD1F220F331F0D
:10318000A1E0192F1B2309F4A0E0AD1719F0A5E069
:103190002A273058990F615071096115710551F74F
:1031A000E1CFFA0120833183DF91CF911F91089500
:1031B000FF920F931F93CF93DF931F921F92CDB770
:1031C000DEB78C01FC01F080FA94FA94AE014F5FF7
:1031D0005F4FBC018F2DBFDFF801EF0DF11D99810D
:1031E0008081981306C09A818181981302C080E083
:1031F00001C085EE0F900F90DF91CF911F910F913D
:10320000FF900895CF93DF93EC0105DF811121C07A
:10321000BE0184E051DF81111CC08881843059F4E3
:103220008981813151F48A81833349F48B818334DC
:1032300031F480E00EC084EE03C080EF01C085EE63
:103240002FEF35ED96E0215030409040E1F700C07F
:103250000000DF91CF910895CF93DF93EB015BDF07
:10326000882339F01FDFCE01CDDF811103C088EE46
:1032700001C080E0DF91CF9108955F926F927F92BD
:103280008F929F92AF92BF92CF92DF92EF92FF9276
:103290000F931F93CF93DF931F921F92CDB7DEB78B
:1032A0006C01162F7A01722EFC0180808EEF880D42
:1032B00028EE33E0029F5001039FB00C1124F5E289
:1032C000AF0EB11CA601480F511DB60144DF03E04B
:1032D000502E00EE6E2C5A9409F472C00023C9F1EE
:1032E000B601882DDBDE082F811102C080E006C008
:1032F000B701812FB1DF873E71F762C0871541F0BA
:10330000EFE3FFE13197F1F700C000008F5FF6CFE8
:10331000B3E09B2E25C0A982BA82B701812FCCDEF3
:10332000082F49815A814552510949835A8329817D
:103330003A8126323105F0F0873E79F3043E59F0A8
:10334000C70136DF082F81112EC0F701808185303B
:1033500000F180E036C0B701812F7EDF811114C0FB
:103360009A9409F4B8CFF7018E2F8619811798F631
:103370001192FACF873E11F7B701812F6DDF873E9B
:1033800009F0A9CF87EE1DC0883E09F4A4CF84EED2
:1033900018C0F7018181833079F08F3079F08F3F49
:1033A000C1F604ED98CFB701812F56DF8823C1F213
:1033B000883E09F490CF04C082ED03C083ED01C0C4
:1033C000802F0F900F90DF91CF911F910F91FF9061
:1033D000EF90DF90CF90BF90AF909F908F907F90B5
:1033E0006F905F900895CF92DF92EF92FF920F93CC
:1033F0001F93CF93DF93EC01009709F43FC0611551
:103400007105E1F1E114F104C9F1C114D104B1F184
:10341000842F8762873291F5203180F584E5888397
:1034200088E2898347724A832B831C82DE011596CA
:1034300080E20115110529F4FD0111928A95E9F741
:1034400005C0F80101900D928A95E1F7DE0195968D
:1034500080E2F70101900D928A95E1F7DE01AB5B06
:10346000BF4F8DE0F60101900D928A95E1F70BE1D7
:103470002BE0AB0164E0CE0100DF01C082EEDF9102
:10348000CF911F910F91FF90EF90DF90CF90089513
:103490000F931F93CF93DF93CDB7DEB7EA97CDBFDE
:1034A000DEBF07EF17E239D2F80181938F01F7E20F
:1034B0000F3F1F07C1F70E94A005A2D2882309F47D
:1034C000EFC02091F7273091F827832F90E08A30C2
:1034D000910508F0E5C0FC01E250FF4F2BC72038F2
:1034E00091F0223809F0DCC08091FB278F7035D233
:1034F000E0910128F0910228118112FB112710F9A7
:1035000080E02BD206C01091F3278091F42781111F
:1035100012608FD2812F11D280E0A3C0822F8D7FC5
:1035200009F0BEC0222319F0223061F0B9C08091A9
:10353000F927813009F0B4C0333009F080E080937E
:10354000F42729C08091F927811125C01091FB270C
:103550001F7009F4A5C0812F00D28091F827833015
:1035600011F493D218C0A0910128B09102281196AD
:103570008C9111978B7F11968C9324E8129FF00108
:103580001124EB5BF74D1082E0910128F0910228A5
:1035900080818E7F808380E0E0D14BD264C0211196
:1035A0007FC01091F9271F7744D23AD304D28823E1
:1035B000E9F31093C304112311F083E001C082E00A
:1035C0008093F6276DC02058223008F069C08091A2
:1035D000F9279091FA278C3DE3E09E0761F583E09F
:1035E0008A838AE389834FB7F894DE01139620E03B
:1035F00038E052E05093CA01E32FF0E0E4911092DA
:10360000CA0120FF03C0E295EF703F5FEF708E2F7D
:1036100090E0EA3010F0C79601C0C0968D939D935C
:103620002F5F2C3139F74FBF04D26AE370E0CE012F
:10363000019655D00FC0AE014F5F5F4F6091FB27E1
:103640000E94800B8C01009759F1F3D1B801898158
:103650009A81BFD053D124C0203811F5EAD180918E
:10366000F2276BD132D1DCD21BC0211119C080915D
:10367000F9278230A8F4DDD18091F9278093F227D1
:10368000CFD28091F227811104C08091C304882396
:1036900011F084E001C081E08093F6270E948D053F
:1036A000AFD1882311F0C5D1F0D1EA96CDBFDEBFEE
:1036B000DF91CF911F910F9108950895CF9380913D
:1036C000F627882351F0C091032880E046D198D195
:1036D0008111DEDE8C2FCF9140C1CF910895DF9212
:1036E000EF92FF920F931F93CF93DF93182F092F21
:1036F000EB0180910328806830D12091FD27309123
:10370000FE272C173D0720F0209719F4DED001C0CA
:10371000E901E12EF02ED12C209709F440C08091D0
:10372000F627811102C082E04CC0853011F483E09D
:1037300048C066D1882311F081E043C048D181118F
:103740003CC039D1882341F3209103288091FF2781
:1037500090910028FC0127FF05C0EF5BFF4F00811F
:1037600010E013C0E05CFF4F00813196808110E0D3
:10377000081B11090AC00830110548F4F7018191AE
:103780007F01DBD021970F5F1F4F2097A1F7DD242A
:10379000D3940830110509F0D12C97D0BDCFD110AA
:1037A000BECF0BC08091F627882309F4BCCF8530AB
:1037B00009F4BDCF25D18111BFCF09D1882391F361
:1037C00080E0DF91CF911F910F91FF90EF90DF90FC
:1037D0000895DF92EF92FF920F931F93CF93DF93A1
:1037E000182F092FEB01809103288068B6D0209113
:1037F000FD273091FE272C173D0720F0209719F464
:1038000064D001C0E901E12EF02ED12C209709F4FB
:1038100042C08091F627811102C082E04EC08530FF
:1038200011F483E04AC0ECD0882311F081E045C058
:10383000CED081113EC0BFD0882341F32091032810
:103840008091FF2790910028FC0127FF05C0EF5BC6
:10385000FF4F008110E015C0E05CFF4F0081319602
:10386000808110E0081B11090CC00830110558F4C4
:10387000F701849162D0FFEFEF1AFF0A21970F5FE3
:103880001F4F209791F7DD24D3940830110509F0DC
:10389000D12C1BD0BBCFD110BCCF0BC08091F62751
:1038A000882309F4BACF853009F4BBCFA9D08111A0
:1038B000BDCF8DD0882391F380E0DF91CF911F9110
:1038C0000F91FF90EF90DF900895E0910128F09123
:1038D0000228A091FF27B0910028AF5BBF4F8C91C9
:1038E00090E08283938380818D798083E091FF27AC
:1038F000F0910028EF5BFF4F10820895E0910128BE
:10390000F091022880818D798083E091FF27F091EA
:103910000028EF5BFF4F108208958091FF27909160
:103920000028FC01EF5BFF4F208131E0320F308334
:10393000FC01E20FF11D808108952091FF27309155
:103940000028F901EF5BFF4F908141E0490F408370
:10395000F901E90FF11D8083089580930328482F12
:103960004F7094E8499F900111242C5F374D60916E
:10397000C6047091C70490E1499FA001112487FFFC
:103980000FC02E5B3F4F2093FF2730930028CA01C2
:103990000896860F971F8093012890930228089518
:1039A0002093FF2730930028460F571F409301288C
:1039B000509302280895809103288068CEDFE0911B
:1039C0000128F09102288081869581700895809168
:1039D00003288F77C2DFE0910128F09102288081CF
:1039E00085FF0CC02091FF273091002882819381B0
:1039F000F901E05CFF4F808381E0089580E0089545
:103A0000809103288F77A9DFE0910128F0910228A7
:103A1000808184FF0CC02091FF2730910028828193
:103A20009381F901E05CFF4F808381E0089580E09D
:103A30000895809103288F7790DFE0910128F0911D
:103A4000022880818D788083E0910128F0910228FE
:103A5000808181608083E091FF27F0910028EF5BF7
:103A6000FF4F108280910328806877DFE091012862
:103A7000F0910228808181608083E091FF27F0919E
:103A80000028EF5BFF4F10820895E0910128F0912C
:103A90000228818184608183E0910128F0910228CD
:103AA0008181807C803459F480910328805855DFCF
:103AB000E0910128F091022881818460818308953A
:103AC0001F93CF93DF931F921F92CDB7DEB7182FAE
:103AD0004A83698342DFE0910128F0910228118234
:103AE000E0910128F0910228812F881F8827881FE4
:103AF000880F8083E0910128F09102286981618319
:103B0000E0910128F0910228128213822091FF2770
:103B10003091002824833583110F110B4A8114231F
:103B2000F901E05CFF4F10833196108281E00F9025
:103B30000F90DF91CF911F910895AF92BF92DF92C6
:103B4000EF92FF920F931F93CF93DF931F92CDB706
:103B5000DEB7D62E5C01F12CFD14D9F1F501E08021
:103B6000EE2091F10181128183819481923010F0D5
:103B700048E101C048E028E030E090E0201731073C
:103B800020F49F5F220F331FF9CF942B9F7E0134C7
:103B9000110510F080E01EC0882321F0813021F44F
:103BA000906C0CC0906403C09068811107C0402FD6
:103BB000692F80E88E0D998383DF9981402F692FCB
:103BC0008E2D7EDF882331F3F394F5E0AF0EB11C28
:103BD000C3CF81E00F90DF91CF911F910F91FF90A4
:103BE000EF90DF90BF90AF90089580E090E0E0917B
:103BF000C604F091C7049C0164E0220F331F6A954C
:103C0000E1F7E20FF31F1186E091C604F091C704BB
:103C1000E20FF31F118201968031910541F708955B
:103C20008091F72787FD04C0C6DE882351F00EC0BF
:103C3000CEDE811105C08091F6278111F9CF08955C
:103C40005DCE8091F6278111EFCF08953ECE1F9370
:103C5000CF93DF93E091C604F091C704F395C08140
:103C6000D18114E6809103288078803851F4A3DE56
:103C7000811105C08091F627811105C020C080E028
:103C800023C0A5DEF5CF8530E1F0E0910128F09169
:103C90000228818182FD17C0E091C604F091C7041B
:103CA000F395808191818C179D07E1F22FEF210F11
:103CB000112319F0EC01122FD5CF84E005C082E06A
:103CC00003C083E001C081E0DF91CF911F9108958F
:103CD00062D068D0E0ECF4E081818E7F81838081C6
:103CE0008F7780831092F5270895CF93DF93E0E4D8
:103CF000F0E014828481836084834DD053D0C0EC83
:103D0000D4E088818F778883888180688883109247
:103D1000F6271092F2271092F4271092F327888149
:103D20008064888348E068E480E8CADE48E068E4AC
:103D300080E0C6DE88858064888789818160898388
:103D4000DF91CF9108952FB7F89482E0E0ECF1E095
:103D50008287EAE1F0E0E491A0ECB4E0DA96EC933B
:103D6000DA97EBE1F0E0E491DB96EC93DB97E0ECA3
:103D7000F1E0128685E490E38E7F16968D939C93F6
:103D800017978FE18C9383E018968C932FBF81E077
:103D90008093F527AACFE0ECF4E0808583708087DC
:103DA00011860895E0ECF4E08FEF82878487089510
:103DB0001F920F920FB60F9211240BB60F922F93F2
:103DC0003F934F935F936F937F938F939F93AF93A3
:103DD000BF93EF93FF938091CA0487FF08C080913F
:103DE000C80487FF04C080E88093CA0466DC809121
:103DF000CA0486FF07C080E48093CA041092F627A5
:103E00000E948B058091CA0485FF14C080E28093D4
:103E1000CA048091F227882311F084E007C08091C2
:103E2000C304882311F083E001C081E08093F6276A
:103E30000E9489058091CA0484FF14C080E18093A8
:103E4000CA0482E08093F6271092F2271092C304EE
:103E5000CCDE48E068E480E833DE48E068E480E0F7
:103E60002FDE2BDCFF91EF91BF91AF919F918F914E
:103E70007F916F915F914F913F912F910F900BBE6A
:103E80000F900FBE0F901F901895CF93DF93EC010A
:103E9000FC0170968BE0DF011D928A95E9F782E0C4
:103EA0008C83898783E08E8761E0CE01019645DEB1
:103EB000882361F061E0CE0106963FDE882331F071
:103EC00061E0CE010B96DF91CF9137CE80E0DF919C
:103ED000CF910895CF93FC01C62F8091F6278430AF
:103EE000F9F44489558966897789452B462B472BF8
:103EF000B9F0818132DD2091FF2730910028F9014E
:103F0000EF5BFF4F908131978081981720F48C2FC1
:103F100014DD80E006C0D9DC9ADE8823C1F301C03D
:103F200082E0CF910895FB01682F84859585D2DFCB
:103F300021E030E0811102C020E030E0882799279D
:103F4000821B930B0895CF93DF932091F6272430A3
:103F500091F5FC014489558966897789452B462B63
:103F6000472B49F18181F9DC209103288091FF27BB
:103F700090910028FC0127FF05C0EF5BFF4F2081D7
:103F800030E008C0E05CFF4F20813196408130E096
:103F9000241B3109232B69F0FC01EF5BFF4FD0811B
:103FA0003197C08192DCDC1720F051DE811104C012
:103FB0008CDC80E001C082E0DF91CF910895CF9347
:103FC000DF93EC018091F627843089F44C895D8978
:103FD0006E897F89452B462B472B49F08981BDDCB3
:103FE000EADC882321F0CE01DF91CF91ACCFDF91C5
:103FF000CF910895CF93DF932091F627243019F0C5
:104000008FEF9FEF46C0FC01448955896689778907
:10401000452B462B472BA1F386819FDCD8DC8823D8
:1040200079F3809103282091FF2730910028F9012E
:1040300087FF05C0EF5BFF4F808190E008C0E05C28
:10404000FF4F80813196208190E0821B9109892B5E
:1040500021F063DCC82FD0E002C0CFEFDFEF80910A
:1040600003282091FF2730910028F90187FF05C020
:10407000EF5BFF4F808190E008C0E05CFF4F8081E4
:104080003196208190E0821B9109892B09F436DC5E
:10409000CE01DF91CF910895FC0184859585AADF3B
:1040A00097FF02C08EEF9FEF0895FB012EE0DB012A
:1040B0001D922A95E9F723E0238323E93FE1208736
:1040C00031872CE430E222873387848795870895EF
:1040D0000895FF920F931F93CF93DF93EC0190DC31
:1040E000882309F48EC0888190E02091FB273091CD
:1040F000FC272817390709F084C08091F8278132FE
:1041000059F018F4803249F17CC0823209F457C06A
:10411000833209F467C075C08091F727813A09F0AE
:1041200070C087DC48DC8823E9F38C89FD880E8920
:104130001F8903DC8F2D01DC802FFFDB812FFDDB4E
:10414000888DFBDB898DF9DB8A8DF7DBBEDBDF91A8
:10415000CF911F910F91FF9063CD8091F72781320E
:1041600009F04FC066DC33DC811105C08091F62771
:104170008111F9CF46C0D1DB082FCFDB182FCDDB63
:10418000F82ECBDB4F2D50E060E070E0BA015527F0
:104190004427782B402B512B4C8B5D8B6E8B7F8B68
:1041A000BCDB888FBADB898FB8DB8A8FA7DB38DD71
:1041B000CE01DF91CF911F910F91FF9089CF809118
:1041C000F7278132F1F435DC2BDD8091F9279091CE
:1041D000FA27888B998BCE01DF91CF911F910F9198
:1041E000FF9076CF8091F727813259F422DC18DDD9
:1041F0006091F927CE01DF91CF911F910F91FF9030
:1042000067CFDF91CF911F910F91FF900895FC012F
:10421000668384E6489FA0011124848141155105DD
:10422000B9F0982F9874983411F466830AC0982FC7
:104230009075903521F487E0838383E00895807C36
:1042400061F48AE68A95F1F700C041505109E5CF43
:1042500085FF05C087E0838302C080E0089582E087
:104260000895FC016783848186FFFDCF848186FFEA
:1042700006C084818295817091E0892701C080E029
:1042800081700895FC0184818C708C3071F0848180
:1042900087FFFDCF8781DB018C93442311F087E0FA
:1042A00001C082E0838381E0089580E008958F92C9
:1042B0009F92AF92BF92CF92EF92FF920F931F9374
:1042C000CF93DF931F921F92CDB7DEB75C016E7F55
:1042D00029833A839CDF182F29813A8181111BC0E1
:1042E0004901020F081541F0F40161914F01C50128
:1042F000B8DF8111F7CF15E04701EC0CE81441F06D
:10430000F40161914F01C501ACDF8111F7CF15E0D8
:1043100087E0F5018383812F0F900F90DF91CF917C
:104320001F910F91FF90EF90CF90BF90AF909F9013
:104330008F900895EE0FFF1F0590F491E02D1994D2
:1043400047E754E230C0FB01DC0102C001900D924E
:1043500041505040D8F708956817790768F4FB0179
:10436000DC01E40FF51FA40FB51F02C002900E92EE
:1043700041505040D8F70895E6CFFB01DC01019091
:104380000D920020E1F70895FB01DC0141505040FF
:1043900048F001900D920020C9F701C01D924150D4
:1043A0005040E0F70895FA01A191B081009719F407
:1043B0001097E1F0CD01DC01CD010D90002011F44A
:1043C000C00113C0FB012191222319F02015D9F758
:1043D000F3CFFB012191201519F41E92119606C00E
:1043E0002223C1F70D900020A1F7D001FA01A1937B
:1043F000B08308950F931F93CF93DF93182F092F46
:10440000EB018B8181FD03C08FEF9FEF20C082FF06
:1044100010C04E815F812C813D81421753077CF48F
:10442000E881F9819F012F5F3F4F288339831083F3
:1044300006C0E885F985812F1995892B29F72E81EA
:104440003F812F5F3F4F2E833F83812F902FDF913E
:10445000CF911F910F910895CF93DF93CDB7DEB722
:10446000FE01369661917191AF0180914931909131
:104470004A3180D0DF91CF9108950F931F93CF934E
:10448000DF93CDB7DEB7FE0138966191719109E4F3
:1044900011E3D8018D919C91DC0113962C91139717
:1044A000286013962C93AF0165D0D801ED91FC9153
:1044B0002381277F2383DF91CF911F910F9108954F
:1044C0006091493170914A3195CF0F931F93CF93EB
:1044D000DF93E0914931F0914A31238121FF1BC0E4
:1044E000EC0100E010E089916091493170914A310E
:1044F000DB011896ED91FC911997882331F01995FD
:10450000892B89F30FEF1FEFEECF8AE01995892BE6
:1045100011F4C80102C08FEF9FEFDF91CF911F917F
:104520000F9108950F931F93CF93DF93CDB7DEB70D
:104530002E97CDBFDEBF0E891F8986E08C8309834D
:104540001A838FEF9FE78D839E83AE01465E5F4F98
:10455000688D798DCE0101960DD0EF81F885E00F41
:10456000F11F10822E96CDBFDEBFDF91CF911F913C
:104570000F9108952F923F924F925F926F927F9288
:104580008F929F92AF92BF92CF92DF92EF92FF9263
:104590000F931F93CF93DF93CDB7DEB72C97CDBF8B
:1045A000DEBF7C016B018A01FC01168217828381C8
:1045B00081FFB0C1CE0101964C01F7019381F60154
:1045C00093FD859193FF81916F01882309F49EC12A
:1045D000853239F493FD859193FF81916F01853286
:1045E00021F4B70190E006DFE8CF512C312C20E018
:1045F0002032A0F48B3269F030F4803259F08332EB
:1046000069F420612CC08D3239F0803339F4216097
:1046100026C02260246023C0286021C027FD27C057
:1046200030ED380F3A3078F426FF06C0FAE05F9E8E
:10463000300D1124532E13C08AE0389E300D112402
:10464000332E20620CC08E3221F426FD5FC120641F
:1046500006C08C3611F4206802C0883641F4F60199
:1046600093FD859193FF81916F018111C1CF982FA7
:104670009F7D9554933028F40C5F1F4FFFE3F9831F
:104680000DC0833631F0833771F0833509F057C0A0
:1046900021C0F801808189830E5F1F4F4424439419
:1046A000512C540114C03801F2E06F0E711CF80156
:1046B000A080B18026FF03C0652D70E002C06FEFBF
:1046C0007FEFC5012C879FD12C0183012C852F778B
:1046D000222E16C03801F2E06F0E711CF801A08086
:1046E000B18026FF03C0652D70E002C06FEF7FEF41
:1046F000C5012C877DD12C012C852068222E8301B9
:1047000023FC19C0832D90E048165906A0F4B70188
:1047100080E290E06FDE3A94F5CFF50127FC8591B9
:1047200027FE81915F01B70190E064DE31103A9479
:10473000F1E04F1A51084114510479F7DEC0843674
:1047400011F0893631F5F80127FF07C060817181CA
:10475000828193810C5F1F4F08C06081718188271F
:1047600077FD8095982F0E5F1F4F2F76B22E97FF03
:1047700009C090958095709561957F4F8F4F9F4FA1
:104780002068B22E2AE030E0A40148D1A82EA81853
:1047900043C0853729F42F7EB22E2AE030E025C0B1
:1047A000F22FF97FBF2E8F36C1F018F4883579F0DB
:1047B000ADC0803719F0883721F0A8C02F2F2061B5
:1047C000B22EB4FE0DC08B2D8460B82E09C024FF1C
:1047D0000AC09F2F9660B92E06C028E030E005C0C1
:1047E00020E130E002C020E132E0F801B7FE07C06E
:1047F00060817181828193810C5F1F4F06C060814F
:10480000718180E090E00E5F1F4FA40107D1A82EB8
:10481000A818FB2DFF77BF2EB6FE0BC02B2D2E7FC9
:10482000A51450F4B4FE0AC0B2FC08C02B2D2E7E95
:1048300005C07A2C2B2D03C07A2C01C0752C24FFC7
:104840000DC0FE01EA0DF11D8081803311F4297E37
:1048500009C022FF06C07394739404C0822F867827
:1048600009F0739423FD12C020FF06C05A2C731464
:1048700018F4530C5718732C731460F4B70180E2CA
:1048800090E02C87B7DD73942C85F6CF731410F469
:10489000371801C0312C24FF11C0B70180E390E02C
:1048A0002C87A8DD2C8522FF16C021FF03C088E5D8
:1048B00090E002C088E790E0B7010CC0822F8678B4
:1048C00051F021FD02C080E201C08BE227FD8DE2A4
:1048D000B70190E08FDDA51430F4B70180E390E0DC
:1048E00089DD5A94F8CFAA94F401EA0DF11D808174
:1048F000B70190E07FDDA110F6CF332009F45DCE43
:10490000B70180E290E076DD3A94F7CFF701868137
:10491000978102C08FEF9FEF2C96CDBFDEBFDF9156
:10492000CF911F910F91FF90EF90DF90CF90BF90AC
:10493000AF909F908F907F906F905F904F903F903F
:104940002F90089503D0808199270895E0ECF1E03D
:10495000378537FDFDCF348538603487FC01E05062
:10496000F04F0895F3DF808191810895DC01A40F59
:10497000B51F4150504040F0CB01840F951F2E9140
:1049800005D041505040D8F70895262FDFDF008032
:10499000021611F008D00197019708950196272F6C
:1049A000F5DFF3CF262FE0ECF1E0378537FDFDCFC3
:1049B0003485377F3487378531FF09C036E3328746
:1049C00038ED34BF31E03387378537FDFDCF33E332
:1049D0003287808391831282248325E3228728ED06
:1049E00031E024BF338701960895DCDF272FDBCF2A
:1049F000FC010590615070400110D8F780959095AA
:104A00008E0F9F1F0895FC016150704001900110AE
:104A1000D8F7809590958E0F9F1F0895FA01AA27C9
:104A2000283051F1203181F1E8946F936E7F6E5FF1
:104A30007F4F8F4F9F4FAF4FB1E03ED0B4E03CD09F
:104A4000670F781F891F9A1FA11D680F791F8A1F82
:104A5000911DA11D6A0F711D811D911DA11D20D0E9
:104A600009F468943F912AE0269F11243019305DA3
:104A70003193DEF6CF010895462F4770405D419394
:104A8000B3E00FD0C9F7F6CF462F4F70405D4A33E1
:104A900018F0495D31FD4052419302D0A9F7EACFA9
:104AA000B4E0A6959795879577956795BA95C9F7D8
:104AB00000976105710508959B01AC010A2E0694CB
:104AC0005795479537952795BA95C9F7620F731F84
:0C4AD000841F951FA01D0895F894FFCFCF
:104ADC00028410000001051000000186080000018E
:104AEC000000000000000000000000008110000029
:104AFC00010210000001830800000100000000000A
:104B0C00000000000000001122334455667788999C
:104B1C00AABBCCDDEEFF0011223344556677889991
:104B2C00AABBCCDDEEFF040003400667004F284D06
:104B3C006E986204F460A3E8758A5985A67996C4C8
:104B4C008A8846434EB3DB58A4FB0103070F1F3F73
:104B5C007F57616B6545727200457865634572726B
:104B6C0020257820000A526573706F6E73653A20A9
:104B7C00090025782C20000A4964656E746963610C
:104B8C006C21000A537461727420707265636861E1
:104B9C0072676500204E3A2025780A004D4220436A
:104BAC006667206372633A2025780A0052696E6743
:104BBC003D25642C204354533D25642C204F4E3D01
:104BCC0025640033007B226964223A202239373570
:104BDC0033222C2022626F6F74223A3132333435F7
:104BEC007D007777772E686F6A2E6E75005365722D
:104BFC0069616C3A204E6F6E650053657269616C29
:104C0C003A2045787465726E616C20285036290004
:104C1C0053657269616C3A2047534D005365726954
:104C2C00616C3A204D62757300436F6D6D616E64FB
:104C3C00733A205B6D5D2073656C65637420326E16
:104C4C006420736572616C20656E64706F696E743C
:104C5C002E205B4F5D20496E697469617465206418
:104C6C00617461207472616E736665722E205B498B
:104C7C005D207465737420415453484132303400C4
:104C8C00525353493D2D2564002E35002E30002003
:104C9C002C0052656769737465726564206F6E20B1
:104CAC006E6574776F726B0043656C6C3A2025737C
:104CBC00004E4F5420726567697374657265642089
:104CCC006F6E206E6574776F726B00257320476F63
:104CDC007420534D530044656C3A257800476F742B
:104CEC0020616E20534D53207769746820696E647F
:104CFC0065782025730A004275663A2025732000DA
:104D0C00446174612073727663204F70656E004449
:104D1C00617461207372766320436C6F73656400F9
:104D2C004854545020526573756C743A20257300A6
:104D3C0025782D3E25730A004854545020436F6E3D
:104D4C006E656374696F6E206F70656E0066756E4C
:104D5C006B61722E696E74652E6E7500436C6F7389
:104D6C00696E6720636F6E6E656374696F6E005455
:104D7C00696D656F75742100546D723A202564203D
:104D8C0000092054656D703A2025640A00426F6F4B
:104D9C00743A2025640A0D004D6275732070726F91
:104DAC0062653A004D4220636F6E666967204F4B17
:104DBC00004D4220436F6E666967207570646174A4
:104DCC0065642E005374617274696E67206D61693D
:104DDC006E2047534D2056434320726567756C61B6
:104DEC00746F72005374617274696E672047534D0F
:104DFC00206D6F64756C6500496E697469616C69CE
:104E0C007A696E672047534D206D6F64756C650031
:104E1C0047534D3A200052494E4721200072696E8B
:104E2C006721200043545320006374732120004FEA
:104E3C004E006F6666003C0043413A202578200006
:104E4C0043423A2025782000445331385832305FA1
:104E5C0073746172745F6D6561733A2053686F721D
:104E6C00742043697263756974210D0031733A259E
:104E7C003032640D0A00253032643A002530327825
:104E8C00002A454E440D0031574572720D00456E97
:0A4E9C00640025640D0A0D0A0000F1
:00000001FF
